Component: ARM Compiler 5.06 update 4 (build 422) Tool: armlink [4d35d2]

==============================================================================

Section Cross References

    startup_stm32f103xb.o(STACK) refers (Special) to heapauxi.o(.text) for __use_two_region_memory
    startup_stm32f103xb.o(HEAP) refers (Special) to heapauxi.o(.text) for __use_two_region_memory
    startup_stm32f103xb.o(RESET) refers (Special) to heapauxi.o(.text) for __use_two_region_memory
    startup_stm32f103xb.o(RESET) refers to startup_stm32f103xb.o(STACK) for __initial_sp
    startup_stm32f103xb.o(RESET) refers to startup_stm32f103xb.o(.text) for Reset_Handler
    startup_stm32f103xb.o(RESET) refers to stm32f1xx_it.o(i.NMI_Handler) for NMI_Handler
    startup_stm32f103xb.o(RESET) refers to stm32f1xx_it.o(i.HardFault_Handler) for HardFault_Handler
    startup_stm32f103xb.o(RESET) refers to stm32f1xx_it.o(i.MemManage_Handler) for MemManage_Handler
    startup_stm32f103xb.o(RESET) refers to stm32f1xx_it.o(i.BusFault_Handler) for BusFault_Handler
    startup_stm32f103xb.o(RESET) refers to stm32f1xx_it.o(i.UsageFault_Handler) for UsageFault_Handler
    startup_stm32f103xb.o(RESET) refers to port.o(.emb_text) for SVC_Handler
    startup_stm32f103xb.o(RESET) refers to stm32f1xx_it.o(i.DebugMon_Handler) for DebugMon_Handler
    startup_stm32f103xb.o(RESET) refers to stm32f1xx_it.o(i.SysTick_Handler) for SysTick_Handler
    startup_stm32f103xb.o(RESET) refers to stm32f1xx_it.o(i.DMA1_Channel6_IRQHandler) for DMA1_Channel6_IRQHandler
    startup_stm32f103xb.o(RESET) refers to stm32f1xx_it.o(i.DMA1_Channel7_IRQHandler) for DMA1_Channel7_IRQHandler
    startup_stm32f103xb.o(RESET) refers to stm32f1xx_it.o(i.USART1_IRQHandler) for USART1_IRQHandler
    startup_stm32f103xb.o(RESET) refers to stm32f1xx_it.o(i.USART2_IRQHandler) for USART2_IRQHandler
    startup_stm32f103xb.o(.text) refers (Special) to heapauxi.o(.text) for __use_two_region_memory
==============================================================================

Removing Unused input sections from the image.

    Removing bottom.o(.rev16_text), (4 bytes).
    Removing bottom.o(.revsh_text), (4 bytes).
    Removing bottom.o(.rrx_text), (6 bytes).
    Removing bottom.o(i.ControlWei), (2 bytes).
    Removing control.o(.rev16_text), (4 bytes).
    Removing control.o(.revsh_text), (4 bytes).
    Removing control.o(.rrx_text), (6 bytes).
    Removing control.o(i.GetMpuData), (52 bytes).
    Removing control.o(.data), (1 bytes).
    Removing mpu6050.o(.rev16_text), (4 bytes).
    Removing mpu6050.o(.revsh_text), (4 bytes).
    Removing mpu6050.o(.rrx_text), (6 bytes).
    Removing mpu6050.o(i.MPU_Get_Temperature), (76 bytes).
    Removing mpu6050.o(i.MPU_Write_Len), (36 bytes).
    Removing sharp.o(.rev16_text), (4 bytes).
    Removing sharp.o(.revsh_text), (4 bytes).
    Removing sharp.o(.rrx_text), (6 bytes).
    Removing sharp.o(i.ShuiWeiSensor_Init), (60 bytes).
==============================================================================

Image Symbol Table

    Local Symbols

    Symbol Name                              Value     Ov Type        Size  Object(Section)

    ../Core/Src/adc.c                        0x00000000   Number         0  adc.o ABSOLUTE
    ../Core/Src/dma.c                        0x00000000   Number         0  dma.o ABSOLUTE
    ../Core/Src/freertos.c                   0x00000000   Number         0  freertos.o ABSOLUTE
    ../Core/Src/gpio.c                       0x00000000   Number         0  gpio.o ABSOLUTE
    ../Core/Src/i2c.c                        0x00000000   Number         0  i2c.o ABSOLUTE
    ../Core/Src/main.c                       0x00000000   Number         0  main.o ABSOLUTE
    ../Core/Src/stm32f1xx_hal_msp.c          0x00000000   Number         0  stm32f1xx_hal_msp.o ABSOLUTE
    ../Core/Src/stm32f1xx_it.c               0x00000000   Number         0  stm32f1xx_it.o ABSOLUTE
    ../Core/Src/system_stm32f1xx.c           0x00000000   Number         0  system_stm32f1xx.o ABSOLUTE
    ../Core/Src/tim.c                        0x00000000   Number         0  tim.o ABSOLUTE
    ../Core/Src/usart.c                      0x00000000   Number         0  usart.o ABSOLUTE
    ../Drivers/STM32F1xx_HAL_Driver/Src/stm32f1xx_hal.c 0x00000000   Number         0  stm32f1xx_hal.o ABSOLUTE
    ../Drivers/STM32F1xx_HAL_Driver/Src/stm32f1xx_hal_adc.c 0x00000000   Number         0  stm32f1xx_hal_adc.o ABSOLUTE
    ../Drivers/STM32F1xx_HAL_Driver/Src/stm32f1xx_hal_adc_ex.c 0x00000000   Number         0  stm32f1xx_hal_adc_ex.o ABSOLUTE
    ../Drivers/STM32F1xx_HAL_Driver/Src/stm32f1xx_hal_cortex.c 0x00000000   Number         0  stm32f1xx_hal_cortex.o ABSOLUTE
    ../Drivers/STM32F1xx_HAL_Driver/Src/stm32f1xx_hal_dma.c 0x00000000   Number         0  stm32f1xx_hal_dma.o ABSOLUTE
    ../Drivers/STM32F1xx_HAL_Driver/Src/stm32f1xx_hal_exti.c 0x00000000   Number         0  stm32f1xx_hal_exti.o ABSOLUTE
    ../Drivers/STM32F1xx_HAL_Driver/Src/stm32f1xx_hal_flash.c 0x00000000   Number         0  stm32f1xx_hal_flash.o ABSOLUTE
    ../Drivers/STM32F1xx_HAL_Driver/Src/stm32f1xx_hal_flash_ex.c 0x00000000   Number         0  stm32f1xx_hal_flash_ex.o ABSOLUTE
    ../Drivers/STM32F1xx_HAL_Driver/Src/stm32f1xx_hal_gpio.c 0x00000000   Number         0  stm32f1xx_hal_gpio.o ABSOLUTE
    ../Drivers/STM32F1xx_HAL_Driver/Src/stm32f1xx_hal_gpio_ex.c 0x00000000   Number         0  stm32f1xx_hal_gpio_ex.o ABSOLUTE
    ../Drivers/STM32F1xx_HAL_Driver/Src/stm32f1xx_hal_i2c.c 0x00000000   Number         0  stm32f1xx_hal_i2c.o ABSOLUTE
    ../Drivers/STM32F1xx_HAL_Driver/Src/stm32f1xx_hal_pwr.c 0x00000000   Number         0  stm32f1xx_hal_pwr.o ABSOLUTE
    ../Drivers/STM32F1xx_HAL_Driver/Src/stm32f1xx_hal_rcc.c 0x00000000   Number         0  stm32f1xx_hal_rcc.o ABSOLUTE
    ../Drivers/STM32F1xx_HAL_Driver/Src/stm32f1xx_hal_rcc_ex.c 0x00000000   Number         0  stm32f1xx_hal_rcc_ex.o ABSOLUTE
    ../Drivers/STM32F1xx_HAL_Driver/Src/stm32f1xx_hal_tim.c 0x00000000   Number         0  stm32f1xx_hal_tim.o ABSOLUTE
    ../Drivers/STM32F1xx_HAL_Driver/Src/stm32f1xx_hal_tim_ex.c 0x00000000   Number         0  stm32f1xx_hal_tim_ex.o ABSOLUTE
    ../Drivers/STM32F1xx_HAL_Driver/Src/stm32f1xx_hal_uart.c 0x00000000   Number         0  stm32f1xx_hal_uart.o ABSOLUTE
    ../Middlewares/Third_Party/FreeRTOS/Source/CMSIS_RTOS/cmsis_os.c 0x00000000   Number         0  cmsis_os.o ABSOLUTE
    ../Middlewares/Third_Party/FreeRTOS/Source/croutine.c 0x00000000   Number         0  croutine.o ABSOLUTE
    ../Middlewares/Third_Party/FreeRTOS/Source/event_groups.c 0x00000000   Number         0  event_groups.o ABSOLUTE
    ../Middlewares/Third_Party/FreeRTOS/Source/list.c 0x00000000   Number         0  list.o ABSOLUTE
    ../Middlewares/Third_Party/FreeRTOS/Source/portable/MemMang/heap_4.c 0x00000000   Number         0  heap_4.o ABSOLUTE
    ../Middlewares/Third_Party/FreeRTOS/Source/portable/RVDS/ARM_CM3/port.c 0x00000000   Number         0  port.o ABSOLUTE
    ../Middlewares/Third_Party/FreeRTOS/Source/queue.c 0x00000000   Number         0  queue.o ABSOLUTE
    ../Middlewares/Third_Party/FreeRTOS/Source/stream_buffer.c 0x00000000   Number         0  stream_buffer.o ABSOLUTE
    ../Middlewares/Third_Party/FreeRTOS/Source/tasks.c 0x00000000   Number         0  tasks.o ABSOLUTE
    ../Middlewares/Third_Party/FreeRTOS/Source/timers.c 0x00000000   Number         0  timers.o ABSOLUTE
    ../clib/angel/boardlib.s                 0x00000000   Number         0  boardinit3.o ABSOLUTE
    ../clib/angel/boardlib.s                 0x00000000   Number         0  boardinit2.o ABSOLUTE
    ../clib/angel/boardlib.s                 0x00000000   Number         0  boardinit1.o ABSOLUTE
    ../clib/angel/boardlib.s                 0x00000000   Number         0  boardshut.o ABSOLUTE
    ../clib/angel/dczerorl2.s                0x00000000   Number         0  __dczerorl2.o ABSOLUTE
    ../clib/angel/handlers.s                 0x00000000   Number         0  __scatter_zi.o ABSOLUTE
    ../clib/angel/kernel.s                   0x00000000   Number         0  rtexit.o ABSOLUTE
    ../clib/angel/kernel.s                   0x00000000   Number         0  rtexit2.o ABSOLUTE
    ../clib/angel/kernel.s                   0x00000000   Number         0  __rtentry.o ABSOLUTE
    ../clib/angel/kernel.s                   0x00000000   Number         0  __rtentry2.o ABSOLUTE
    ../clib/angel/kernel.s                   0x00000000   Number         0  __rtentry4.o ABSOLUTE
    ../clib/angel/rt.s                       0x00000000   Number         0  rt_raise.o ABSOLUTE
    ../clib/angel/rt.s                       0x00000000   Number         0  rt_errno_addr_intlibspace.o ABSOLUTE
    ../clib/angel/rt.s                       0x00000000   Number         0  rt_errno_addr.o ABSOLUTE
    ../clib/angel/scatter.s                  0x00000000   Number         0  __scatter.o ABSOLUTE
    ../clib/angel/startup.s                  0x00000000   Number         0  __main.o ABSOLUTE
    ../clib/angel/sys.s                      0x00000000   Number         0  libspace.o ABSOLUTE
    ../clib/angel/sys.s                      0x00000000   Number         0  indicate_semi.o ABSOLUTE
    ../clib/angel/sys.s                      0x00000000   Number         0  use_no_semi.o ABSOLUTE
    ../clib/angel/sys.s                      0x00000000   Number         0  sys_stackheap_outer.o ABSOLUTE
    ../clib/angel/sysapp.c                   0x00000000   Number         0  sys_command.o ABSOLUTE
    ../clib/angel/sysapp.c                   0x00000000   Number         0  sys_exit.o ABSOLUTE
    ../clib/angel/sysapp.c                   0x00000000   Number         0  sys_wrch.o ABSOLUTE
    ../clib/armsys.c                         0x00000000   Number         0  no_argv.o ABSOLUTE
    ../clib/armsys.c                         0x00000000   Number         0  _get_argv_nomalloc.o ABSOLUTE
    ../clib/armsys.c                         0x00000000   Number         0  argv_veneer.o ABSOLUTE
    ../clib/armsys.c                         0x00000000   Number         0  argv_veneer.o ABSOLUTE
    ../clib/fenv.c                           0x00000000   Number         0  _rserrno.o ABSOLUTE
    ../clib/heapalloc.c                      0x00000000   Number         0  hrguard.o ABSOLUTE
    ../clib/heapaux.c                        0x00000000   Number         0  heapauxi.o ABSOLUTE
    ../clib/libinit.s                        0x00000000   Number         0  libshutdown.o ABSOLUTE
    ../clib/libinit.s                        0x00000000   Number         0  libshutdown2.o ABSOLUTE
    ../clib/libinit.s                        0x00000000   Number         0  libinit2.o ABSOLUTE
    ../clib/libinit.s                        0x00000000   Number         0  libinit.o ABSOLUTE
    ../clib/longlong.s                       0x00000000   Number         0  llushr.o ABSOLUTE
    ../clib/memcpset.s                       0x00000000   Number         0  memset.o ABSOLUTE
    ../clib/memcpset.s                       0x00000000   Number         0  rt_memclr.o ABSOLUTE
    ../clib/memcpset.s                       0x00000000   Number         0  rt_memclr_w.o ABSOLUTE
    ../clib/memcpset.s                       0x00000000   Number         0  rt_memcpy_v6.o ABSOLUTE
    ../clib/memcpset.s                       0x00000000   Number         0  rt_memcpy_w.o ABSOLUTE
    ../clib/signal.c                         0x00000000   Number         0  defsig_cppl_inner.o ABSOLUTE
    ../clib/signal.c                         0x00000000   Number         0  defsig_pvfn_inner.o ABSOLUTE
    ../clib/signal.c                         0x00000000   Number         0  defsig_stak_inner.o ABSOLUTE
    ../clib/signal.c                         0x00000000   Number         0  defsig_fpe_inner.o ABSOLUTE
    ../clib/signal.c                         0x00000000   Number         0  defsig_rtmem_outer.o ABSOLUTE
    ../clib/signal.c                         0x00000000   Number         0  defsig_abrt_inner.o ABSOLUTE
    ../clib/signal.c                         0x00000000   Number         0  defsig_general.o ABSOLUTE
    ../clib/signal.c                         0x00000000   Number         0  __raise.o ABSOLUTE
    ../clib/signal.c                         0x00000000   Number         0  defsig_rtmem_inner.o ABSOLUTE
    ../clib/signal.c                         0x00000000   Number         0  defsig_exit.o ABSOLUTE
    ../clib/signal.c                         0x00000000   Number         0  defsig_rtmem_formal.o ABSOLUTE
    ../clib/signal.c                         0x00000000   Number         0  defsig_rtred_inner.o ABSOLUTE
    ../clib/signal.c                         0x00000000   Number         0  defsig_other.o ABSOLUTE
    ../clib/signal.c                         0x00000000   Number         0  defsig_segv_inner.o ABSOLUTE
    ../clib/signal.s                         0x00000000   Number         0  defsig.o ABSOLUTE
    ../clib/stdlib.c                         0x00000000   Number         0  abs.o ABSOLUTE
    ../clib/stdlib.c                         0x00000000   Number         0  exit.o ABSOLUTE
    ../fplib/d2f.s                           0x00000000   Number         0  d2f.o ABSOLUTE
    ../fplib/daddsub.s                       0x00000000   Number         0  daddsub_clz.o ABSOLUTE
    ../fplib/dcheck1.s                       0x00000000   Number         0  dcheck1.o ABSOLUTE
    ../fplib/ddiv.s                          0x00000000   Number         0  ddiv.o ABSOLUTE
    ../fplib/dfix.s                          0x00000000   Number         0  dfix.o ABSOLUTE
    ../fplib/dflt.s                          0x00000000   Number         0  dflt_clz.o ABSOLUTE
    ../fplib/dmul.s                          0x00000000   Number         0  dmul.o ABSOLUTE
    ../fplib/dnaninf.s                       0x00000000   Number         0  dnaninf.o ABSOLUTE
    ../fplib/dretinf.s                       0x00000000   Number         0  dretinf.o ABSOLUTE
    ../fplib/f2d.s                           0x00000000   Number         0  f2d.o ABSOLUTE
    ../fplib/faddsub.s                       0x00000000   Number         0  faddsub_clz.o ABSOLUTE
    ../fplib/fcheck1.s                       0x00000000   Number         0  fcheck1.o ABSOLUTE
    ../fplib/fcmpi.s                         0x00000000   Number         0  fcmpi.o ABSOLUTE
    ../fplib/fdiv.s                          0x00000000   Number         0  fdiv.o ABSOLUTE
    ../fplib/ffix.s                          0x00000000   Number         0  ffix.o ABSOLUTE
    ../fplib/ffixu.s                         0x00000000   Number         0  ffixu.o ABSOLUTE
    ../fplib/fflt.s                          0x00000000   Number         0  fflt_clz.o ABSOLUTE
    ../fplib/fleqf.s                         0x00000000   Number         0  fleqf.o ABSOLUTE
    ../fplib/fmul.s                          0x00000000   Number         0  fmul.o ABSOLUTE
    ../fplib/fnaninf.s                       0x00000000   Number         0  fnaninf.o ABSOLUTE
    ../fplib/fpinit.s                        0x00000000   Number         0  fpinit.o ABSOLUTE
    ../fplib/fretinf.s                       0x00000000   Number         0  fretinf.o ABSOLUTE
    ../fplib/retnan.s                        0x00000000   Number         0  retnan.o ABSOLUTE
    ../fplib/scalbn.s                        0x00000000   Number         0  scalbn.o ABSOLUTE
    ../fplib/scalbnf.s                       0x00000000   Number         0  scalbnf.o ABSOLUTE
    ../fplib/trapv.s                         0x00000000   Number         0  trapv.o ABSOLUTE
    ../fplib/usenofp.s                       0x00000000   Number         0  usenofp.o ABSOLUTE
    ../mathlib/atan.c                        0x00000000   Number         0  atan.o ABSOLUTE
    ../mathlib/atan.c                        0x00000000   Number         0  atan_x.o ABSOLUTE
    ../mathlib/atan2.c                       0x00000000   Number         0  atan2.o ABSOLUTE
    ../mathlib/atan2.c                       0x00000000   Number         0  atan2_x.o ABSOLUTE
    ../mathlib/cos_i.c                       0x00000000   Number         0  cos_i.o ABSOLUTE
    ../mathlib/dunder.c                      0x00000000   Number         0  dunder.o ABSOLUTE
    ../mathlib/fpclassify.c                  0x00000000   Number         0  fpclassify.o ABSOLUTE
    ../mathlib/poly.c                        0x00000000   Number         0  poly.o ABSOLUTE
    ../mathlib/qnan.c                        0x00000000   Number         0  qnan.o ABSOLUTE
    ../mathlib/rred.c                        0x00000000   Number         0  rred.o ABSOLUTE
    ../mathlib/sin.c                         0x00000000   Number         0  sin.o ABSOLUTE
    ../mathlib/sin.c                         0x00000000   Number         0  sin_x.o ABSOLUTE
    ../mathlib/sin_i.c                       0x00000000   Number         0  sin_i_x.o ABSOLUTE
    ../mathlib/sin_i.c                       0x00000000   Number         0  sin_i.o ABSOLUTE
    ..\Core\Src\adc.c                        0x00000000   Number         0  adc.o ABSOLUTE
    ..\Core\Src\dma.c                        0x00000000   Number         0  dma.o ABSOLUTE
    ..\Core\Src\freertos.c                   0x00000000   Number         0  freertos.o ABSOLUTE
    ..\Core\Src\gpio.c                       0x00000000   Number         0  gpio.o ABSOLUTE
    ..\Core\Src\i2c.c                        0x00000000   Number         0  i2c.o ABSOLUTE
    ..\Core\Src\main.c                       0x00000000   Number         0  main.o ABSOLUTE
    ..\Core\Src\stm32f1xx_hal_msp.c          0x00000000   Number         0  stm32f1xx_hal_msp.o ABSOLUTE
    ..\Core\Src\stm32f1xx_it.c               0x00000000   Number         0  stm32f1xx_it.o ABSOLUTE
    ..\Core\Src\system_stm32f1xx.c           0x00000000   Number         0  system_stm32f1xx.o ABSOLUTE
    ..\Core\Src\tim.c                        0x00000000   Number         0  tim.o ABSOLUTE
    ..\Core\Src\usart.c                      0x00000000   Number         0  usart.o ABSOLUTE
    ..\Drivers\STM32F1xx_HAL_Driver\Src\stm32f1xx_hal.c 0x00000000   Number         0  stm32f1xx_hal.o ABSOLUTE
    ..\Drivers\STM32F1xx_HAL_Driver\Src\stm32f1xx_hal_adc.c 0x00000000   Number         0  stm32f1xx_hal_adc.o ABSOLUTE
    ..\Drivers\STM32F1xx_HAL_Driver\Src\stm32f1xx_hal_adc_ex.c 0x00000000   Number         0  stm32f1xx_hal_adc_ex.o ABSOLUTE
    ..\Drivers\STM32F1xx_HAL_Driver\Src\stm32f1xx_hal_cortex.c 0x00000000   Number         0  stm32f1xx_hal_cortex.o ABSOLUTE
    ..\Drivers\STM32F1xx_HAL_Driver\Src\stm32f1xx_hal_dma.c 0x00000000   Number         0  stm32f1xx_hal_dma.o ABSOLUTE
    ..\Drivers\STM32F1xx_HAL_Driver\Src\stm32f1xx_hal_exti.c 0x00000000   Number         0  stm32f1xx_hal_exti.o ABSOLUTE
    ..\Drivers\STM32F1xx_HAL_Driver\Src\stm32f1xx_hal_flash.c 0x00000000   Number         0  stm32f1xx_hal_flash.o ABSOLUTE
    ..\Drivers\STM32F1xx_HAL_Driver\Src\stm32f1xx_hal_flash_ex.c 0x00000000   Number         0  stm32f1xx_hal_flash_ex.o ABSOLUTE
    ..\Drivers\STM32F1xx_HAL_Driver\Src\stm32f1xx_hal_gpio.c 0x00000000   Number         0  stm32f1xx_hal_gpio.o ABSOLUTE
    ..\Drivers\STM32F1xx_HAL_Driver\Src\stm32f1xx_hal_gpio_ex.c 0x00000000   Number         0  stm32f1xx_hal_gpio_ex.o ABSOLUTE
    ..\Drivers\STM32F1xx_HAL_Driver\Src\stm32f1xx_hal_i2c.c 0x00000000   Number         0  stm32f1xx_hal_i2c.o ABSOLUTE
    ..\Drivers\STM32F1xx_HAL_Driver\Src\stm32f1xx_hal_pwr.c 0x00000000   Number         0  stm32f1xx_hal_pwr.o ABSOLUTE
    ..\Drivers\STM32F1xx_HAL_Driver\Src\stm32f1xx_hal_rcc.c 0x00000000   Number         0  stm32f1xx_hal_rcc.o ABSOLUTE
    ..\Drivers\STM32F1xx_HAL_Driver\Src\stm32f1xx_hal_rcc_ex.c 0x00000000   Number         0  stm32f1xx_hal_rcc_ex.o ABSOLUTE
    ..\Drivers\STM32F1xx_HAL_Driver\Src\stm32f1xx_hal_tim.c 0x00000000   Number         0  stm32f1xx_hal_tim.o ABSOLUTE
    ..\Drivers\STM32F1xx_HAL_Driver\Src\stm32f1xx_hal_tim_ex.c 0x00000000   Number         0  stm32f1xx_hal_tim_ex.o ABSOLUTE
    ..\Drivers\STM32F1xx_HAL_Driver\Src\stm32f1xx_hal_uart.c 0x00000000   Number         0  stm32f1xx_hal_uart.o ABSOLUTE
    ..\Middlewares\Third_Party\FreeRTOS\Source\CMSIS_RTOS\cmsis_os.c 0x00000000   Number         0  cmsis_os.o ABSOLUTE
    ..\Middlewares\Third_Party\FreeRTOS\Source\portable\RVDS\ARM_CM3\port.c 0x00000000   Number         0  port.o ABSOLUTE
    CPG.c                                    0x00000000   Number         0  cpg.o ABSOLUTE
    bottom.c                                 0x00000000   Number         0  bottom.o ABSOLUTE
    bottom.c                                 0x00000000   Number         0  bottom.o ABSOLUTE
    control.c                                0x00000000   Number         0  control.o ABSOLUTE
    control.c                                0x00000000   Number         0  control.o ABSOLUTE
    dc.s                                     0x00000000   Number         0  dc.o ABSOLUTE
    filter.c                                 0x00000000   Number         0  filter.o ABSOLUTE
    mpu6050.c                                0x00000000   Number         0  mpu6050.o ABSOLUTE
    mpu6050.c                                0x00000000   Number         0  mpu6050.o ABSOLUTE
    sharp.c                                  0x00000000   Number         0  sharp.o ABSOLUTE
    sharp.c                                  0x00000000   Number         0  sharp.o ABSOLUTE
    startup_stm32f103xb.s                    0x00000000   Number         0  startup_stm32f103xb.o ABSOLUTE
    RESET                                    0x08000000   Section      236  startup_stm32f103xb.o(RESET)
    !!!main                                  0x080000ec   Section        8  __main.o(!!!main)
    !!!scatter                               0x080000f4   Section       52  __scatter.o(!!!scatter)
    !!dczerorl2                              0x08000128   Section       90  __dczerorl2.o(!!dczerorl2)
    !!handler_zi                             0x08000184   Section       28  __scatter_zi.o(!!handler_zi)
    .ARM.Collect$$libinit$$00000000          0x080001a0   Section        2  libinit.o(.ARM.Collect$$libinit$$00000000)
    .ARM.Collect$$libinit$$00000002          0x080001a2   Section        0  libinit2.o(.ARM.Collect$$libinit$$00000002)
    .ARM.Collect$$libinit$$00000004          0x080001a2   Section        0  libinit2.o(.ARM.Collect$$libinit$$00000004)
    .ARM.Collect$$libinit$$0000000A          0x080001a2   Section        0  libinit2.o(.ARM.Collect$$libinit$$0000000A)
    .ARM.Collect$$libinit$$0000000C          0x080001a2   Section        0  libinit2.o(.ARM.Collect$$libinit$$0000000C)
    .ARM.Collect$$libinit$$0000000E          0x080001a2   Section        0  libinit2.o(.ARM.Collect$$libinit$$0000000E)
    .ARM.Collect$$libinit$$00000011          0x080001a2   Section        0  libinit2.o(.ARM.Collect$$libinit$$00000011)
    .ARM.Collect$$libinit$$00000013          0x080001a2   Section        0  libinit2.o(.ARM.Collect$$libinit$$00000013)
    .ARM.Collect$$libinit$$00000015          0x080001a2   Section        0  libinit2.o(.ARM.Collect$$libinit$$00000015)
    .ARM.Collect$$libinit$$00000017          0x080001a2   Section        0  libinit2.o(.ARM.Collect$$libinit$$00000017)
    .ARM.Collect$$libinit$$00000019          0x080001a2   Section        0  libinit2.o(.ARM.Collect$$libinit$$00000019)
    .ARM.Collect$$libinit$$0000001B          0x080001a2   Section        0  libinit2.o(.ARM.Collect$$libinit$$0000001B)
    .ARM.Collect$$libinit$$0000001D          0x080001a2   Section        0  libinit2.o(.ARM.Collect$$libinit$$0000001D)
    .ARM.Collect$$libinit$$0000001F          0x080001a2   Section        0  libinit2.o(.ARM.Collect$$libinit$$0000001F)
    .ARM.Collect$$libinit$$00000021          0x080001a2   Section        0  libinit2.o(.ARM.Collect$$libinit$$00000021)
    .ARM.Collect$$libinit$$00000023          0x080001a2   Section        0  libinit2.o(.ARM.Collect$$libinit$$00000023)
    .ARM.Collect$$libinit$$00000025          0x080001a2   Section        0  libinit2.o(.ARM.Collect$$libinit$$00000025)
    .ARM.Collect$$libinit$$0000002C          0x080001a2   Section        0  libinit2.o(.ARM.Collect$$libinit$$0000002C)
    .ARM.Collect$$libinit$$0000002E          0x080001a2   Section        0  libinit2.o(.ARM.Collect$$libinit$$0000002E)
    .ARM.Collect$$libinit$$00000030          0x080001a2   Section        0  libinit2.o(.ARM.Collect$$libinit$$00000030)
    .ARM.Collect$$libinit$$00000032          0x080001a2   Section        0  libinit2.o(.ARM.Collect$$libinit$$00000032)
    .ARM.Collect$$libinit$$00000033          0x080001a2   Section        2  libinit2.o(.ARM.Collect$$libinit$$00000033)
    .ARM.Collect$$libshutdown$$00000000      0x080001a4   Section        2  libshutdown.o(.ARM.Collect$$libshutdown$$00000000)
    .ARM.Collect$$libshutdown$$00000002      0x080001a6   Section        0  libshutdown2.o(.ARM.Collect$$libshutdown$$00000002)
    .ARM.Collect$$libshutdown$$00000004      0x080001a6   Section        0  libshutdown2.o(.ARM.Collect$$libshutdown$$00000004)
    .ARM.Collect$$libshutdown$$00000007      0x080001a6   Section        0  libshutdown2.o(.ARM.Collect$$libshutdown$$00000007)
    .ARM.Collect$$libshutdown$$0000000A      0x080001a6   Section        0  libshutdown2.o(.ARM.Collect$$libshutdown$$0000000A)
    .ARM.Collect$$libshutdown$$0000000C      0x080001a6   Section        0  libshutdown2.o(.ARM.Collect$$libshutdown$$0000000C)
    .ARM.Collect$$libshutdown$$0000000F      0x080001a6   Section        0  libshutdown2.o(.ARM.Collect$$libshutdown$$0000000F)
    .ARM.Collect$$libshutdown$$00000010      0x080001a6   Section        2  libshutdown2.o(.ARM.Collect$$libshutdown$$00000010)
    .ARM.Collect$$rtentry$$00000000          0x080001a8   Section        0  __rtentry.o(.ARM.Collect$$rtentry$$00000000)
    .ARM.Collect$$rtentry$$00000002          0x080001a8   Section        0  __rtentry2.o(.ARM.Collect$$rtentry$$00000002)
    .ARM.Collect$$rtentry$$00000004          0x080001a8   Section        6  __rtentry4.o(.ARM.Collect$$rtentry$$00000004)
    .ARM.Collect$$rtentry$$00000009          0x080001ae   Section        0  __rtentry2.o(.ARM.Collect$$rtentry$$00000009)
    .ARM.Collect$$rtentry$$0000000A          0x080001ae   Section        4  __rtentry2.o(.ARM.Collect$$rtentry$$0000000A)
    .ARM.Collect$$rtentry$$0000000C          0x080001b2   Section        0  __rtentry2.o(.ARM.Collect$$rtentry$$0000000C)
    .ARM.Collect$$rtentry$$0000000D          0x080001b2   Section        8  __rtentry2.o(.ARM.Collect$$rtentry$$0000000D)
    .ARM.Collect$$rtexit$$00000000           0x080001ba   Section        2  rtexit.o(.ARM.Collect$$rtexit$$00000000)
    .ARM.Collect$$rtexit$$00000002           0x080001bc   Section        0  rtexit2.o(.ARM.Collect$$rtexit$$00000002)
    .ARM.Collect$$rtexit$$00000003           0x080001bc   Section        4  rtexit2.o(.ARM.Collect$$rtexit$$00000003)
    .ARM.Collect$$rtexit$$00000004           0x080001c0   Section        6  rtexit2.o(.ARM.Collect$$rtexit$$00000004)
    .emb_text                                0x080001c8   Section      150  port.o(.emb_text)
    .text                                    0x08000260   Section       64  startup_stm32f103xb.o(.text)
    .text                                    0x080002a0   Section        0  abs.o(.text)
    .text                                    0x080002a8   Section      100  rt_memcpy_w.o(.text)
    .text                                    0x0800030c   Section       68  rt_memclr.o(.text)
    .text                                    0x08000350   Section       78  rt_memclr_w.o(.text)
    .text                                    0x0800039e   Section        0  heapauxi.o(.text)
    .text                                    0x080003a4   Section        0  _rserrno.o(.text)
    .text                                    0x080003bc   Section        8  rt_errno_addr_intlibspace.o(.text)
    .text                                    0x080003c4   Section        8  libspace.o(.text)
    .text                                    0x080003cc   Section       74  sys_stackheap_outer.o(.text)
    .text                                    0x08000416   Section        0  exit.o(.text)
    .text                                    0x08000428   Section        0  sys_exit.o(.text)
    .text                                    0x08000434   Section        2  use_no_semi.o(.text)
    .text                                    0x08000436   Section        0  indicate_semi.o(.text)
    i.ADC_ConversionStop_Disable             0x08000438   Section        0  stm32f1xx_hal_adc.o(i.ADC_ConversionStop_Disable)
    i.ADC_Enable                             0x08000490   Section        0  stm32f1xx_hal_adc.o(i.ADC_Enable)
    i.AngleCalculate                         0x0800050c   Section        0  control.o(i.AngleCalculate)
    i.BusFault_Handler                       0x080005dc   Section        0  stm32f1xx_it.o(i.BusFault_Handler)
    i.ComplementaryFilter                    0x080005e0   Section        0  filter.o(i.ComplementaryFilter)
    i.DMA1_Channel6_IRQHandler               0x08000628   Section        0  stm32f1xx_it.o(i.DMA1_Channel6_IRQHandler)
    i.DMA1_Channel7_IRQHandler               0x08000634   Section        0  stm32f1xx_it.o(i.DMA1_Channel7_IRQHandler)
    i.DMA_SetConfig                          0x08000640   Section        0  stm32f1xx_hal_dma.o(i.DMA_SetConfig)
    DMA_SetConfig                            0x08000641   Thumb Code    42  stm32f1xx_hal_dma.o(i.DMA_SetConfig)
    i.DebugMon_Handler                       0x0800066a   Section        0  stm32f1xx_it.o(i.DebugMon_Handler)
    i.Error_Handler                          0x0800066c   Section        0  main.o(i.Error_Handler)
    i.HAL_ADC_ConfigChannel                  0x08000670   Section        0  stm32f1xx_hal_adc.o(i.HAL_ADC_ConfigChannel)
    i.HAL_ADC_GetValue                       0x0800076c   Section        0  stm32f1xx_hal_adc.o(i.HAL_ADC_GetValue)
    i.HAL_ADC_Init                           0x08000774   Section        0  stm32f1xx_hal_adc.o(i.HAL_ADC_Init)
    i.HAL_ADC_MspInit                        0x08000890   Section        0  adc.o(i.HAL_ADC_MspInit)
    i.HAL_ADC_Start                          0x08000918   Section        0  stm32f1xx_hal_adc.o(i.HAL_ADC_Start)
    i.HAL_DMA_Abort                          0x080009d8   Section        0  stm32f1xx_hal_dma.o(i.HAL_DMA_Abort)
    i.HAL_DMA_Abort_IT                       0x08000a20   Section        0  stm32f1xx_hal_dma.o(i.HAL_DMA_Abort_IT)
    i.HAL_DMA_IRQHandler                     0x08000ab8   Section        0  stm32f1xx_hal_dma.o(i.HAL_DMA_IRQHandler)
    i.HAL_DMA_Init                           0x08000c0c   Section        0  stm32f1xx_hal_dma.o(i.HAL_DMA_Init)
    i.HAL_DMA_Start_IT                       0x08000c68   Section        0  stm32f1xx_hal_dma.o(i.HAL_DMA_Start_IT)
    i.HAL_Delay                              0x08000cd8   Section        0  stm32f1xx_hal.o(i.HAL_Delay)
    i.HAL_GPIO_Init                          0x08000cfc   Section        0  stm32f1xx_hal_gpio.o(i.HAL_GPIO_Init)
    i.HAL_GPIO_WritePin                      0x08000edc   Section        0  stm32f1xx_hal_gpio.o(i.HAL_GPIO_WritePin)
    i.HAL_GetTick                            0x08000ee8   Section        0  stm32f1xx_hal.o(i.HAL_GetTick)
    i.HAL_I2C_Init                           0x08000ef4   Section        0  stm32f1xx_hal_i2c.o(i.HAL_I2C_Init)
    i.HAL_I2C_Mem_Read                       0x0800107c   Section        0  stm32f1xx_hal_i2c.o(i.HAL_I2C_Mem_Read)
    i.HAL_I2C_Mem_Write                      0x080012cc   Section        0  stm32f1xx_hal_i2c.o(i.HAL_I2C_Mem_Write)
    i.HAL_I2C_MspInit                        0x080013fc   Section        0  i2c.o(i.HAL_I2C_MspInit)
    i.HAL_IncTick                            0x0800145c   Section        0  stm32f1xx_hal.o(i.HAL_IncTick)
    i.HAL_Init                               0x0800146c   Section        0  stm32f1xx_hal.o(i.HAL_Init)
    i.HAL_InitTick                           0x08001490   Section        0  stm32f1xx_hal.o(i.HAL_InitTick)
    i.HAL_MspInit                            0x080014d0   Section        0  stm32f1xx_hal_msp.o(i.HAL_MspInit)
    i.HAL_NVIC_EnableIRQ                     0x08001518   Section        0  stm32f1xx_hal_cortex.o(i.HAL_NVIC_EnableIRQ)
    i.HAL_NVIC_SetPriority                   0x08001534   Section        0  stm32f1xx_hal_cortex.o(i.HAL_NVIC_SetPriority)
    i.HAL_NVIC_SetPriorityGrouping           0x08001574   Section        0  stm32f1xx_hal_cortex.o(i.HAL_NVIC_SetPriorityGrouping)
    i.HAL_NVIC_SystemReset                   0x08001598   Section        0  stm32f1xx_hal_cortex.o(i.HAL_NVIC_SystemReset)
    i.HAL_RCCEx_PeriphCLKConfig              0x080015bc   Section        0  stm32f1xx_hal_rcc_ex.o(i.HAL_RCCEx_PeriphCLKConfig)
    i.HAL_RCC_ClockConfig                    0x080016a8   Section        0  stm32f1xx_hal_rcc.o(i.HAL_RCC_ClockConfig)
    i.HAL_RCC_GetPCLK1Freq                   0x080017d4   Section        0  stm32f1xx_hal_rcc.o(i.HAL_RCC_GetPCLK1Freq)
    i.HAL_RCC_GetPCLK2Freq                   0x080017f4   Section        0  stm32f1xx_hal_rcc.o(i.HAL_RCC_GetPCLK2Freq)
    i.HAL_RCC_GetSysClockFreq                0x08001814   Section        0  stm32f1xx_hal_rcc.o(i.HAL_RCC_GetSysClockFreq)
    i.HAL_RCC_OscConfig                      0x08001880   Section        0  stm32f1xx_hal_rcc.o(i.HAL_RCC_OscConfig)
    i.HAL_SYSTICK_Config                     0x08001ba0   Section        0  stm32f1xx_hal_cortex.o(i.HAL_SYSTICK_Config)
    i.HAL_TIMEx_ConfigBreakDeadTime          0x08001bc8   Section        0  stm32f1xx_hal_tim_ex.o(i.HAL_TIMEx_ConfigBreakDeadTime)
    i.HAL_TIMEx_MasterConfigSynchronization  0x08001c1c   Section        0  stm32f1xx_hal_tim_ex.o(i.HAL_TIMEx_MasterConfigSynchronization)
    i.HAL_TIM_MspPostInit                    0x08001c84   Section        0  tim.o(i.HAL_TIM_MspPostInit)
    i.HAL_TIM_PWM_ConfigChannel              0x08001cf0   Section        0  stm32f1xx_hal_tim.o(i.HAL_TIM_PWM_ConfigChannel)
    i.HAL_TIM_PWM_Init                       0x08001db6   Section        0  stm32f1xx_hal_tim.o(i.HAL_TIM_PWM_Init)
    i.HAL_TIM_PWM_MspInit                    0x08001e10   Section        0  tim.o(i.HAL_TIM_PWM_MspInit)
    i.HAL_TIM_PWM_Start                      0x08001e50   Section        0  stm32f1xx_hal_tim.o(i.HAL_TIM_PWM_Start)
    i.HAL_UARTEx_RxEventCallback             0x08001eec   Section        0  stm32f1xx_hal_uart.o(i.HAL_UARTEx_RxEventCallback)
    i.HAL_UART_DMAStop                       0x08001eee   Section        0  stm32f1xx_hal_uart.o(i.HAL_UART_DMAStop)
    i.HAL_UART_ErrorCallback                 0x08001f46   Section        0  stm32f1xx_hal_uart.o(i.HAL_UART_ErrorCallback)
    i.HAL_UART_IRQHandler                    0x08001f48   Section        0  stm32f1xx_hal_uart.o(i.HAL_UART_IRQHandler)
    i.HAL_UART_Init                          0x08002154   Section        0  stm32f1xx_hal_uart.o(i.HAL_UART_Init)
    i.HAL_UART_MspInit                       0x080021b8   Section        0  usart.o(i.HAL_UART_MspInit)
    i.HAL_UART_Receive_DMA                   0x080022f4   Section        0  stm32f1xx_hal_uart.o(i.HAL_UART_Receive_DMA)
    i.HAL_UART_Receive_IT                    0x0800231e   Section        0  stm32f1xx_hal_uart.o(i.HAL_UART_Receive_IT)
    i.HAL_UART_RxCpltCallback                0x08002348   Section        0  usart.o(i.HAL_UART_RxCpltCallback)
    i.HAL_UART_RxHalfCpltCallback            0x08002780   Section        0  stm32f1xx_hal_uart.o(i.HAL_UART_RxHalfCpltCallback)
    i.HAL_UART_Transmit                      0x08002784   Section        0  stm32f1xx_hal_uart.o(i.HAL_UART_Transmit)
    i.HAL_UART_TxCpltCallback                0x08002836   Section        0  stm32f1xx_hal_uart.o(i.HAL_UART_TxCpltCallback)
    i.HardFault_Handler                      0x08002838   Section        0  stm32f1xx_it.o(i.HardFault_Handler)
    i.I2C_IsAcknowledgeFailed                0x0800283a   Section        0  stm32f1xx_hal_i2c.o(i.I2C_IsAcknowledgeFailed)
    I2C_IsAcknowledgeFailed                  0x0800283b   Thumb Code    46  stm32f1xx_hal_i2c.o(i.I2C_IsAcknowledgeFailed)
    i.I2C_RequestMemoryRead                  0x08002868   Section        0  stm32f1xx_hal_i2c.o(i.I2C_RequestMemoryRead)
    I2C_RequestMemoryRead                    0x08002869   Thumb Code   246  stm32f1xx_hal_i2c.o(i.I2C_RequestMemoryRead)
    i.I2C_RequestMemoryWrite                 0x08002964   Section        0  stm32f1xx_hal_i2c.o(i.I2C_RequestMemoryWrite)
    I2C_RequestMemoryWrite                   0x08002965   Thumb Code   162  stm32f1xx_hal_i2c.o(i.I2C_RequestMemoryWrite)
    i.I2C_WaitOnBTFFlagUntilTimeout          0x08002a0c   Section        0  stm32f1xx_hal_i2c.o(i.I2C_WaitOnBTFFlagUntilTimeout)
    I2C_WaitOnBTFFlagUntilTimeout            0x08002a0d   Thumb Code    76  stm32f1xx_hal_i2c.o(i.I2C_WaitOnBTFFlagUntilTimeout)
    i.I2C_WaitOnFlagUntilTimeout             0x08002a58   Section        0  stm32f1xx_hal_i2c.o(i.I2C_WaitOnFlagUntilTimeout)
    I2C_WaitOnFlagUntilTimeout               0x08002a59   Thumb Code   104  stm32f1xx_hal_i2c.o(i.I2C_WaitOnFlagUntilTimeout)
    i.I2C_WaitOnMasterAddressFlagUntilTimeout 0x08002ac0   Section        0  stm32f1xx_hal_i2c.o(i.I2C_WaitOnMasterAddressFlagUntilTimeout)
    I2C_WaitOnMasterAddressFlagUntilTimeout  0x08002ac1   Thumb Code   150  stm32f1xx_hal_i2c.o(i.I2C_WaitOnMasterAddressFlagUntilTimeout)
    i.I2C_WaitOnRXNEFlagUntilTimeout         0x08002b56   Section        0  stm32f1xx_hal_i2c.o(i.I2C_WaitOnRXNEFlagUntilTimeout)
    I2C_WaitOnRXNEFlagUntilTimeout           0x08002b57   Thumb Code   102  stm32f1xx_hal_i2c.o(i.I2C_WaitOnRXNEFlagUntilTimeout)
    i.I2C_WaitOnTXEFlagUntilTimeout          0x08002bbc   Section        0  stm32f1xx_hal_i2c.o(i.I2C_WaitOnTXEFlagUntilTimeout)
    I2C_WaitOnTXEFlagUntilTimeout            0x08002bbd   Thumb Code    76  stm32f1xx_hal_i2c.o(i.I2C_WaitOnTXEFlagUntilTimeout)
    i.MPU_Get_Accelerometer                  0x08002c08   Section        0  mpu6050.o(i.MPU_Get_Accelerometer)
    i.MPU_Get_Gyroscope                      0x08002c3a   Section        0  mpu6050.o(i.MPU_Get_Gyroscope)
    i.MPU_Init                               0x08002c6c   Section        0  mpu6050.o(i.MPU_Init)
    i.MPU_Read_Byte                          0x08002ce0   Section        0  mpu6050.o(i.MPU_Read_Byte)
    i.MPU_Read_Len                           0x08002d0c   Section        0  mpu6050.o(i.MPU_Read_Len)
    i.MPU_Set_Accel_Fsr                      0x08002d30   Section        0  mpu6050.o(i.MPU_Set_Accel_Fsr)
    i.MPU_Set_Gyro_Fsr                       0x08002d3a   Section        0  mpu6050.o(i.MPU_Set_Gyro_Fsr)
    i.MPU_Set_LPF                            0x08002d44   Section        0  mpu6050.o(i.MPU_Set_LPF)
    i.MPU_Set_Rate                           0x08002d74   Section        0  mpu6050.o(i.MPU_Set_Rate)
    i.MPU_Write_Byte                         0x08002da4   Section        0  mpu6050.o(i.MPU_Write_Byte)
    i.MX_ADC1_Init                           0x08002dcc   Section        0  adc.o(i.MX_ADC1_Init)
    i.MX_ADC2_Init                           0x08002e18   Section        0  adc.o(i.MX_ADC2_Init)
    i.MX_DMA_Init                            0x08002e64   Section        0  dma.o(i.MX_DMA_Init)
    i.MX_FREERTOS_Init                       0x08002ea0   Section        0  freertos.o(i.MX_FREERTOS_Init)
    i.MX_GPIO_Init                           0x08002f08   Section        0  gpio.o(i.MX_GPIO_Init)
    i.MX_I2C2_Init                           0x08002f88   Section        0  i2c.o(i.MX_I2C2_Init)
    i.MX_TIM1_Init                           0x08002fc8   Section        0  tim.o(i.MX_TIM1_Init)
    i.MX_TIM3_Init                           0x08003078   Section        0  tim.o(i.MX_TIM3_Init)
    i.MX_USART1_UART_Init                    0x080030e8   Section        0  usart.o(i.MX_USART1_UART_Init)
    i.MX_USART2_UART_Init                    0x0800312c   Section        0  usart.o(i.MX_USART2_UART_Init)
    i.MemManage_Handler                      0x0800317c   Section        0  stm32f1xx_it.o(i.MemManage_Handler)
    i.NMI_Handler                            0x0800317e   Section        0  stm32f1xx_it.o(i.NMI_Handler)
    i.ShuiWeiSensor_Get_Val                  0x08003180   Section        0  sharp.o(i.ShuiWeiSensor_Get_Val)
    i.StartDefaultTask                       0x08003258   Section        0  freertos.o(i.StartDefaultTask)
    i.SysTick_Handler                        0x0800325a   Section        0  stm32f1xx_it.o(i.SysTick_Handler)
    i.SystemClock_Config                     0x08003272   Section        0  main.o(i.SystemClock_Config)
    i.SystemInit                             0x080032e8   Section        0  system_stm32f1xx.o(i.SystemInit)
    i.System_Reset                           0x080032ec   Section        0  freertos.o(i.System_Reset)
    i.TIM_Base_SetConfig                     0x0800339c   Section        0  stm32f1xx_hal_tim.o(i.TIM_Base_SetConfig)
    i.TIM_CCxChannelCmd                      0x08003408   Section        0  stm32f1xx_hal_tim.o(i.TIM_CCxChannelCmd)
    i.TIM_OC1_SetConfig                      0x08003424   Section        0  stm32f1xx_hal_tim.o(i.TIM_OC1_SetConfig)
    TIM_OC1_SetConfig                        0x08003425   Thumb Code    74  stm32f1xx_hal_tim.o(i.TIM_OC1_SetConfig)
    i.TIM_OC2_SetConfig                      0x08003474   Section        0  stm32f1xx_hal_tim.o(i.TIM_OC2_SetConfig)
    i.TIM_OC3_SetConfig                      0x080034cc   Section        0  stm32f1xx_hal_tim.o(i.TIM_OC3_SetConfig)
    TIM_OC3_SetConfig                        0x080034cd   Thumb Code    82  stm32f1xx_hal_tim.o(i.TIM_OC3_SetConfig)
    i.TIM_OC4_SetConfig                      0x08003524   Section        0  stm32f1xx_hal_tim.o(i.TIM_OC4_SetConfig)
    TIM_OC4_SetConfig                        0x08003525   Thumb Code    64  stm32f1xx_hal_tim.o(i.TIM_OC4_SetConfig)
    i.UART_DMAAbortOnError                   0x08003568   Section        0  stm32f1xx_hal_uart.o(i.UART_DMAAbortOnError)
    UART_DMAAbortOnError                     0x08003569   Thumb Code    16  stm32f1xx_hal_uart.o(i.UART_DMAAbortOnError)
    i.UART_DMAError                          0x08003578   Section        0  stm32f1xx_hal_uart.o(i.UART_DMAError)
    UART_DMAError                            0x08003579   Thumb Code    74  stm32f1xx_hal_uart.o(i.UART_DMAError)
    i.UART_DMAReceiveCplt                    0x080035c2   Section        0  stm32f1xx_hal_uart.o(i.UART_DMAReceiveCplt)
    UART_DMAReceiveCplt                      0x080035c3   Thumb Code    90  stm32f1xx_hal_uart.o(i.UART_DMAReceiveCplt)
    i.UART_DMARxHalfCplt                     0x0800361c   Section        0  stm32f1xx_hal_uart.o(i.UART_DMARxHalfCplt)
    UART_DMARxHalfCplt                       0x0800361d   Thumb Code    26  stm32f1xx_hal_uart.o(i.UART_DMARxHalfCplt)
    i.UART_EndRxTransfer                     0x08003636   Section        0  stm32f1xx_hal_uart.o(i.UART_EndRxTransfer)
    UART_EndRxTransfer                       0x08003637   Thumb Code    48  stm32f1xx_hal_uart.o(i.UART_EndRxTransfer)
    i.UART_EndTxTransfer                     0x08003666   Section        0  stm32f1xx_hal_uart.o(i.UART_EndTxTransfer)
    UART_EndTxTransfer                       0x08003667   Thumb Code    18  stm32f1xx_hal_uart.o(i.UART_EndTxTransfer)
    i.UART_Receive_IT                        0x08003678   Section        0  stm32f1xx_hal_uart.o(i.UART_Receive_IT)
    UART_Receive_IT                          0x08003679   Thumb Code   182  stm32f1xx_hal_uart.o(i.UART_Receive_IT)
    i.UART_SetConfig                         0x08003730   Section        0  stm32f1xx_hal_uart.o(i.UART_SetConfig)
    UART_SetConfig                           0x08003731   Thumb Code   178  stm32f1xx_hal_uart.o(i.UART_SetConfig)
    i.UART_Start_Receive_DMA                 0x080037e8   Section        0  stm32f1xx_hal_uart.o(i.UART_Start_Receive_DMA)
    i.UART_Start_Receive_IT                  0x08003858   Section        0  stm32f1xx_hal_uart.o(i.UART_Start_Receive_IT)
    i.UART_WaitOnFlagUntilTimeout            0x0800388e   Section        0  stm32f1xx_hal_uart.o(i.UART_WaitOnFlagUntilTimeout)
    UART_WaitOnFlagUntilTimeout              0x0800388f   Thumb Code   100  stm32f1xx_hal_uart.o(i.UART_WaitOnFlagUntilTimeout)
    i.USART1_IRQHandler                      0x080038f4   Section        0  stm32f1xx_it.o(i.USART1_IRQHandler)
    i.USART2_IRQHandler                      0x08003900   Section        0  stm32f1xx_it.o(i.USART2_IRQHandler)
    i.UsageFault_Handler                     0x08003948   Section        0  stm32f1xx_it.o(i.UsageFault_Handler)
    i.__ARM_fpclassify                       0x0800394a   Section        0  fpclassify.o(i.__ARM_fpclassify)
    i.__NVIC_SetPriority                     0x08003972   Section        0  stm32f1xx_hal_cortex.o(i.__NVIC_SetPriority)
    __NVIC_SetPriority                       0x08003973   Thumb Code    32  stm32f1xx_hal_cortex.o(i.__NVIC_SetPriority)
    i.__ieee754_rem_pio2                     0x08003994   Section        0  rred.o(i.__ieee754_rem_pio2)
    i.__kernel_cos                           0x08003d1c   Section        0  cos_i.o(i.__kernel_cos)
    i.__kernel_poly                          0x08003e18   Section        0  poly.o(i.__kernel_poly)
    i.__kernel_sin                           0x08003ec4   Section        0  sin_i.o(i.__kernel_sin)
    i.__mathlib_dbl_infnan                   0x08003fb0   Section        0  dunder.o(i.__mathlib_dbl_infnan)
    i.__mathlib_dbl_infnan2                  0x08003fb6   Section        0  dunder.o(i.__mathlib_dbl_infnan2)
    i.__mathlib_dbl_invalid                  0x08003fba   Section        0  dunder.o(i.__mathlib_dbl_invalid)
    i.__mathlib_dbl_underflow                0x08003fc8   Section        0  dunder.o(i.__mathlib_dbl_underflow)
    i.atan                                   0x08003fd8   Section        0  atan.o(i.atan)
    i.atan2                                  0x080041f8   Section        0  atan2.o(i.atan2)
    i.calCPG_angle                           0x08004378   Section        0  cpg.o(i.calCPG_angle)
    i.calCPG_b                               0x080043c8   Section        0  cpg.o(i.calCPG_b)
    i.calCPG_db                              0x080043e8   Section        0  cpg.o(i.calCPG_db)
    i.calCPG_dm                              0x08004474   Section        0  cpg.o(i.calCPG_dm)
    i.calCPG_fi                              0x08004500   Section        0  cpg.o(i.calCPG_fi)
    i.calCPG_m                               0x08004580   Section        0  cpg.o(i.calCPG_m)
    i.main                                   0x080045a0   Section        0  main.o(i.main)
    i.makeFreeRtosPriority                   0x0800464c   Section        0  cmsis_os.o(i.makeFreeRtosPriority)
    makeFreeRtosPriority                     0x0800464d   Thumb Code    12  cmsis_os.o(i.makeFreeRtosPriority)
    i.mpu1task                               0x08004658   Section        0  freertos.o(i.mpu1task)
    i.osKernelStart                          0x08004924   Section        0  cmsis_os.o(i.osKernelStart)
    i.osThreadCreate                         0x0800492e   Section        0  cmsis_os.o(i.osThreadCreate)
    i.prvAddCurrentTaskToDelayedList         0x08004984   Section        0  tasks.o(i.prvAddCurrentTaskToDelayedList)
    prvAddCurrentTaskToDelayedList           0x08004985   Thumb Code   102  tasks.o(i.prvAddCurrentTaskToDelayedList)
    i.prvAddNewTaskToReadyList               0x080049f4   Section        0  tasks.o(i.prvAddNewTaskToReadyList)
    prvAddNewTaskToReadyList                 0x080049f5   Thumb Code   194  tasks.o(i.prvAddNewTaskToReadyList)
    i.prvDeleteTCB                           0x08004ac4   Section        0  tasks.o(i.prvDeleteTCB)
    prvDeleteTCB                             0x08004ac5   Thumb Code    52  tasks.o(i.prvDeleteTCB)
    i.prvHeapInit                            0x08004af8   Section        0  heap_4.o(i.prvHeapInit)
    prvHeapInit                              0x08004af9   Thumb Code    66  heap_4.o(i.prvHeapInit)
    i.prvIdleTask                            0x08004b44   Section        0  tasks.o(i.prvIdleTask)
    prvIdleTask                              0x08004b45   Thumb Code    82  tasks.o(i.prvIdleTask)
    i.prvInitialiseNewTask                   0x08004ba4   Section        0  tasks.o(i.prvInitialiseNewTask)
    prvInitialiseNewTask                     0x08004ba5   Thumb Code   142  tasks.o(i.prvInitialiseNewTask)
    i.prvInsertBlockIntoFreeList             0x08004c34   Section        0  heap_4.o(i.prvInsertBlockIntoFreeList)
    prvInsertBlockIntoFreeList               0x08004c35   Thumb Code    72  heap_4.o(i.prvInsertBlockIntoFreeList)
    i.prvResetNextTaskUnblockTime            0x08004c80   Section        0  tasks.o(i.prvResetNextTaskUnblockTime)
    prvResetNextTaskUnblockTime              0x08004c81   Thumb Code    26  tasks.o(i.prvResetNextTaskUnblockTime)
    i.prvTaskExitError                       0x08004ca0   Section        0  port.o(i.prvTaskExitError)
    prvTaskExitError                         0x08004ca1   Thumb Code    36  port.o(i.prvTaskExitError)
    i.pvPortMalloc                           0x08004cc8   Section        0  heap_4.o(i.pvPortMalloc)
    i.pxPortInitialiseStack                  0x08004da0   Section        0  port.o(i.pxPortInitialiseStack)
    i.servotask                              0x08004dc4   Section        0  freertos.o(i.servotask)
    i.set_angle                              0x08005354   Section        0  bottom.o(i.set_angle)
    i.sign                                   0x080053d8   Section        0  cpg.o(i.sign)
    i.sin                                    0x080053f8   Section        0  sin.o(i.sin)
    i.typetransform                          0x08005498   Section        0  usart.o(i.typetransform)
    i.uxListRemove                           0x080054a0   Section        0  list.o(i.uxListRemove)
    i.vApplicationGetIdleTaskMemory          0x080054c8   Section        0  freertos.o(i.vApplicationGetIdleTaskMemory)
    i.vListInitialise                        0x080054dc   Section        0  list.o(i.vListInitialise)
    i.vListInitialiseItem                    0x080054f2   Section        0  list.o(i.vListInitialiseItem)
    i.vListInsert                            0x080054f8   Section        0  list.o(i.vListInsert)
    i.vListInsertEnd                         0x08005528   Section        0  list.o(i.vListInsertEnd)
    i.vPortEnterCritical                     0x08005540   Section        0  port.o(i.vPortEnterCritical)
    i.vPortExitCritical                      0x08005580   Section        0  port.o(i.vPortExitCritical)
    i.vPortFree                              0x080055a8   Section        0  heap_4.o(i.vPortFree)
    i.vPortSetupTimerInterrupt               0x08005604   Section        0  port.o(i.vPortSetupTimerInterrupt)
    i.vTaskDelayUntil                        0x08005628   Section        0  tasks.o(i.vTaskDelayUntil)
    i.vTaskStartScheduler                    0x080056b4   Section        0  tasks.o(i.vTaskStartScheduler)
    i.vTaskSuspendAll                        0x08005720   Section        0  tasks.o(i.vTaskSuspendAll)
    i.vTaskSwitchContext                     0x08005730   Section        0  tasks.o(i.vTaskSwitchContext)
    i.xPortStartScheduler                    0x0800578c   Section        0  port.o(i.xPortStartScheduler)
    i.xPortSysTickHandler                    0x08005834   Section        0  port.o(i.xPortSysTickHandler)
    i.xTaskCreate                            0x08005860   Section        0  tasks.o(i.xTaskCreate)
    i.xTaskCreateStatic                      0x080058ba   Section        0  tasks.o(i.xTaskCreateStatic)
    i.xTaskGetSchedulerState                 0x08005910   Section        0  tasks.o(i.xTaskGetSchedulerState)
    i.xTaskGetTickCount                      0x0800592c   Section        0  tasks.o(i.xTaskGetTickCount)
    i.xTaskIncrementTick                     0x08005938   Section        0  tasks.o(i.xTaskIncrementTick)
    i.xTaskResumeAll                         0x08005a00   Section        0  tasks.o(i.xTaskResumeAll)
    x$fpl$d2f                                0x08005ac4   Section       98  d2f.o(x$fpl$d2f)
    x$fpl$dadd                               0x08005b28   Section      336  daddsub_clz.o(x$fpl$dadd)
    _dadd1                                   0x08005b39   Thumb Code     0  daddsub_clz.o(x$fpl$dadd)
    x$fpl$dcheck1                            0x08005c78   Section       16  dcheck1.o(x$fpl$dcheck1)
    x$fpl$ddiv                               0x08005c88   Section      688  ddiv.o(x$fpl$ddiv)
    ddiv_entry                               0x08005c8f   Thumb Code     0  ddiv.o(x$fpl$ddiv)
    x$fpl$dfix                               0x08005f38   Section       94  dfix.o(x$fpl$dfix)
    x$fpl$dflt                               0x08005f96   Section       46  dflt_clz.o(x$fpl$dflt)
    x$fpl$dfltu                              0x08005fc4   Section       38  dflt_clz.o(x$fpl$dfltu)
    x$fpl$dmul                               0x08005fec   Section      340  dmul.o(x$fpl$dmul)
    x$fpl$dnaninf                            0x08006140   Section      156  dnaninf.o(x$fpl$dnaninf)
    x$fpl$dretinf                            0x080061dc   Section       12  dretinf.o(x$fpl$dretinf)
    x$fpl$drsb                               0x080061e8   Section       22  daddsub_clz.o(x$fpl$drsb)
    x$fpl$dsub                               0x08006200   Section      468  daddsub_clz.o(x$fpl$dsub)
    _dsub1                                   0x08006211   Thumb Code     0  daddsub_clz.o(x$fpl$dsub)
    x$fpl$f2d                                0x080063d4   Section       86  f2d.o(x$fpl$f2d)
    x$fpl$fadd                               0x0800642c   Section      196  faddsub_clz.o(x$fpl$fadd)
    _fadd1                                   0x0800643b   Thumb Code     0  faddsub_clz.o(x$fpl$fadd)
    x$fpl$fcheck1                            0x080064f0   Section       12  fcheck1.o(x$fpl$fcheck1)
    x$fpl$fcmpinf                            0x080064fc   Section       24  fcmpi.o(x$fpl$fcmpinf)
    x$fpl$fdiv                               0x08006514   Section      388  fdiv.o(x$fpl$fdiv)
    _fdiv1                                   0x08006515   Thumb Code     0  fdiv.o(x$fpl$fdiv)
    x$fpl$ffix                               0x08006698   Section       54  ffix.o(x$fpl$ffix)
    x$fpl$ffixu                              0x080066d0   Section       62  ffixu.o(x$fpl$ffixu)
    x$fpl$ffltu                              0x08006710   Section       38  fflt_clz.o(x$fpl$ffltu)
    x$fpl$fleqf                              0x08006738   Section      104  fleqf.o(x$fpl$fleqf)
    x$fpl$fmul                               0x080067a0   Section      258  fmul.o(x$fpl$fmul)
    x$fpl$fnaninf                            0x080068a2   Section      140  fnaninf.o(x$fpl$fnaninf)
    x$fpl$fretinf                            0x0800692e   Section       10  fretinf.o(x$fpl$fretinf)
    x$fpl$frsb                               0x08006938   Section       20  faddsub_clz.o(x$fpl$frsb)
    x$fpl$fsub                               0x0800694c   Section      234  faddsub_clz.o(x$fpl$fsub)
    _fsub1                                   0x0800695b   Thumb Code     0  faddsub_clz.o(x$fpl$fsub)
    x$fpl$retnan                             0x08006a36   Section      100  retnan.o(x$fpl$retnan)
    x$fpl$scalbn                             0x08006a9a   Section       92  scalbn.o(x$fpl$scalbn)
    x$fpl$scalbnf                            0x08006af6   Section       76  scalbnf.o(x$fpl$scalbnf)
    x$fpl$trapveneer                         0x08006b42   Section       48  trapv.o(x$fpl$trapveneer)
    x$fpl$usenofp                            0x08006b72   Section        0  usenofp.o(x$fpl$usenofp)
    .constdata                               0x08006b74   Section      112  freertos.o(.constdata)
    .constdata                               0x08006be4   Section       16  system_stm32f1xx.o(.constdata)
    .constdata                               0x08006bf4   Section        8  system_stm32f1xx.o(.constdata)
    .constdata                               0x08006c00   Section      152  atan.o(.constdata)
    atanhi                                   0x08006c00   Data          32  atan.o(.constdata)
    atanlo                                   0x08006c20   Data          32  atan.o(.constdata)
    aTodd                                    0x08006c40   Data          40  atan.o(.constdata)
    aTeven                                   0x08006c68   Data          48  atan.o(.constdata)
    .constdata                               0x08006c98   Section       48  cos_i.o(.constdata)
    C                                        0x08006c98   Data          48  cos_i.o(.constdata)
    .constdata                               0x08006cc8   Section        8  qnan.o(.constdata)
    .constdata                               0x08006cd0   Section      200  rred.o(.constdata)
    pio2s                                    0x08006cd0   Data          48  rred.o(.constdata)
    twooverpi                                0x08006d00   Data         152  rred.o(.constdata)
    .constdata                               0x08006d98   Section       40  sin_i.o(.constdata)
    S                                        0x08006d98   Data          40  sin_i.o(.constdata)
    .conststring                             0x08006dc0   Section       37  freertos.o(.conststring)
    .data                                    0x20000000   Section       24  control.o(.data)
    .data                                    0x20000018   Section        8  filter.o(.data)
    .data                                    0x20000020   Section       12  cpg.o(.data)
    .data                                    0x2000002c   Section      396  freertos.o(.data)
    delay_time                               0x200000e8   Data           4  freertos.o(.data)
    .data                                    0x200001b8   Section        2  usart.o(.data)
    .data                                    0x200001ba   Section        1  usart.o(.data)
    .data                                    0x200001bb   Section        1  usart.o(.data)
    .data                                    0x200001bc   Section       12  stm32f1xx_hal.o(.data)
    .data                                    0x200001c8   Section        4  system_stm32f1xx.o(.data)
    .data                                    0x200001cc   Section       60  tasks.o(.data)
    pxDelayedTaskList                        0x200001d0   Data           4  tasks.o(.data)
    pxOverflowDelayedTaskList                0x200001d4   Data           4  tasks.o(.data)
    uxDeletedTasksWaitingCleanUp             0x200001d8   Data           4  tasks.o(.data)
    uxCurrentNumberOfTasks                   0x200001dc   Data           4  tasks.o(.data)
    xTickCount                               0x200001e0   Data           4  tasks.o(.data)
    uxTopReadyPriority                       0x200001e4   Data           4  tasks.o(.data)
    xSchedulerRunning                        0x200001e8   Data           4  tasks.o(.data)
    uxPendedTicks                            0x200001ec   Data           4  tasks.o(.data)
    xYieldPending                            0x200001f0   Data           4  tasks.o(.data)
    xNumOfOverflows                          0x200001f4   Data           4  tasks.o(.data)
    uxTaskNumber                             0x200001f8   Data           4  tasks.o(.data)
    xNextTaskUnblockTime                     0x200001fc   Data           4  tasks.o(.data)
    xIdleTaskHandle                          0x20000200   Data           4  tasks.o(.data)
    uxSchedulerSuspended                     0x20000204   Data           4  tasks.o(.data)
    .data                                    0x20000208   Section       24  heap_4.o(.data)
    pxEnd                                    0x20000208   Data           4  heap_4.o(.data)
    xFreeBytesRemaining                      0x2000020c   Data           4  heap_4.o(.data)
    xMinimumEverFreeBytesRemaining           0x20000210   Data           4  heap_4.o(.data)
    xBlockAllocatedBit                       0x20000214   Data           4  heap_4.o(.data)
    xStart                                   0x20000218   Data           8  heap_4.o(.data)
    .data                                    0x20000220   Section       12  port.o(.data)
    ucMaxSysCallPriority                     0x20000220   Data           1  port.o(.data)
    uxCriticalNesting                        0x20000224   Data           4  port.o(.data)
    ulMaxPRIGROUPValue                       0x20000228   Data           4  port.o(.data)
    .bss                                     0x2000022c   Section      596  freertos.o(.bss)
    xIdleTaskTCBBuffer                       0x2000022c   Data          84  freertos.o(.bss)
    xIdleStack                               0x20000280   Data         512  freertos.o(.bss)
    .bss                                     0x20000480   Section       96  adc.o(.bss)
    .bss                                     0x200004e0   Section       84  i2c.o(.bss)
    .bss                                     0x20000534   Section      144  tim.o(.bss)
    .bss                                     0x200005c4   Section      628  usart.o(.bss)
    .bss                                     0x20000838   Section      240  tasks.o(.bss)
    pxReadyTasksLists                        0x20000838   Data         140  tasks.o(.bss)
    xDelayedTaskList1                        0x200008c4   Data          20  tasks.o(.bss)
    xDelayedTaskList2                        0x200008d8   Data          20  tasks.o(.bss)
    xPendingReadyList                        0x200008ec   Data          20  tasks.o(.bss)
    xTasksWaitingTermination                 0x20000900   Data          20  tasks.o(.bss)
    xSuspendedTaskList                       0x20000914   Data          20  tasks.o(.bss)
    .bss                                     0x20000928   Section     3072  heap_4.o(.bss)
    ucHeap                                   0x20000928   Data        3072  heap_4.o(.bss)
    .bss                                     0x20001528   Section       96  libspace.o(.bss)
    HEAP                                     0x20001588   Section      512  startup_stm32f103xb.o(HEAP)
    Heap_Mem                                 0x20001588   Data         512  startup_stm32f103xb.o(HEAP)
    STACK                                    0x20001788   Section     1024  startup_stm32f103xb.o(STACK)
    Stack_Mem                                0x20001788   Data        1024  startup_stm32f103xb.o(STACK)
    __initial_sp                             0x20001b88   Data           0  startup_stm32f103xb.o(STACK)

    Global Symbols

    Symbol Name                              Value     Ov Type        Size  Object(Section)

    BuildAttributes$$THM_ISAv4$P$D$K$B$S$PE$A:L22UL41UL21$X:L11$S22US41US21$IEEE1$IW$USESV6$~STKCKD$USESV7$~SHL$OTIME$ROPI$IEEEX$EBA8$UX$STANDARDLIB$REQ8$PRES8$EABIv2 0x00000000   Number         0  anon$$obj.o ABSOLUTE
    __ARM_use_no_argv                        0x00000000   Number         0  main.o ABSOLUTE
    __ARM_exceptions_init                     - Undefined Weak Reference
    __alloca_initialize                       - Undefined Weak Reference
    __arm_preinit_                            - Undefined Weak Reference
    __cpp_initialize__aeabi_                  - Undefined Weak Reference
    __cxa_finalize                            - Undefined Weak Reference
    __rt_locale                               - Undefined Weak Reference
    __sigvec_lookup                           - Undefined Weak Reference
    _atexit_init                              - Undefined Weak Reference
    _call_atexit_fns                          - Undefined Weak Reference
    _clock_init                               - Undefined Weak Reference
    _fp_trap_init                             - Undefined Weak Reference
    _fp_trap_shutdown                         - Undefined Weak Reference
    _get_lc_collate                           - Undefined Weak Reference
    _get_lc_ctype                             - Undefined Weak Reference
    _get_lc_monetary                          - Undefined Weak Reference
    _get_lc_numeric                           - Undefined Weak Reference
    _get_lc_time                              - Undefined Weak Reference
    _getenv_init                              - Undefined Weak Reference
    _handle_redirection                       - Undefined Weak Reference
    _init_alloc                               - Undefined Weak Reference
    _init_user_alloc                          - Undefined Weak Reference
    _initio                                   - Undefined Weak Reference
    _rand_init                                - Undefined Weak Reference
    _signal_finish                            - Undefined Weak Reference
    _signal_init                              - Undefined Weak Reference
    _terminate_alloc                          - Undefined Weak Reference
    _terminate_user_alloc                     - Undefined Weak Reference
    _terminateio                              - Undefined Weak Reference
    __Vectors_Size                           0x000000ec   Number         0  startup_stm32f103xb.o ABSOLUTE
    __Vectors                                0x08000000   Data           4  startup_stm32f103xb.o(RESET)
    __Vectors_End                            0x080000ec   Data           0  startup_stm32f103xb.o(RESET)
    __main                                   0x080000ed   Thumb Code     8  __main.o(!!!main)
    __scatterload                            0x080000f5   Thumb Code     0  __scatter.o(!!!scatter)
    __scatterload_rt2                        0x080000f5   Thumb Code    44  __scatter.o(!!!scatter)
    __scatterload_rt2_thumb_only             0x080000f5   Thumb Code     0  __scatter.o(!!!scatter)
    __scatterload_null                       0x08000103   Thumb Code     0  __scatter.o(!!!scatter)
    __decompress                             0x08000129   Thumb Code    90  __dczerorl2.o(!!dczerorl2)
    __decompress1                            0x08000129   Thumb Code     0  __dczerorl2.o(!!dczerorl2)
    __scatterload_zeroinit                   0x08000185   Thumb Code    28  __scatter_zi.o(!!handler_zi)
    __rt_lib_init                            0x080001a1   Thumb Code     0  libinit.o(.ARM.Collect$$libinit$$00000000)
    __rt_lib_init_alloca_1                   0x080001a3   Thumb Code     0  libinit2.o(.ARM.Collect$$libinit$$0000002E)
    __rt_lib_init_argv_1                     0x080001a3   Thumb Code     0  libinit2.o(.ARM.Collect$$libinit$$0000002C)
    __rt_lib_init_atexit_1                   0x080001a3   Thumb Code     0  libinit2.o(.ARM.Collect$$libinit$$0000001B)
    __rt_lib_init_clock_1                    0x080001a3   Thumb Code     0  libinit2.o(.ARM.Collect$$libinit$$00000021)
    __rt_lib_init_cpp_1                      0x080001a3   Thumb Code     0  libinit2.o(.ARM.Collect$$libinit$$00000032)
    __rt_lib_init_exceptions_1               0x080001a3   Thumb Code     0  libinit2.o(.ARM.Collect$$libinit$$00000030)
    __rt_lib_init_fp_1                       0x080001a3   Thumb Code     0  libinit2.o(.ARM.Collect$$libinit$$00000002)
    __rt_lib_init_fp_trap_1                  0x080001a3   Thumb Code     0  libinit2.o(.ARM.Collect$$libinit$$0000001F)
    __rt_lib_init_getenv_1                   0x080001a3   Thumb Code     0  libinit2.o(.ARM.Collect$$libinit$$00000023)
    __rt_lib_init_heap_1                     0x080001a3   Thumb Code     0  libinit2.o(.ARM.Collect$$libinit$$0000000A)
    __rt_lib_init_lc_collate_1               0x080001a3   Thumb Code     0  libinit2.o(.ARM.Collect$$libinit$$00000011)
    __rt_lib_init_lc_ctype_1                 0x080001a3   Thumb Code     0  libinit2.o(.ARM.Collect$$libinit$$00000013)
    __rt_lib_init_lc_monetary_1              0x080001a3   Thumb Code     0  libinit2.o(.ARM.Collect$$libinit$$00000015)
    __rt_lib_init_lc_numeric_1               0x080001a3   Thumb Code     0  libinit2.o(.ARM.Collect$$libinit$$00000017)
    __rt_lib_init_lc_time_1                  0x080001a3   Thumb Code     0  libinit2.o(.ARM.Collect$$libinit$$00000019)
    __rt_lib_init_preinit_1                  0x080001a3   Thumb Code     0  libinit2.o(.ARM.Collect$$libinit$$00000004)
    __rt_lib_init_rand_1                     0x080001a3   Thumb Code     0  libinit2.o(.ARM.Collect$$libinit$$0000000E)
    __rt_lib_init_return                     0x080001a3   Thumb Code     0  libinit2.o(.ARM.Collect$$libinit$$00000033)
    __rt_lib_init_signal_1                   0x080001a3   Thumb Code     0  libinit2.o(.ARM.Collect$$libinit$$0000001D)
    __rt_lib_init_stdio_1                    0x080001a3   Thumb Code     0  libinit2.o(.ARM.Collect$$libinit$$00000025)
    __rt_lib_init_user_alloc_1               0x080001a3   Thumb Code     0  libinit2.o(.ARM.Collect$$libinit$$0000000C)
    __rt_lib_shutdown                        0x080001a5   Thumb Code     0  libshutdown.o(.ARM.Collect$$libshutdown$$00000000)
    __rt_lib_shutdown_cpp_1                  0x080001a7   Thumb Code     0  libshutdown2.o(.ARM.Collect$$libshutdown$$00000002)
    __rt_lib_shutdown_fp_trap_1              0x080001a7   Thumb Code     0  libshutdown2.o(.ARM.Collect$$libshutdown$$00000007)
    __rt_lib_shutdown_heap_1                 0x080001a7   Thumb Code     0  libshutdown2.o(.ARM.Collect$$libshutdown$$0000000F)
    __rt_lib_shutdown_return                 0x080001a7   Thumb Code     0  libshutdown2.o(.ARM.Collect$$libshutdown$$00000010)
    __rt_lib_shutdown_signal_1               0x080001a7   Thumb Code     0  libshutdown2.o(.ARM.Collect$$libshutdown$$0000000A)
    __rt_lib_shutdown_stdio_1                0x080001a7   Thumb Code     0  libshutdown2.o(.ARM.Collect$$libshutdown$$00000004)
    __rt_lib_shutdown_user_alloc_1           0x080001a7   Thumb Code     0  libshutdown2.o(.ARM.Collect$$libshutdown$$0000000C)
    __rt_entry                               0x080001a9   Thumb Code     0  __rtentry.o(.ARM.Collect$$rtentry$$00000000)
    __rt_entry_presh_1                       0x080001a9   Thumb Code     0  __rtentry2.o(.ARM.Collect$$rtentry$$00000002)
    __rt_entry_sh                            0x080001a9   Thumb Code     0  __rtentry4.o(.ARM.Collect$$rtentry$$00000004)
    __rt_entry_li                            0x080001af   Thumb Code     0  __rtentry2.o(.ARM.Collect$$rtentry$$0000000A)
    __rt_entry_postsh_1                      0x080001af   Thumb Code     0  __rtentry2.o(.ARM.Collect$$rtentry$$00000009)
    __rt_entry_main                          0x080001b3   Thumb Code     0  __rtentry2.o(.ARM.Collect$$rtentry$$0000000D)
    __rt_entry_postli_1                      0x080001b3   Thumb Code     0  __rtentry2.o(.ARM.Collect$$rtentry$$0000000C)
    __rt_exit                                0x080001bb   Thumb Code     0  rtexit.o(.ARM.Collect$$rtexit$$00000000)
    __rt_exit_ls                             0x080001bd   Thumb Code     0  rtexit2.o(.ARM.Collect$$rtexit$$00000003)
    __rt_exit_prels_1                        0x080001bd   Thumb Code     0  rtexit2.o(.ARM.Collect$$rtexit$$00000002)
    __rt_exit_exit                           0x080001c1   Thumb Code     0  rtexit2.o(.ARM.Collect$$rtexit$$00000004)
    SVC_Handler                              0x080001c9   Thumb Code    32  port.o(.emb_text)
    __asm___6_port_c_39a90d8d__prvStartFirstTask 0x080001ed   Thumb Code    28  port.o(.emb_text)
    PendSV_Handler                           0x0800020d   Thumb Code    72  port.o(.emb_text)
    vPortGetIPSR                             0x08000259   Thumb Code     6  port.o(.emb_text)
    Reset_Handler                            0x08000261   Thumb Code     8  startup_stm32f103xb.o(.text)
    ADC1_2_IRQHandler                        0x0800027b   Thumb Code     0  startup_stm32f103xb.o(.text)
    CAN1_RX1_IRQHandler                      0x0800027b   Thumb Code     0  startup_stm32f103xb.o(.text)
    CAN1_SCE_IRQHandler                      0x0800027b   Thumb Code     0  startup_stm32f103xb.o(.text)
    DMA1_Channel1_IRQHandler                 0x0800027b   Thumb Code     0  startup_stm32f103xb.o(.text)
    DMA1_Channel2_IRQHandler                 0x0800027b   Thumb Code     0  startup_stm32f103xb.o(.text)
    DMA1_Channel3_IRQHandler                 0x0800027b   Thumb Code     0  startup_stm32f103xb.o(.text)
    DMA1_Channel4_IRQHandler                 0x0800027b   Thumb Code     0  startup_stm32f103xb.o(.text)
    DMA1_Channel5_IRQHandler                 0x0800027b   Thumb Code     0  startup_stm32f103xb.o(.text)
    EXTI0_IRQHandler                         0x0800027b   Thumb Code     0  startup_stm32f103xb.o(.text)
    EXTI15_10_IRQHandler                     0x0800027b   Thumb Code     0  startup_stm32f103xb.o(.text)
    EXTI1_IRQHandler                         0x0800027b   Thumb Code     0  startup_stm32f103xb.o(.text)
    EXTI2_IRQHandler                         0x0800027b   Thumb Code     0  startup_stm32f103xb.o(.text)
    EXTI3_IRQHandler                         0x0800027b   Thumb Code     0  startup_stm32f103xb.o(.text)
    EXTI4_IRQHandler                         0x0800027b   Thumb Code     0  startup_stm32f103xb.o(.text)
    EXTI9_5_IRQHandler                       0x0800027b   Thumb Code     0  startup_stm32f103xb.o(.text)
    FLASH_IRQHandler                         0x0800027b   Thumb Code     0  startup_stm32f103xb.o(.text)
    I2C1_ER_IRQHandler                       0x0800027b   Thumb Code     0  startup_stm32f103xb.o(.text)
    I2C1_EV_IRQHandler                       0x0800027b   Thumb Code     0  startup_stm32f103xb.o(.text)
    I2C2_ER_IRQHandler                       0x0800027b   Thumb Code     0  startup_stm32f103xb.o(.text)
    I2C2_EV_IRQHandler                       0x0800027b   Thumb Code     0  startup_stm32f103xb.o(.text)
    PVD_IRQHandler                           0x0800027b   Thumb Code     0  startup_stm32f103xb.o(.text)
    RCC_IRQHandler                           0x0800027b   Thumb Code     0  startup_stm32f103xb.o(.text)
    RTC_Alarm_IRQHandler                     0x0800027b   Thumb Code     0  startup_stm32f103xb.o(.text)
    RTC_IRQHandler                           0x0800027b   Thumb Code     0  startup_stm32f103xb.o(.text)
    SPI1_IRQHandler                          0x0800027b   Thumb Code     0  startup_stm32f103xb.o(.text)
    SPI2_IRQHandler                          0x0800027b   Thumb Code     0  startup_stm32f103xb.o(.text)
    TAMPER_IRQHandler                        0x0800027b   Thumb Code     0  startup_stm32f103xb.o(.text)
    TIM1_BRK_IRQHandler                      0x0800027b   Thumb Code     0  startup_stm32f103xb.o(.text)
    TIM1_CC_IRQHandler                       0x0800027b   Thumb Code     0  startup_stm32f103xb.o(.text)
    TIM1_TRG_COM_IRQHandler                  0x0800027b   Thumb Code     0  startup_stm32f103xb.o(.text)
    TIM1_UP_IRQHandler                       0x0800027b   Thumb Code     0  startup_stm32f103xb.o(.text)
    TIM2_IRQHandler                          0x0800027b   Thumb Code     0  startup_stm32f103xb.o(.text)
    TIM3_IRQHandler                          0x0800027b   Thumb Code     0  startup_stm32f103xb.o(.text)
    TIM4_IRQHandler                          0x0800027b   Thumb Code     0  startup_stm32f103xb.o(.text)
    USART3_IRQHandler                        0x0800027b   Thumb Code     0  startup_stm32f103xb.o(.text)
    USBWakeUp_IRQHandler                     0x0800027b   Thumb Code     0  startup_stm32f103xb.o(.text)
    USB_HP_CAN1_TX_IRQHandler                0x0800027b   Thumb Code     0  startup_stm32f103xb.o(.text)
    USB_LP_CAN1_RX0_IRQHandler               0x0800027b   Thumb Code     0  startup_stm32f103xb.o(.text)
    WWDG_IRQHandler                          0x0800027b   Thumb Code     0  startup_stm32f103xb.o(.text)
    __user_initial_stackheap                 0x0800027d   Thumb Code     0  startup_stm32f103xb.o(.text)
    abs                                      0x080002a1   Thumb Code     8  abs.o(.text)
    __aeabi_memcpy4                          0x080002a9   Thumb Code     0  rt_memcpy_w.o(.text)
    __aeabi_memcpy8                          0x080002a9   Thumb Code     0  rt_memcpy_w.o(.text)
    __rt_memcpy_w                            0x080002a9   Thumb Code   100  rt_memcpy_w.o(.text)
    _memcpy_lastbytes_aligned                0x080002f1   Thumb Code     0  rt_memcpy_w.o(.text)
    __aeabi_memclr                           0x0800030d   Thumb Code     0  rt_memclr.o(.text)
    __rt_memclr                              0x0800030d   Thumb Code    68  rt_memclr.o(.text)
    _memset                                  0x08000311   Thumb Code     0  rt_memclr.o(.text)
    __aeabi_memclr4                          0x08000351   Thumb Code     0  rt_memclr_w.o(.text)
    __aeabi_memclr8                          0x08000351   Thumb Code     0  rt_memclr_w.o(.text)
    __rt_memclr_w                            0x08000351   Thumb Code    78  rt_memclr_w.o(.text)
    _memset_w                                0x08000355   Thumb Code     0  rt_memclr_w.o(.text)
    __use_two_region_memory                  0x0800039f   Thumb Code     2  heapauxi.o(.text)
    __rt_heap_escrow$2region                 0x080003a1   Thumb Code     2  heapauxi.o(.text)
    __rt_heap_expand$2region                 0x080003a3   Thumb Code     2  heapauxi.o(.text)
    __read_errno                             0x080003a5   Thumb Code    10  _rserrno.o(.text)
    __set_errno                              0x080003af   Thumb Code    12  _rserrno.o(.text)
    __aeabi_errno_addr                       0x080003bd   Thumb Code     8  rt_errno_addr_intlibspace.o(.text)
    __errno$intlibspace                      0x080003bd   Thumb Code     0  rt_errno_addr_intlibspace.o(.text)
    __rt_errno_addr$intlibspace              0x080003bd   Thumb Code     0  rt_errno_addr_intlibspace.o(.text)
    __user_libspace                          0x080003c5   Thumb Code     8  libspace.o(.text)
    __user_perproc_libspace                  0x080003c5   Thumb Code     0  libspace.o(.text)
    __user_perthread_libspace                0x080003c5   Thumb Code     0  libspace.o(.text)
    __user_setup_stackheap                   0x080003cd   Thumb Code    74  sys_stackheap_outer.o(.text)
    exit                                     0x08000417   Thumb Code    18  exit.o(.text)
    _sys_exit                                0x08000429   Thumb Code     8  sys_exit.o(.text)
    __I$use$semihosting                      0x08000435   Thumb Code     0  use_no_semi.o(.text)
    __use_no_semihosting_swi                 0x08000435   Thumb Code     2  use_no_semi.o(.text)
    __semihosting_library_function           0x08000437   Thumb Code     0  indicate_semi.o(.text)
    ADC_ConversionStop_Disable               0x08000439   Thumb Code    86  stm32f1xx_hal_adc.o(i.ADC_ConversionStop_Disable)
    ADC_Enable                               0x08000491   Thumb Code   114  stm32f1xx_hal_adc.o(i.ADC_Enable)
    AngleCalculate                           0x0800050d   Thumb Code   168  control.o(i.AngleCalculate)
    BusFault_Handler                         0x080005dd   Thumb Code     2  stm32f1xx_it.o(i.BusFault_Handler)
    ComplementaryFilter                      0x080005e1   Thumb Code    58  filter.o(i.ComplementaryFilter)
    DMA1_Channel6_IRQHandler                 0x08000629   Thumb Code     6  stm32f1xx_it.o(i.DMA1_Channel6_IRQHandler)
    DMA1_Channel7_IRQHandler                 0x08000635   Thumb Code     6  stm32f1xx_it.o(i.DMA1_Channel7_IRQHandler)
    DebugMon_Handler                         0x0800066b   Thumb Code     2  stm32f1xx_it.o(i.DebugMon_Handler)
    Error_Handler                            0x0800066d   Thumb Code     4  main.o(i.Error_Handler)
    HAL_ADC_ConfigChannel                    0x08000671   Thumb Code   240  stm32f1xx_hal_adc.o(i.HAL_ADC_ConfigChannel)
    HAL_ADC_GetValue                         0x0800076d   Thumb Code     6  stm32f1xx_hal_adc.o(i.HAL_ADC_GetValue)
    HAL_ADC_Init                             0x08000775   Thumb Code   272  stm32f1xx_hal_adc.o(i.HAL_ADC_Init)
    HAL_ADC_MspInit                          0x08000891   Thumb Code   118  adc.o(i.HAL_ADC_MspInit)
    HAL_ADC_Start                            0x08000919   Thumb Code   184  stm32f1xx_hal_adc.o(i.HAL_ADC_Start)
    HAL_DMA_Abort                            0x080009d9   Thumb Code    70  stm32f1xx_hal_dma.o(i.HAL_DMA_Abort)
    HAL_DMA_Abort_IT                         0x08000a21   Thumb Code   148  stm32f1xx_hal_dma.o(i.HAL_DMA_Abort_IT)
    HAL_DMA_IRQHandler                       0x08000ab9   Thumb Code   316  stm32f1xx_hal_dma.o(i.HAL_DMA_IRQHandler)
    HAL_DMA_Init                             0x08000c0d   Thumb Code    84  stm32f1xx_hal_dma.o(i.HAL_DMA_Init)
    HAL_DMA_Start_IT                         0x08000c69   Thumb Code   112  stm32f1xx_hal_dma.o(i.HAL_DMA_Start_IT)
    HAL_Delay                                0x08000cd9   Thumb Code    32  stm32f1xx_hal.o(i.HAL_Delay)
    HAL_GPIO_Init                            0x08000cfd   Thumb Code   446  stm32f1xx_hal_gpio.o(i.HAL_GPIO_Init)
    HAL_GPIO_WritePin                        0x08000edd   Thumb Code    10  stm32f1xx_hal_gpio.o(i.HAL_GPIO_WritePin)
    HAL_GetTick                              0x08000ee9   Thumb Code     6  stm32f1xx_hal.o(i.HAL_GetTick)
    HAL_I2C_Init                             0x08000ef5   Thumb Code   376  stm32f1xx_hal_i2c.o(i.HAL_I2C_Init)
    HAL_I2C_Mem_Read                         0x0800107d   Thumb Code   574  stm32f1xx_hal_i2c.o(i.HAL_I2C_Mem_Read)
    HAL_I2C_Mem_Write                        0x080012cd   Thumb Code   294  stm32f1xx_hal_i2c.o(i.HAL_I2C_Mem_Write)
    HAL_I2C_MspInit                          0x080013fd   Thumb Code    82  i2c.o(i.HAL_I2C_MspInit)
    HAL_IncTick                              0x0800145d   Thumb Code    12  stm32f1xx_hal.o(i.HAL_IncTick)
    HAL_Init                                 0x0800146d   Thumb Code    32  stm32f1xx_hal.o(i.HAL_Init)
    HAL_InitTick                             0x08001491   Thumb Code    54  stm32f1xx_hal.o(i.HAL_InitTick)
    HAL_MspInit                              0x080014d1   Thumb Code    62  stm32f1xx_hal_msp.o(i.HAL_MspInit)
    HAL_NVIC_EnableIRQ                       0x08001519   Thumb Code    26  stm32f1xx_hal_cortex.o(i.HAL_NVIC_EnableIRQ)
    HAL_NVIC_SetPriority                     0x08001535   Thumb Code    60  stm32f1xx_hal_cortex.o(i.HAL_NVIC_SetPriority)
    HAL_NVIC_SetPriorityGrouping             0x08001575   Thumb Code    26  stm32f1xx_hal_cortex.o(i.HAL_NVIC_SetPriorityGrouping)
    HAL_NVIC_SystemReset                     0x08001599   Thumb Code    26  stm32f1xx_hal_cortex.o(i.HAL_NVIC_SystemReset)
    HAL_RCCEx_PeriphCLKConfig                0x080015bd   Thumb Code   224  stm32f1xx_hal_rcc_ex.o(i.HAL_RCCEx_PeriphCLKConfig)
    HAL_RCC_ClockConfig                      0x080016a9   Thumb Code   280  stm32f1xx_hal_rcc.o(i.HAL_RCC_ClockConfig)
    HAL_RCC_GetPCLK1Freq                     0x080017d5   Thumb Code    20  stm32f1xx_hal_rcc.o(i.HAL_RCC_GetPCLK1Freq)
    HAL_RCC_GetPCLK2Freq                     0x080017f5   Thumb Code    20  stm32f1xx_hal_rcc.o(i.HAL_RCC_GetPCLK2Freq)
    HAL_RCC_GetSysClockFreq                  0x08001815   Thumb Code    74  stm32f1xx_hal_rcc.o(i.HAL_RCC_GetSysClockFreq)
    HAL_RCC_OscConfig                        0x08001881   Thumb Code   778  stm32f1xx_hal_rcc.o(i.HAL_RCC_OscConfig)
    HAL_SYSTICK_Config                       0x08001ba1   Thumb Code    40  stm32f1xx_hal_cortex.o(i.HAL_SYSTICK_Config)
    HAL_TIMEx_ConfigBreakDeadTime            0x08001bc9   Thumb Code    84  stm32f1xx_hal_tim_ex.o(i.HAL_TIMEx_ConfigBreakDeadTime)
    HAL_TIMEx_MasterConfigSynchronization    0x08001c1d   Thumb Code    92  stm32f1xx_hal_tim_ex.o(i.HAL_TIMEx_MasterConfigSynchronization)
    HAL_TIM_MspPostInit                      0x08001c85   Thumb Code    90  tim.o(i.HAL_TIM_MspPostInit)
    HAL_TIM_PWM_ConfigChannel                0x08001cf1   Thumb Code   198  stm32f1xx_hal_tim.o(i.HAL_TIM_PWM_ConfigChannel)
    HAL_TIM_PWM_Init                         0x08001db7   Thumb Code    90  stm32f1xx_hal_tim.o(i.HAL_TIM_PWM_Init)
    HAL_TIM_PWM_MspInit                      0x08001e11   Thumb Code    52  tim.o(i.HAL_TIM_PWM_MspInit)
    HAL_TIM_PWM_Start                        0x08001e51   Thumb Code   144  stm32f1xx_hal_tim.o(i.HAL_TIM_PWM_Start)
    HAL_UARTEx_RxEventCallback               0x08001eed   Thumb Code     2  stm32f1xx_hal_uart.o(i.HAL_UARTEx_RxEventCallback)
    HAL_UART_DMAStop                         0x08001eef   Thumb Code    88  stm32f1xx_hal_uart.o(i.HAL_UART_DMAStop)
    HAL_UART_ErrorCallback                   0x08001f47   Thumb Code     2  stm32f1xx_hal_uart.o(i.HAL_UART_ErrorCallback)
    HAL_UART_IRQHandler                      0x08001f49   Thumb Code   520  stm32f1xx_hal_uart.o(i.HAL_UART_IRQHandler)
    HAL_UART_Init                            0x08002155   Thumb Code    98  stm32f1xx_hal_uart.o(i.HAL_UART_Init)
    HAL_UART_MspInit                         0x080021b9   Thumb Code   290  usart.o(i.HAL_UART_MspInit)
    HAL_UART_Receive_DMA                     0x080022f5   Thumb Code    42  stm32f1xx_hal_uart.o(i.HAL_UART_Receive_DMA)
    HAL_UART_Receive_IT                      0x0800231f   Thumb Code    42  stm32f1xx_hal_uart.o(i.HAL_UART_Receive_IT)
    HAL_UART_RxCpltCallback                  0x08002349   Thumb Code  1080  usart.o(i.HAL_UART_RxCpltCallback)
    HAL_UART_RxHalfCpltCallback              0x08002781   Thumb Code     2  stm32f1xx_hal_uart.o(i.HAL_UART_RxHalfCpltCallback)
    HAL_UART_Transmit                        0x08002785   Thumb Code   178  stm32f1xx_hal_uart.o(i.HAL_UART_Transmit)
    HAL_UART_TxCpltCallback                  0x08002837   Thumb Code     2  stm32f1xx_hal_uart.o(i.HAL_UART_TxCpltCallback)
    HardFault_Handler                        0x08002839   Thumb Code     2  stm32f1xx_it.o(i.HardFault_Handler)
    MPU_Get_Accelerometer                    0x08002c09   Thumb Code    50  mpu6050.o(i.MPU_Get_Accelerometer)
    MPU_Get_Gyroscope                        0x08002c3b   Thumb Code    50  mpu6050.o(i.MPU_Get_Gyroscope)
    MPU_Init                                 0x08002c6d   Thumb Code   114  mpu6050.o(i.MPU_Init)
    MPU_Read_Byte                            0x08002ce1   Thumb Code    38  mpu6050.o(i.MPU_Read_Byte)
    MPU_Read_Len                             0x08002d0d   Thumb Code    32  mpu6050.o(i.MPU_Read_Len)
    MPU_Set_Accel_Fsr                        0x08002d31   Thumb Code    10  mpu6050.o(i.MPU_Set_Accel_Fsr)
    MPU_Set_Gyro_Fsr                         0x08002d3b   Thumb Code    10  mpu6050.o(i.MPU_Set_Gyro_Fsr)
    MPU_Set_LPF                              0x08002d45   Thumb Code    48  mpu6050.o(i.MPU_Set_LPF)
    MPU_Set_Rate                             0x08002d75   Thumb Code    46  mpu6050.o(i.MPU_Set_Rate)
    MPU_Write_Byte                           0x08002da5   Thumb Code    36  mpu6050.o(i.MPU_Write_Byte)
    MX_ADC1_Init                             0x08002dcd   Thumb Code    68  adc.o(i.MX_ADC1_Init)
    MX_ADC2_Init                             0x08002e19   Thumb Code    68  adc.o(i.MX_ADC2_Init)
    MX_DMA_Init                              0x08002e65   Thumb Code    56  dma.o(i.MX_DMA_Init)
    MX_FREERTOS_Init                         0x08002ea1   Thumb Code    96  freertos.o(i.MX_FREERTOS_Init)
    MX_GPIO_Init                             0x08002f09   Thumb Code   120  gpio.o(i.MX_GPIO_Init)
    MX_I2C2_Init                             0x08002f89   Thumb Code    50  i2c.o(i.MX_I2C2_Init)
    MX_TIM1_Init                             0x08002fc9   Thumb Code   168  tim.o(i.MX_TIM1_Init)
    MX_TIM3_Init                             0x08003079   Thumb Code   104  tim.o(i.MX_TIM3_Init)
    MX_USART1_UART_Init                      0x080030e9   Thumb Code    54  usart.o(i.MX_USART1_UART_Init)
    MX_USART2_UART_Init                      0x0800312d   Thumb Code    66  usart.o(i.MX_USART2_UART_Init)
    MemManage_Handler                        0x0800317d   Thumb Code     2  stm32f1xx_it.o(i.MemManage_Handler)
    NMI_Handler                              0x0800317f   Thumb Code     2  stm32f1xx_it.o(i.NMI_Handler)
    ShuiWeiSensor_Get_Val                    0x08003181   Thumb Code   174  sharp.o(i.ShuiWeiSensor_Get_Val)
    StartDefaultTask                         0x08003259   Thumb Code     2  freertos.o(i.StartDefaultTask)
    SysTick_Handler                          0x0800325b   Thumb Code    24  stm32f1xx_it.o(i.SysTick_Handler)
    SystemClock_Config                       0x08003273   Thumb Code   118  main.o(i.SystemClock_Config)
    SystemInit                               0x080032e9   Thumb Code     2  system_stm32f1xx.o(i.SystemInit)
    System_Reset                             0x080032ed   Thumb Code   166  freertos.o(i.System_Reset)
    TIM_Base_SetConfig                       0x0800339d   Thumb Code    94  stm32f1xx_hal_tim.o(i.TIM_Base_SetConfig)
    TIM_CCxChannelCmd                        0x08003409   Thumb Code    26  stm32f1xx_hal_tim.o(i.TIM_CCxChannelCmd)
    TIM_OC2_SetConfig                        0x08003475   Thumb Code    84  stm32f1xx_hal_tim.o(i.TIM_OC2_SetConfig)
    UART_Start_Receive_DMA                   0x080037e9   Thumb Code    98  stm32f1xx_hal_uart.o(i.UART_Start_Receive_DMA)
    UART_Start_Receive_IT                    0x08003859   Thumb Code    54  stm32f1xx_hal_uart.o(i.UART_Start_Receive_IT)
    USART1_IRQHandler                        0x080038f5   Thumb Code     6  stm32f1xx_it.o(i.USART1_IRQHandler)
    USART2_IRQHandler                        0x08003901   Thumb Code    56  stm32f1xx_it.o(i.USART2_IRQHandler)
    UsageFault_Handler                       0x08003949   Thumb Code     2  stm32f1xx_it.o(i.UsageFault_Handler)
    __ARM_fpclassify                         0x0800394b   Thumb Code    40  fpclassify.o(i.__ARM_fpclassify)
    __ieee754_rem_pio2                       0x08003995   Thumb Code   828  rred.o(i.__ieee754_rem_pio2)
    __kernel_cos                             0x08003d1d   Thumb Code   230  cos_i.o(i.__kernel_cos)
    __kernel_poly                            0x08003e19   Thumb Code   170  poly.o(i.__kernel_poly)
    __kernel_sin                             0x08003ec5   Thumb Code   224  sin_i.o(i.__kernel_sin)
    __mathlib_dbl_infnan                     0x08003fb1   Thumb Code     6  dunder.o(i.__mathlib_dbl_infnan)
    __mathlib_dbl_infnan2                    0x08003fb7   Thumb Code     4  dunder.o(i.__mathlib_dbl_infnan2)
    __mathlib_dbl_invalid                    0x08003fbb   Thumb Code    12  dunder.o(i.__mathlib_dbl_invalid)
    __mathlib_dbl_underflow                  0x08003fc9   Thumb Code    10  dunder.o(i.__mathlib_dbl_underflow)
    atan                                     0x08003fd9   Thumb Code   474  atan.o(i.atan)
    atan2                                    0x080041f9   Thumb Code   346  atan2.o(i.atan2)
    calCPG_angle                             0x08004379   Thumb Code    80  cpg.o(i.calCPG_angle)
    calCPG_b                                 0x080043c9   Thumb Code    28  cpg.o(i.calCPG_b)
    calCPG_db                                0x080043e9   Thumb Code   136  cpg.o(i.calCPG_db)
    calCPG_dm                                0x08004475   Thumb Code   136  cpg.o(i.calCPG_dm)
    calCPG_fi                                0x08004501   Thumb Code   122  cpg.o(i.calCPG_fi)
    calCPG_m                                 0x08004581   Thumb Code    28  cpg.o(i.calCPG_m)
    main                                     0x080045a1   Thumb Code   158  main.o(i.main)
    mpu1task                                 0x08004659   Thumb Code   676  freertos.o(i.mpu1task)
    osKernelStart                            0x08004925   Thumb Code    10  cmsis_os.o(i.osKernelStart)
    osThreadCreate                           0x0800492f   Thumb Code    84  cmsis_os.o(i.osThreadCreate)
    pvPortMalloc                             0x08004cc9   Thumb Code   210  heap_4.o(i.pvPortMalloc)
    pxPortInitialiseStack                    0x08004da1   Thumb Code    32  port.o(i.pxPortInitialiseStack)
    servotask                                0x08004dc5   Thumb Code  1412  freertos.o(i.servotask)
    set_angle                                0x08005355   Thumb Code   102  bottom.o(i.set_angle)
    sign                                     0x080053d9   Thumb Code    26  cpg.o(i.sign)
    sin                                      0x080053f9   Thumb Code   150  sin.o(i.sin)
    typetransform                            0x08005499   Thumb Code     8  usart.o(i.typetransform)
    uxListRemove                             0x080054a1   Thumb Code    38  list.o(i.uxListRemove)
    vApplicationGetIdleTaskMemory            0x080054c9   Thumb Code    16  freertos.o(i.vApplicationGetIdleTaskMemory)
    vListInitialise                          0x080054dd   Thumb Code    22  list.o(i.vListInitialise)
    vListInitialiseItem                      0x080054f3   Thumb Code     6  list.o(i.vListInitialiseItem)
    vListInsert                              0x080054f9   Thumb Code    48  list.o(i.vListInsert)
    vListInsertEnd                           0x08005529   Thumb Code    24  list.o(i.vListInsertEnd)
    vPortEnterCritical                       0x08005541   Thumb Code    54  port.o(i.vPortEnterCritical)
    vPortExitCritical                        0x08005581   Thumb Code    34  port.o(i.vPortExitCritical)
    vPortFree                                0x080055a9   Thumb Code    88  heap_4.o(i.vPortFree)
    vPortSetupTimerInterrupt                 0x08005605   Thumb Code    32  port.o(i.vPortSetupTimerInterrupt)
    vTaskDelayUntil                          0x08005629   Thumb Code   132  tasks.o(i.vTaskDelayUntil)
    vTaskStartScheduler                      0x080056b5   Thumb Code    90  tasks.o(i.vTaskStartScheduler)
    vTaskSuspendAll                          0x08005721   Thumb Code    10  tasks.o(i.vTaskSuspendAll)
    vTaskSwitchContext                       0x08005731   Thumb Code    82  tasks.o(i.vTaskSwitchContext)
    xPortStartScheduler                      0x0800578d   Thumb Code   154  port.o(i.xPortStartScheduler)
    xPortSysTickHandler                      0x08005835   Thumb Code    38  port.o(i.xPortSysTickHandler)
    xTaskCreate                              0x08005861   Thumb Code    90  tasks.o(i.xTaskCreate)
    xTaskCreateStatic                        0x080058bb   Thumb Code    86  tasks.o(i.xTaskCreateStatic)
    xTaskGetSchedulerState                   0x08005911   Thumb Code    22  tasks.o(i.xTaskGetSchedulerState)
    xTaskGetTickCount                        0x0800592d   Thumb Code     6  tasks.o(i.xTaskGetTickCount)
    xTaskIncrementTick                       0x08005939   Thumb Code   192  tasks.o(i.xTaskIncrementTick)
    xTaskResumeAll                           0x08005a01   Thumb Code   182  tasks.o(i.xTaskResumeAll)
    __aeabi_d2f                              0x08005ac5   Thumb Code     0  d2f.o(x$fpl$d2f)
    _d2f                                     0x08005ac5   Thumb Code    98  d2f.o(x$fpl$d2f)
    __aeabi_dadd                             0x08005b29   Thumb Code     0  daddsub_clz.o(x$fpl$dadd)
    _dadd                                    0x08005b29   Thumb Code   332  daddsub_clz.o(x$fpl$dadd)
    __fpl_dcheck_NaN1                        0x08005c79   Thumb Code    10  dcheck1.o(x$fpl$dcheck1)
    __aeabi_ddiv                             0x08005c89   Thumb Code     0  ddiv.o(x$fpl$ddiv)
    _ddiv                                    0x08005c89   Thumb Code   552  ddiv.o(x$fpl$ddiv)
    __aeabi_d2iz                             0x08005f39   Thumb Code     0  dfix.o(x$fpl$dfix)
    _dfix                                    0x08005f39   Thumb Code    94  dfix.o(x$fpl$dfix)
    __aeabi_i2d                              0x08005f97   Thumb Code     0  dflt_clz.o(x$fpl$dflt)
    _dflt                                    0x08005f97   Thumb Code    46  dflt_clz.o(x$fpl$dflt)
    __aeabi_ui2d                             0x08005fc5   Thumb Code     0  dflt_clz.o(x$fpl$dfltu)
    _dfltu                                   0x08005fc5   Thumb Code    38  dflt_clz.o(x$fpl$dfltu)
    __aeabi_dmul                             0x08005fed   Thumb Code     0  dmul.o(x$fpl$dmul)
    _dmul                                    0x08005fed   Thumb Code   332  dmul.o(x$fpl$dmul)
    __fpl_dnaninf                            0x08006141   Thumb Code   156  dnaninf.o(x$fpl$dnaninf)
    __fpl_dretinf                            0x080061dd   Thumb Code    12  dretinf.o(x$fpl$dretinf)
    __aeabi_drsub                            0x080061e9   Thumb Code     0  daddsub_clz.o(x$fpl$drsb)
    _drsb                                    0x080061e9   Thumb Code    22  daddsub_clz.o(x$fpl$drsb)
    __aeabi_dsub                             0x08006201   Thumb Code     0  daddsub_clz.o(x$fpl$dsub)
    _dsub                                    0x08006201   Thumb Code   464  daddsub_clz.o(x$fpl$dsub)
    __aeabi_f2d                              0x080063d5   Thumb Code     0  f2d.o(x$fpl$f2d)
    _f2d                                     0x080063d5   Thumb Code    86  f2d.o(x$fpl$f2d)
    __aeabi_fadd                             0x0800642d   Thumb Code     0  faddsub_clz.o(x$fpl$fadd)
    _fadd                                    0x0800642d   Thumb Code   196  faddsub_clz.o(x$fpl$fadd)
    __fpl_fcheck_NaN1                        0x080064f1   Thumb Code     6  fcheck1.o(x$fpl$fcheck1)
    __fpl_fcmp_Inf                           0x080064fd   Thumb Code    24  fcmpi.o(x$fpl$fcmpinf)
    __aeabi_fdiv                             0x08006515   Thumb Code     0  fdiv.o(x$fpl$fdiv)
    _fdiv                                    0x08006515   Thumb Code   384  fdiv.o(x$fpl$fdiv)
    __aeabi_f2iz                             0x08006699   Thumb Code     0  ffix.o(x$fpl$ffix)
    _ffix                                    0x08006699   Thumb Code    54  ffix.o(x$fpl$ffix)
    __aeabi_f2uiz                            0x080066d1   Thumb Code     0  ffixu.o(x$fpl$ffixu)
    _ffixu                                   0x080066d1   Thumb Code    62  ffixu.o(x$fpl$ffixu)
    __aeabi_ui2f                             0x08006711   Thumb Code     0  fflt_clz.o(x$fpl$ffltu)
    _ffltu                                   0x08006711   Thumb Code    38  fflt_clz.o(x$fpl$ffltu)
    __aeabi_cfcmple                          0x08006739   Thumb Code     0  fleqf.o(x$fpl$fleqf)
    _fcmple                                  0x08006739   Thumb Code   104  fleqf.o(x$fpl$fleqf)
    __fpl_fcmple_InfNaN                      0x0800678b   Thumb Code     0  fleqf.o(x$fpl$fleqf)
    __aeabi_fmul                             0x080067a1   Thumb Code     0  fmul.o(x$fpl$fmul)
    _fmul                                    0x080067a1   Thumb Code   258  fmul.o(x$fpl$fmul)
    __fpl_fnaninf                            0x080068a3   Thumb Code   140  fnaninf.o(x$fpl$fnaninf)
    __fpl_fretinf                            0x0800692f   Thumb Code    10  fretinf.o(x$fpl$fretinf)
    __aeabi_frsub                            0x08006939   Thumb Code     0  faddsub_clz.o(x$fpl$frsb)
    _frsb                                    0x08006939   Thumb Code    20  faddsub_clz.o(x$fpl$frsb)
    __aeabi_fsub                             0x0800694d   Thumb Code     0  faddsub_clz.o(x$fpl$fsub)
    _fsub                                    0x0800694d   Thumb Code   234  faddsub_clz.o(x$fpl$fsub)
    __fpl_return_NaN                         0x08006a37   Thumb Code   100  retnan.o(x$fpl$retnan)
    __ARM_scalbn                             0x08006a9b   Thumb Code    92  scalbn.o(x$fpl$scalbn)
    __ARM_scalbnf                            0x08006af7   Thumb Code    76  scalbnf.o(x$fpl$scalbnf)
    __fpl_cmpreturn                          0x08006b43   Thumb Code    48  trapv.o(x$fpl$trapveneer)
    __I$use$fp                               0x08006b72   Number         0  usenofp.o(x$fpl$usenofp)
    AHBPrescTable                            0x08006be4   Data          16  system_stm32f1xx.o(.constdata)
    APBPrescTable                            0x08006bf4   Data           8  system_stm32f1xx.o(.constdata)
    __mathlib_zero                           0x08006cc8   Data           8  qnan.o(.constdata)
    Region$$Table$$Base                      0x08006de8   Number         0  anon$$obj.o(Region$$Table)
    Region$$Table$$Limit                     0x08006e08   Number         0  anon$$obj.o(Region$$Table)
    dt                                       0x20000000   Data           4  control.o(.data)
    x_fAcc                                   0x20000004   Data           4  control.o(.data)
    y_fAcc                                   0x20000008   Data           4  control.o(.data)
    z_fAcc                                   0x2000000c   Data           4  control.o(.data)
    g_fAccAngle                              0x20000010   Data           4  control.o(.data)
    g_fGyroAngleSpeed                        0x20000014   Data           4  control.o(.data)
    angle                                    0x20000018   Data           4  filter.o(.data)
    a                                        0x2000001c   Data           4  filter.o(.data)
    T                                        0x20000020   Data           4  cpg.o(.data)
    kb                                       0x20000024   Data           4  cpg.o(.data)
    km                                       0x20000028   Data           4  cpg.o(.data)
    x_nAcc                                   0x2000002c   Data           2  freertos.o(.data)
    y_nAcc                                   0x2000002e   Data           2  freertos.o(.data)
    z_nAcc                                   0x20000030   Data           2  freertos.o(.data)
    x_nGyro                                  0x20000032   Data           2  freertos.o(.data)
    y_nGyro                                  0x20000034   Data           2  freertos.o(.data)
    z_nGyro                                  0x20000036   Data           2  freertos.o(.data)
    distance                                 0x20000038   Data           4  freertos.o(.data)
    bo                                       0x2000003c   Data           4  freertos.o(.data)
    bt                                       0x20000040   Data           4  freertos.o(.data)
    dbo                                      0x20000044   Data           4  freertos.o(.data)
    dbt                                      0x20000048   Data           4  freertos.o(.data)
    mo                                       0x2000004c   Data           4  freertos.o(.data)
    mt                                       0x20000050   Data           4  freertos.o(.data)
    dmo                                      0x20000054   Data           4  freertos.o(.data)
    dmt                                      0x20000058   Data           4  freertos.o(.data)
    fio                                      0x2000005c   Data           4  freertos.o(.data)
    fit                                      0x20000060   Data           4  freertos.o(.data)
    bo1                                      0x20000064   Data           4  freertos.o(.data)
    bt1                                      0x20000068   Data           4  freertos.o(.data)
    dbo1                                     0x2000006c   Data           4  freertos.o(.data)
    dbt1                                     0x20000070   Data           4  freertos.o(.data)
    mo1                                      0x20000074   Data           4  freertos.o(.data)
    mt1                                      0x20000078   Data           4  freertos.o(.data)
    dmo1                                     0x2000007c   Data           4  freertos.o(.data)
    dmt1                                     0x20000080   Data           4  freertos.o(.data)
    fio1                                     0x20000084   Data           4  freertos.o(.data)
    fit1                                     0x20000088   Data           4  freertos.o(.data)
    bo2                                      0x2000008c   Data           4  freertos.o(.data)
    bt2                                      0x20000090   Data           4  freertos.o(.data)
    dbo2                                     0x20000094   Data           4  freertos.o(.data)
    dbt2                                     0x20000098   Data           4  freertos.o(.data)
    mo2                                      0x2000009c   Data           4  freertos.o(.data)
    mt2                                      0x200000a0   Data           4  freertos.o(.data)
    dmo2                                     0x200000a4   Data           4  freertos.o(.data)
    dmt2                                     0x200000a8   Data           4  freertos.o(.data)
    fio2                                     0x200000ac   Data           4  freertos.o(.data)
    fit2                                     0x200000b0   Data           4  freertos.o(.data)
    fangle                                   0x200000b4   Data           4  freertos.o(.data)
    fangle1                                  0x200000b8   Data           4  freertos.o(.data)
    fangle2                                  0x200000bc   Data           4  freertos.o(.data)
    offset1                                  0x200000c0   Data           4  freertos.o(.data)
    offset2                                  0x200000c4   Data           4  freertos.o(.data)
    offset3                                  0x200000c8   Data           4  freertos.o(.data)
    distance_min                             0x200000cc   Data           4  freertos.o(.data)
    statue_control                           0x200000d0   Data           4  freertos.o(.data)
    statue_vision_Wei                        0x200000d4   Data           4  freertos.o(.data)
    statue_vision_Xiong                      0x200000d8   Data           4  freertos.o(.data)
    Wei_change                               0x200000dc   Data           4  freertos.o(.data)
    Xiong_left_change                        0x200000e0   Data           4  freertos.o(.data)
    Xiong_right_change                       0x200000e4   Data           4  freertos.o(.data)
    SystemReset_flag                         0x200000ec   Data           4  freertos.o(.data)
    mpu1Handle                               0x200000f0   Data           4  freertos.o(.data)
    servoHandle                              0x200000f4   Data           4  freertos.o(.data)
    sysresetHandle                           0x200000f8   Data           4  freertos.o(.data)
    g_fCarAngle                              0x200000fc   Data           4  freertos.o(.data)
    vision                                   0x20000100   Data           4  freertos.o(.data)
    defaultTaskHandle                        0x20000104   Data           4  freertos.o(.data)
    Wei                                      0x20000108   Data          16  freertos.o(.data)
    Wei_auto                                 0x20000118   Data          16  freertos.o(.data)
    Xiong_left                               0x20000128   Data          16  freertos.o(.data)
    Xiong_right                              0x20000138   Data          16  freertos.o(.data)
    Xiong_left_auto                          0x20000148   Data          16  freertos.o(.data)
    Xiong_right_auto                         0x20000158   Data          16  freertos.o(.data)
    Wei_control                              0x20000168   Data          16  freertos.o(.data)
    Wei_vision                               0x20000178   Data          16  freertos.o(.data)
    Xiong_left_control                       0x20000188   Data          16  freertos.o(.data)
    Xiong_right_control                      0x20000198   Data          16  freertos.o(.data)
    Xiong_vision                             0x200001a8   Data          16  freertos.o(.data)
    UART1_Length                             0x200001b8   Data           1  usart.o(.data)
    UART1_Dat                                0x200001b9   Data           1  usart.o(.data)
    rx_len                                   0x200001ba   Data           1  usart.o(.data)
    recv_end_flag                            0x200001bb   Data           1  usart.o(.data)
    uwTickFreq                               0x200001bc   Data           1  stm32f1xx_hal.o(.data)
    uwTickPrio                               0x200001c0   Data           4  stm32f1xx_hal.o(.data)
    uwTick                                   0x200001c4   Data           4  stm32f1xx_hal.o(.data)
    SystemCoreClock                          0x200001c8   Data           4  system_stm32f1xx.o(.data)
    pxCurrentTCB                             0x200001cc   Data           4  tasks.o(.data)
    hadc1                                    0x20000480   Data          48  adc.o(.bss)
    hadc2                                    0x200004b0   Data          48  adc.o(.bss)
    hi2c2                                    0x200004e0   Data          84  i2c.o(.bss)
    htim1                                    0x20000534   Data          72  tim.o(.bss)
    htim3                                    0x2000057c   Data          72  tim.o(.bss)
    rx_buffer                                0x200005c4   Data         100  usart.o(.bss)
    UART1_DataBuff                           0x20000628   Data         256  usart.o(.bss)
    huart1                                   0x20000728   Data          68  usart.o(.bss)
    huart2                                   0x2000076c   Data          68  usart.o(.bss)
    hdma_usart2_rx                           0x200007b0   Data          68  usart.o(.bss)
    hdma_usart2_tx                           0x200007f4   Data          68  usart.o(.bss)
    __libspace_start                         0x20001528   Data          96  libspace.o(.bss)
    __temporary_stack_top$libspace           0x20001588   Data           0  libspace.o(.bss)



==============================================================================

Memory Map of the image

  Image Entry point : 0x080000ed

  Load Region LR_IROM1 (Base: 0x08000000, Size: 0x00007034, Max: 0x00020000, ABSOLUTE, COMPRESSED[0x00006e3c])

    Execution Region ER_IROM1 (Base: 0x08000000, Size: 0x00006e08, Max: 0x00020000, ABSOLUTE)

    Base Addr    Size         Type   Attr      Idx    E Section Name        Object

    0x08000000   0x000000ec   Data   RO            3    RESET               startup_stm32f103xb.o
    0x080000ec   0x00000008   Code   RO         5339  * !!!main             c_w.l(__main.o)
    0x080000f4   0x00000034   Code   RO         5641    !!!scatter          c_w.l(__scatter.o)
    0x08000128   0x0000005a   Code   RO         5639    !!dczerorl2         c_w.l(__dczerorl2.o)
    0x08000182   0x00000002   PAD
    0x08000184   0x0000001c   Code   RO         5643    !!handler_zi        c_w.l(__scatter_zi.o)
    0x080001a0   0x00000002   Code   RO         5510    .ARM.Collect$$libinit$$00000000  c_w.l(libinit.o)
    0x080001a2   0x00000000   Code   RO         5516    .ARM.Collect$$libinit$$00000002  c_w.l(libinit2.o)
    0x080001a2   0x00000000   Code   RO         5518    .ARM.Collect$$libinit$$00000004  c_w.l(libinit2.o)
    0x080001a2   0x00000000   Code   RO         5521    .ARM.Collect$$libinit$$0000000A  c_w.l(libinit2.o)
    0x080001a2   0x00000000   Code   RO         5523    .ARM.Collect$$libinit$$0000000C  c_w.l(libinit2.o)
    0x080001a2   0x00000000   Code   RO         5525    .ARM.Collect$$libinit$$0000000E  c_w.l(libinit2.o)
    0x080001a2   0x00000000   Code   RO         5528    .ARM.Collect$$libinit$$00000011  c_w.l(libinit2.o)
    0x080001a2   0x00000000   Code   RO         5530    .ARM.Collect$$libinit$$00000013  c_w.l(libinit2.o)
    0x080001a2   0x00000000   Code   RO         5532    .ARM.Collect$$libinit$$00000015  c_w.l(libinit2.o)
    0x080001a2   0x00000000   Code   RO         5534    .ARM.Collect$$libinit$$00000017  c_w.l(libinit2.o)
    0x080001a2   0x00000000   Code   RO         5536    .ARM.Collect$$libinit$$00000019  c_w.l(libinit2.o)
    0x080001a2   0x00000000   Code   RO         5538    .ARM.Collect$$libinit$$0000001B  c_w.l(libinit2.o)
    0x080001a2   0x00000000   Code   RO         5540    .ARM.Collect$$libinit$$0000001D  c_w.l(libinit2.o)
    0x080001a2   0x00000000   Code   RO         5542    .ARM.Collect$$libinit$$0000001F  c_w.l(libinit2.o)
    0x080001a2   0x00000000   Code   RO         5544    .ARM.Collect$$libinit$$00000021  c_w.l(libinit2.o)
    0x080001a2   0x00000000   Code   RO         5546    .ARM.Collect$$libinit$$00000023  c_w.l(libinit2.o)
    0x080001a2   0x00000000   Code   RO         5548    .ARM.Collect$$libinit$$00000025  c_w.l(libinit2.o)
    0x080001a2   0x00000000   Code   RO         5552    .ARM.Collect$$libinit$$0000002C  c_w.l(libinit2.o)
    0x080001a2   0x00000000   Code   RO         5554    .ARM.Collect$$libinit$$0000002E  c_w.l(libinit2.o)
    0x080001a2   0x00000000   Code   RO         5556    .ARM.Collect$$libinit$$00000030  c_w.l(libinit2.o)
    0x080001a2   0x00000000   Code   RO         5558    .ARM.Collect$$libinit$$00000032  c_w.l(libinit2.o)
    0x080001a2   0x00000002   Code   RO         5559    .ARM.Collect$$libinit$$00000033  c_w.l(libinit2.o)
    0x080001a4   0x00000002   Code   RO         5579    .ARM.Collect$$libshutdown$$00000000  c_w.l(libshutdown.o)
    0x080001a6   0x00000000   Code   RO         5592    .ARM.Collect$$libshutdown$$00000002  c_w.l(libshutdown2.o)
    0x080001a6   0x00000000   Code   RO         5594    .ARM.Collect$$libshutdown$$00000004  c_w.l(libshutdown2.o)
    0x080001a6   0x00000000   Code   RO         5597    .ARM.Collect$$libshutdown$$00000007  c_w.l(libshutdown2.o)
    0x080001a6   0x00000000   Code   RO         5600    .ARM.Collect$$libshutdown$$0000000A  c_w.l(libshutdown2.o)
    0x080001a6   0x00000000   Code   RO         5602    .ARM.Collect$$libshutdown$$0000000C  c_w.l(libshutdown2.o)
    0x080001a6   0x00000000   Code   RO         5605    .ARM.Collect$$libshutdown$$0000000F  c_w.l(libshutdown2.o)
    0x080001a6   0x00000002   Code   RO         5606    .ARM.Collect$$libshutdown$$00000010  c_w.l(libshutdown2.o)
    0x080001a8   0x00000000   Code   RO         5411    .ARM.Collect$$rtentry$$00000000  c_w.l(__rtentry.o)
    0x080001a8   0x00000000   Code   RO         5469    .ARM.Collect$$rtentry$$00000002  c_w.l(__rtentry2.o)
    0x080001a8   0x00000006   Code   RO         5481    .ARM.Collect$$rtentry$$00000004  c_w.l(__rtentry4.o)
    0x080001ae   0x00000000   Code   RO         5471    .ARM.Collect$$rtentry$$00000009  c_w.l(__rtentry2.o)
    0x080001ae   0x00000004   Code   RO         5472    .ARM.Collect$$rtentry$$0000000A  c_w.l(__rtentry2.o)
    0x080001b2   0x00000000   Code   RO         5474    .ARM.Collect$$rtentry$$0000000C  c_w.l(__rtentry2.o)
    0x080001b2   0x00000008   Code   RO         5475    .ARM.Collect$$rtentry$$0000000D  c_w.l(__rtentry2.o)
    0x080001ba   0x00000002   Code   RO         5513    .ARM.Collect$$rtexit$$00000000  c_w.l(rtexit.o)
    0x080001bc   0x00000000   Code   RO         5561    .ARM.Collect$$rtexit$$00000002  c_w.l(rtexit2.o)
    0x080001bc   0x00000004   Code   RO         5562    .ARM.Collect$$rtexit$$00000003  c_w.l(rtexit2.o)
    0x080001c0   0x00000006   Code   RO         5563    .ARM.Collect$$rtexit$$00000004  c_w.l(rtexit2.o)
    0x080001c6   0x00000002   PAD
    0x080001c8   0x00000096   Code   RO         5244    .emb_text           port.o
    0x0800025e   0x00000002   PAD
    0x08000260   0x00000040   Code   RO            4    .text               startup_stm32f103xb.o
    0x080002a0   0x00000008   Code   RO         5325    .text               c_w.l(abs.o)
    0x080002a8   0x00000064   Code   RO         5329    .text               c_w.l(rt_memcpy_w.o)
    0x0800030c   0x00000044   Code   RO         5333    .text               c_w.l(rt_memclr.o)
    0x08000350   0x0000004e   Code   RO         5335    .text               c_w.l(rt_memclr_w.o)
    0x0800039e   0x00000006   Code   RO         5337    .text               c_w.l(heapauxi.o)
    0x080003a4   0x00000016   Code   RO         5412    .text               c_w.l(_rserrno.o)
    0x080003ba   0x00000002   PAD
    0x080003bc   0x00000008   Code   RO         5486    .text               c_w.l(rt_errno_addr_intlibspace.o)
    0x080003c4   0x00000008   Code   RO         5498    .text               c_w.l(libspace.o)
    0x080003cc   0x0000004a   Code   RO         5501    .text               c_w.l(sys_stackheap_outer.o)
    0x08000416   0x00000012   Code   RO         5503    .text               c_w.l(exit.o)
    0x08000428   0x0000000c   Code   RO         5571    .text               c_w.l(sys_exit.o)
    0x08000434   0x00000002   Code   RO         5582    .text               c_w.l(use_no_semi.o)
    0x08000436   0x00000000   Code   RO         5584    .text               c_w.l(indicate_semi.o)
    0x08000436   0x00000002   PAD
    0x08000438   0x00000056   Code   RO         1000    i.ADC_ConversionStop_Disable  stm32f1xx_hal_adc.o
    0x0800048e   0x00000002   PAD
    0x08000490   0x0000007c   Code   RO         1004    i.ADC_Enable        stm32f1xx_hal_adc.o
    0x0800050c   0x000000d0   Code   RO          147    i.AngleCalculate    control.o
    0x080005dc   0x00000002   Code   RO          852    i.BusFault_Handler  stm32f1xx_it.o
    0x080005de   0x00000002   PAD
    0x080005e0   0x00000048   Code   RO          193    i.ComplementaryFilter  filter.o
    0x08000628   0x0000000c   Code   RO          853    i.DMA1_Channel6_IRQHandler  stm32f1xx_it.o
    0x08000634   0x0000000c   Code   RO          854    i.DMA1_Channel7_IRQHandler  stm32f1xx_it.o
    0x08000640   0x0000002a   Code   RO         1654    i.DMA_SetConfig     stm32f1xx_hal_dma.o
    0x0800066a   0x00000002   Code   RO          855    i.DebugMon_Handler  stm32f1xx_it.o
    0x0800066c   0x00000004   Code   RO          396    i.Error_Handler     main.o
    0x08000670   0x000000fc   Code   RO         1006    i.HAL_ADC_ConfigChannel  stm32f1xx_hal_adc.o
    0x0800076c   0x00000006   Code   RO         1013    i.HAL_ADC_GetValue  stm32f1xx_hal_adc.o
    0x08000772   0x00000002   PAD
    0x08000774   0x0000011c   Code   RO         1015    i.HAL_ADC_Init      stm32f1xx_hal_adc.o
    0x08000890   0x00000088   Code   RO          617    i.HAL_ADC_MspInit   adc.o
    0x08000918   0x000000c0   Code   RO         1021    i.HAL_ADC_Start     stm32f1xx_hal_adc.o
    0x080009d8   0x00000046   Code   RO         1655    i.HAL_DMA_Abort     stm32f1xx_hal_dma.o
    0x08000a1e   0x00000002   PAD
    0x08000a20   0x00000098   Code   RO         1656    i.HAL_DMA_Abort_IT  stm32f1xx_hal_dma.o
    0x08000ab8   0x00000154   Code   RO         1660    i.HAL_DMA_IRQHandler  stm32f1xx_hal_dma.o
    0x08000c0c   0x0000005c   Code   RO         1661    i.HAL_DMA_Init      stm32f1xx_hal_dma.o
    0x08000c68   0x00000070   Code   RO         1665    i.HAL_DMA_Start_IT  stm32f1xx_hal_dma.o
    0x08000cd8   0x00000024   Code   RO         1283    i.HAL_Delay         stm32f1xx_hal.o
    0x08000cfc   0x000001e0   Code   RO         1591    i.HAL_GPIO_Init     stm32f1xx_hal_gpio.o
    0x08000edc   0x0000000a   Code   RO         1595    i.HAL_GPIO_WritePin  stm32f1xx_hal_gpio.o
    0x08000ee6   0x00000002   PAD
    0x08000ee8   0x0000000c   Code   RO         1287    i.HAL_GetTick       stm32f1xx_hal.o
    0x08000ef4   0x00000188   Code   RO         2262    i.HAL_I2C_Init      stm32f1xx_hal_i2c.o
    0x0800107c   0x00000250   Code   RO         2280    i.HAL_I2C_Mem_Read  stm32f1xx_hal_i2c.o
    0x080012cc   0x00000130   Code   RO         2283    i.HAL_I2C_Mem_Write  stm32f1xx_hal_i2c.o
    0x080013fc   0x00000060   Code   RO          689    i.HAL_I2C_MspInit   i2c.o
    0x0800145c   0x00000010   Code   RO         1293    i.HAL_IncTick       stm32f1xx_hal.o
    0x0800146c   0x00000024   Code   RO         1294    i.HAL_Init          stm32f1xx_hal.o
    0x08001490   0x00000040   Code   RO         1295    i.HAL_InitTick      stm32f1xx_hal.o
    0x080014d0   0x00000048   Code   RO          940    i.HAL_MspInit       stm32f1xx_hal_msp.o
    0x08001518   0x0000001a   Code   RO         1751    i.HAL_NVIC_EnableIRQ  stm32f1xx_hal_cortex.o
    0x08001532   0x00000002   PAD
    0x08001534   0x00000040   Code   RO         1757    i.HAL_NVIC_SetPriority  stm32f1xx_hal_cortex.o
    0x08001574   0x00000024   Code   RO         1758    i.HAL_NVIC_SetPriorityGrouping  stm32f1xx_hal_cortex.o
    0x08001598   0x00000024   Code   RO         1759    i.HAL_NVIC_SystemReset  stm32f1xx_hal_cortex.o
    0x080015bc   0x000000ec   Code   RO         1554    i.HAL_RCCEx_PeriphCLKConfig  stm32f1xx_hal_rcc_ex.o
    0x080016a8   0x0000012c   Code   RO         1451    i.HAL_RCC_ClockConfig  stm32f1xx_hal_rcc.o
    0x080017d4   0x00000020   Code   RO         1458    i.HAL_RCC_GetPCLK1Freq  stm32f1xx_hal_rcc.o
    0x080017f4   0x00000020   Code   RO         1459    i.HAL_RCC_GetPCLK2Freq  stm32f1xx_hal_rcc.o
    0x08001814   0x0000006c   Code   RO         1460    i.HAL_RCC_GetSysClockFreq  stm32f1xx_hal_rcc.o
    0x08001880   0x00000320   Code   RO         1463    i.HAL_RCC_OscConfig  stm32f1xx_hal_rcc.o
    0x08001ba0   0x00000028   Code   RO         1762    i.HAL_SYSTICK_Config  stm32f1xx_hal_cortex.o
    0x08001bc8   0x00000054   Code   RO         3392    i.HAL_TIMEx_ConfigBreakDeadTime  stm32f1xx_hal_tim_ex.o
    0x08001c1c   0x00000068   Code   RO         3408    i.HAL_TIMEx_MasterConfigSynchronization  stm32f1xx_hal_tim_ex.o
    0x08001c84   0x0000006c   Code   RO          730    i.HAL_TIM_MspPostInit  tim.o
    0x08001cf0   0x000000c6   Code   RO         2757    i.HAL_TIM_PWM_ConfigChannel  stm32f1xx_hal_tim.o
    0x08001db6   0x0000005a   Code   RO         2760    i.HAL_TIM_PWM_Init  stm32f1xx_hal_tim.o
    0x08001e10   0x00000040   Code   RO          732    i.HAL_TIM_PWM_MspInit  tim.o
    0x08001e50   0x0000009c   Code   RO         2765    i.HAL_TIM_PWM_Start  stm32f1xx_hal_tim.o
    0x08001eec   0x00000002   Code   RO         3667    i.HAL_UARTEx_RxEventCallback  stm32f1xx_hal_uart.o
    0x08001eee   0x00000058   Code   RO         3679    i.HAL_UART_DMAStop  stm32f1xx_hal_uart.o
    0x08001f46   0x00000002   Code   RO         3681    i.HAL_UART_ErrorCallback  stm32f1xx_hal_uart.o
    0x08001f48   0x0000020c   Code   RO         3684    i.HAL_UART_IRQHandler  stm32f1xx_hal_uart.o
    0x08002154   0x00000062   Code   RO         3685    i.HAL_UART_Init     stm32f1xx_hal_uart.o
    0x080021b6   0x00000002   PAD
    0x080021b8   0x0000013c   Code   RO          785    i.HAL_UART_MspInit  usart.o
    0x080022f4   0x0000002a   Code   RO         3689    i.HAL_UART_Receive_DMA  stm32f1xx_hal_uart.o
    0x0800231e   0x0000002a   Code   RO         3690    i.HAL_UART_Receive_IT  stm32f1xx_hal_uart.o
    0x08002348   0x00000438   Code   RO          786    i.HAL_UART_RxCpltCallback  usart.o
    0x08002780   0x00000002   Code   RO         3692    i.HAL_UART_RxHalfCpltCallback  stm32f1xx_hal_uart.o
    0x08002782   0x00000002   PAD
    0x08002784   0x000000b2   Code   RO         3693    i.HAL_UART_Transmit  stm32f1xx_hal_uart.o
    0x08002836   0x00000002   Code   RO         3696    i.HAL_UART_TxCpltCallback  stm32f1xx_hal_uart.o
    0x08002838   0x00000002   Code   RO          856    i.HardFault_Handler  stm32f1xx_it.o
    0x0800283a   0x0000002e   Code   RO         2304    i.I2C_IsAcknowledgeFailed  stm32f1xx_hal_i2c.o
    0x08002868   0x000000fc   Code   RO         2314    i.I2C_RequestMemoryRead  stm32f1xx_hal_i2c.o
    0x08002964   0x000000a8   Code   RO         2315    i.I2C_RequestMemoryWrite  stm32f1xx_hal_i2c.o
    0x08002a0c   0x0000004c   Code   RO         2319    i.I2C_WaitOnBTFFlagUntilTimeout  stm32f1xx_hal_i2c.o
    0x08002a58   0x00000068   Code   RO         2320    i.I2C_WaitOnFlagUntilTimeout  stm32f1xx_hal_i2c.o
    0x08002ac0   0x00000096   Code   RO         2321    i.I2C_WaitOnMasterAddressFlagUntilTimeout  stm32f1xx_hal_i2c.o
    0x08002b56   0x00000066   Code   RO         2322    i.I2C_WaitOnRXNEFlagUntilTimeout  stm32f1xx_hal_i2c.o
    0x08002bbc   0x0000004c   Code   RO         2323    i.I2C_WaitOnTXEFlagUntilTimeout  stm32f1xx_hal_i2c.o
    0x08002c08   0x00000032   Code   RO          211    i.MPU_Get_Accelerometer  mpu6050.o
    0x08002c3a   0x00000032   Code   RO          212    i.MPU_Get_Gyroscope  mpu6050.o
    0x08002c6c   0x00000072   Code   RO          214    i.MPU_Init          mpu6050.o
    0x08002cde   0x00000002   PAD
    0x08002ce0   0x0000002c   Code   RO          215    i.MPU_Read_Byte     mpu6050.o
    0x08002d0c   0x00000024   Code   RO          216    i.MPU_Read_Len      mpu6050.o
    0x08002d30   0x0000000a   Code   RO          217    i.MPU_Set_Accel_Fsr  mpu6050.o
    0x08002d3a   0x0000000a   Code   RO          218    i.MPU_Set_Gyro_Fsr  mpu6050.o
    0x08002d44   0x00000030   Code   RO          219    i.MPU_Set_LPF       mpu6050.o
    0x08002d74   0x0000002e   Code   RO          220    i.MPU_Set_Rate      mpu6050.o
    0x08002da2   0x00000002   PAD
    0x08002da4   0x00000028   Code   RO          221    i.MPU_Write_Byte    mpu6050.o
    0x08002dcc   0x0000004c   Code   RO          618    i.MX_ADC1_Init      adc.o
    0x08002e18   0x0000004c   Code   RO          619    i.MX_ADC2_Init      adc.o
    0x08002e64   0x0000003c   Code   RO          664    i.MX_DMA_Init       dma.o
    0x08002ea0   0x00000068   Code   RO          521    i.MX_FREERTOS_Init  freertos.o
    0x08002f08   0x00000080   Code   RO          497    i.MX_GPIO_Init      gpio.o
    0x08002f88   0x00000040   Code   RO          690    i.MX_I2C2_Init      i2c.o
    0x08002fc8   0x000000b0   Code   RO          733    i.MX_TIM1_Init      tim.o
    0x08003078   0x00000070   Code   RO          734    i.MX_TIM3_Init      tim.o
    0x080030e8   0x00000044   Code   RO          787    i.MX_USART1_UART_Init  usart.o
    0x0800312c   0x00000050   Code   RO          788    i.MX_USART2_UART_Init  usart.o
    0x0800317c   0x00000002   Code   RO          857    i.MemManage_Handler  stm32f1xx_it.o
    0x0800317e   0x00000002   Code   RO          858    i.NMI_Handler       stm32f1xx_it.o
    0x08003180   0x000000d8   Code   RO          301    i.ShuiWeiSensor_Get_Val  sharp.o
    0x08003258   0x00000002   Code   RO          522    i.StartDefaultTask  freertos.o
    0x0800325a   0x00000018   Code   RO          859    i.SysTick_Handler   stm32f1xx_it.o
    0x08003272   0x00000076   Code   RO          397    i.SystemClock_Config  main.o
    0x080032e8   0x00000002   Code   RO         4014    i.SystemInit        system_stm32f1xx.o
    0x080032ea   0x00000002   PAD
    0x080032ec   0x000000b0   Code   RO          523    i.System_Reset      freertos.o
    0x0800339c   0x0000006c   Code   RO         2778    i.TIM_Base_SetConfig  stm32f1xx_hal_tim.o
    0x08003408   0x0000001a   Code   RO         2779    i.TIM_CCxChannelCmd  stm32f1xx_hal_tim.o
    0x08003422   0x00000002   PAD
    0x08003424   0x00000050   Code   RO         2791    i.TIM_OC1_SetConfig  stm32f1xx_hal_tim.o
    0x08003474   0x00000058   Code   RO         2792    i.TIM_OC2_SetConfig  stm32f1xx_hal_tim.o
    0x080034cc   0x00000058   Code   RO         2793    i.TIM_OC3_SetConfig  stm32f1xx_hal_tim.o
    0x08003524   0x00000044   Code   RO         2794    i.TIM_OC4_SetConfig  stm32f1xx_hal_tim.o
    0x08003568   0x00000010   Code   RO         3698    i.UART_DMAAbortOnError  stm32f1xx_hal_uart.o
    0x08003578   0x0000004a   Code   RO         3699    i.UART_DMAError     stm32f1xx_hal_uart.o
    0x080035c2   0x0000005a   Code   RO         3700    i.UART_DMAReceiveCplt  stm32f1xx_hal_uart.o
    0x0800361c   0x0000001a   Code   RO         3702    i.UART_DMARxHalfCplt  stm32f1xx_hal_uart.o
    0x08003636   0x00000030   Code   RO         3708    i.UART_EndRxTransfer  stm32f1xx_hal_uart.o
    0x08003666   0x00000012   Code   RO         3709    i.UART_EndTxTransfer  stm32f1xx_hal_uart.o
    0x08003678   0x000000b6   Code   RO         3710    i.UART_Receive_IT   stm32f1xx_hal_uart.o
    0x0800372e   0x00000002   PAD
    0x08003730   0x000000b8   Code   RO         3711    i.UART_SetConfig    stm32f1xx_hal_uart.o
    0x080037e8   0x00000070   Code   RO         3712    i.UART_Start_Receive_DMA  stm32f1xx_hal_uart.o
    0x08003858   0x00000036   Code   RO         3713    i.UART_Start_Receive_IT  stm32f1xx_hal_uart.o
    0x0800388e   0x00000064   Code   RO         3714    i.UART_WaitOnFlagUntilTimeout  stm32f1xx_hal_uart.o
    0x080038f2   0x00000002   PAD
    0x080038f4   0x0000000c   Code   RO          860    i.USART1_IRQHandler  stm32f1xx_it.o
    0x08003900   0x00000048   Code   RO          861    i.USART2_IRQHandler  stm32f1xx_it.o
    0x08003948   0x00000002   Code   RO          862    i.UsageFault_Handler  stm32f1xx_it.o
    0x0800394a   0x00000028   Code   RO         5494    i.__ARM_fpclassify  m_ws.l(fpclassify.o)
    0x08003972   0x00000020   Code   RO         1764    i.__NVIC_SetPriority  stm32f1xx_hal_cortex.o
    0x08003992   0x00000002   PAD
    0x08003994   0x00000388   Code   RO         5457    i.__ieee754_rem_pio2  m_ws.l(rred.o)
    0x08003d1c   0x000000fc   Code   RO         5439    i.__kernel_cos      m_ws.l(cos_i.o)
    0x08003e18   0x000000aa   Code   RO         5496    i.__kernel_poly     m_ws.l(poly.o)
    0x08003ec2   0x00000002   PAD
    0x08003ec4   0x000000ec   Code   RO         5462    i.__kernel_sin      m_ws.l(sin_i.o)
    0x08003fb0   0x00000006   Code   RO         5443    i.__mathlib_dbl_infnan  m_ws.l(dunder.o)
    0x08003fb6   0x00000004   Code   RO         5444    i.__mathlib_dbl_infnan2  m_ws.l(dunder.o)
    0x08003fba   0x0000000c   Code   RO         5445    i.__mathlib_dbl_invalid  m_ws.l(dunder.o)
    0x08003fc6   0x00000002   PAD
    0x08003fc8   0x00000010   Code   RO         5448    i.__mathlib_dbl_underflow  m_ws.l(dunder.o)
    0x08003fd8   0x00000220   Code   RO         5430    i.atan              m_ws.l(atan.o)
    0x080041f8   0x00000180   Code   RO         5396    i.atan2             m_ws.l(atan2.o)
    0x08004378   0x00000050   Code   RO          335    i.calCPG_angle      cpg.o
    0x080043c8   0x00000020   Code   RO          336    i.calCPG_b          cpg.o
    0x080043e8   0x0000008c   Code   RO          337    i.calCPG_db         cpg.o
    0x08004474   0x0000008c   Code   RO          338    i.calCPG_dm         cpg.o
    0x08004500   0x00000080   Code   RO          339    i.calCPG_fi         cpg.o
    0x08004580   0x00000020   Code   RO          340    i.calCPG_m          cpg.o
    0x080045a0   0x000000ac   Code   RO          398    i.main              main.o
    0x0800464c   0x0000000c   Code   RO         4816    i.makeFreeRtosPriority  cmsis_os.o
    0x08004658   0x000002cc   Code   RO          524    i.mpu1task          freertos.o
    0x08004924   0x0000000a   Code   RO         4821    i.osKernelStart     cmsis_os.o
    0x0800492e   0x00000054   Code   RO         4855    i.osThreadCreate    cmsis_os.o
    0x08004982   0x00000002   PAD
    0x08004984   0x00000070   Code   RO         4507    i.prvAddCurrentTaskToDelayedList  tasks.o
    0x080049f4   0x000000d0   Code   RO         4508    i.prvAddNewTaskToReadyList  tasks.o
    0x08004ac4   0x00000034   Code   RO         4509    i.prvDeleteTCB      tasks.o
    0x08004af8   0x0000004c   Code   RO         5183    i.prvHeapInit       heap_4.o
    0x08004b44   0x00000060   Code   RO         4510    i.prvIdleTask       tasks.o
    0x08004ba4   0x0000008e   Code   RO         4511    i.prvInitialiseNewTask  tasks.o
    0x08004c32   0x00000002   PAD
    0x08004c34   0x0000004c   Code   RO         5184    i.prvInsertBlockIntoFreeList  heap_4.o
    0x08004c80   0x00000020   Code   RO         4512    i.prvResetNextTaskUnblockTime  tasks.o
    0x08004ca0   0x00000028   Code   RO         5245    i.prvTaskExitError  port.o
    0x08004cc8   0x000000d8   Code   RO         5185    i.pvPortMalloc      heap_4.o
    0x08004da0   0x00000024   Code   RO         5246    i.pxPortInitialiseStack  port.o
    0x08004dc4   0x00000590   Code   RO          525    i.servotask         freertos.o
    0x08005354   0x00000084   Code   RO           14    i.set_angle         bottom.o
    0x080053d8   0x00000020   Code   RO          341    i.sign              cpg.o
    0x080053f8   0x000000a0   Code   RO         5404    i.sin               m_ws.l(sin.o)
    0x08005498   0x00000008   Code   RO          789    i.typetransform     usart.o
    0x080054a0   0x00000026   Code   RO         4152    i.uxListRemove      list.o
    0x080054c6   0x00000002   PAD
    0x080054c8   0x00000014   Code   RO          526    i.vApplicationGetIdleTaskMemory  freertos.o
    0x080054dc   0x00000016   Code   RO         4153    i.vListInitialise   list.o
    0x080054f2   0x00000006   Code   RO         4154    i.vListInitialiseItem  list.o
    0x080054f8   0x00000030   Code   RO         4155    i.vListInsert       list.o
    0x08005528   0x00000018   Code   RO         4156    i.vListInsertEnd    list.o
    0x08005540   0x00000040   Code   RO         5248    i.vPortEnterCritical  port.o
    0x08005580   0x00000028   Code   RO         5249    i.vPortExitCritical  port.o
    0x080055a8   0x0000005c   Code   RO         5186    i.vPortFree         heap_4.o
    0x08005604   0x00000024   Code   RO         5250    i.vPortSetupTimerInterrupt  port.o
    0x08005628   0x0000008c   Code   RO         4521    i.vTaskDelayUntil   tasks.o
    0x080056b4   0x0000006c   Code   RO         4534    i.vTaskStartScheduler  tasks.o
    0x08005720   0x00000010   Code   RO         4536    i.vTaskSuspendAll   tasks.o
    0x08005730   0x0000005c   Code   RO         4537    i.vTaskSwitchContext  tasks.o
    0x0800578c   0x000000a8   Code   RO         5252    i.xPortStartScheduler  port.o
    0x08005834   0x0000002c   Code   RO         5253    i.xPortSysTickHandler  port.o
    0x08005860   0x0000005a   Code   RO         4539    i.xTaskCreate       tasks.o
    0x080058ba   0x00000056   Code   RO         4540    i.xTaskCreateStatic  tasks.o
    0x08005910   0x0000001c   Code   RO         4544    i.xTaskGetSchedulerState  tasks.o
    0x0800592c   0x0000000c   Code   RO         4545    i.xTaskGetTickCount  tasks.o
    0x08005938   0x000000c8   Code   RO         4547    i.xTaskIncrementTick  tasks.o
    0x08005a00   0x000000c4   Code   RO         4553    i.xTaskResumeAll    tasks.o
    0x08005ac4   0x00000062   Code   RO         5341    x$fpl$d2f           fz_ws.l(d2f.o)
    0x08005b26   0x00000002   PAD
    0x08005b28   0x00000150   Code   RO         5343    x$fpl$dadd          fz_ws.l(daddsub_clz.o)
    0x08005c78   0x00000010   Code   RO         5414    x$fpl$dcheck1       fz_ws.l(dcheck1.o)
    0x08005c88   0x000002b0   Code   RO         5350    x$fpl$ddiv          fz_ws.l(ddiv.o)
    0x08005f38   0x0000005e   Code   RO         5488    x$fpl$dfix          fz_ws.l(dfix.o)
    0x08005f96   0x0000002e   Code   RO         5354    x$fpl$dflt          fz_ws.l(dflt_clz.o)
    0x08005fc4   0x00000026   Code   RO         5353    x$fpl$dfltu         fz_ws.l(dflt_clz.o)
    0x08005fea   0x00000002   PAD
    0x08005fec   0x00000154   Code   RO         5359    x$fpl$dmul          fz_ws.l(dmul.o)
    0x08006140   0x0000009c   Code   RO         5416    x$fpl$dnaninf       fz_ws.l(dnaninf.o)
    0x080061dc   0x0000000c   Code   RO         5418    x$fpl$dretinf       fz_ws.l(dretinf.o)
    0x080061e8   0x00000016   Code   RO         5344    x$fpl$drsb          fz_ws.l(daddsub_clz.o)
    0x080061fe   0x00000002   PAD
    0x08006200   0x000001d4   Code   RO         5345    x$fpl$dsub          fz_ws.l(daddsub_clz.o)
    0x080063d4   0x00000056   Code   RO         5361    x$fpl$f2d           fz_ws.l(f2d.o)
    0x0800642a   0x00000002   PAD
    0x0800642c   0x000000c4   Code   RO         5363    x$fpl$fadd          fz_ws.l(faddsub_clz.o)
    0x080064f0   0x0000000c   Code   RO         5420    x$fpl$fcheck1       fz_ws.l(fcheck1.o)
    0x080064fc   0x00000018   Code   RO         5422    x$fpl$fcmpinf       fz_ws.l(fcmpi.o)
    0x08006514   0x00000184   Code   RO         5370    x$fpl$fdiv          fz_ws.l(fdiv.o)
    0x08006698   0x00000036   Code   RO         5373    x$fpl$ffix          fz_ws.l(ffix.o)
    0x080066ce   0x00000002   PAD
    0x080066d0   0x0000003e   Code   RO         5377    x$fpl$ffixu         fz_ws.l(ffixu.o)
    0x0800670e   0x00000002   PAD
    0x08006710   0x00000026   Code   RO         5381    x$fpl$ffltu         fz_ws.l(fflt_clz.o)
    0x08006736   0x00000002   PAD
    0x08006738   0x00000068   Code   RO         5387    x$fpl$fleqf         fz_ws.l(fleqf.o)
    0x080067a0   0x00000102   Code   RO         5389    x$fpl$fmul          fz_ws.l(fmul.o)
    0x080068a2   0x0000008c   Code   RO         5424    x$fpl$fnaninf       fz_ws.l(fnaninf.o)
    0x0800692e   0x0000000a   Code   RO         5426    x$fpl$fretinf       fz_ws.l(fretinf.o)
    0x08006938   0x00000014   Code   RO         5364    x$fpl$frsb          fz_ws.l(faddsub_clz.o)
    0x0800694c   0x000000ea   Code   RO         5365    x$fpl$fsub          fz_ws.l(faddsub_clz.o)
    0x08006a36   0x00000064   Code   RO         5492    x$fpl$retnan        fz_ws.l(retnan.o)
    0x08006a9a   0x0000005c   Code   RO         5391    x$fpl$scalbn        fz_ws.l(scalbn.o)
    0x08006af6   0x0000004c   Code   RO         5393    x$fpl$scalbnf       fz_ws.l(scalbnf.o)
    0x08006b42   0x00000030   Code   RO         5511    x$fpl$trapveneer    fz_ws.l(trapv.o)
    0x08006b72   0x00000000   Code   RO         5428    x$fpl$usenofp       fz_ws.l(usenofp.o)
    0x08006b72   0x00000002   PAD
    0x08006b74   0x00000070   Data   RO          528    .constdata          freertos.o
    0x08006be4   0x00000010   Data   RO         4015    .constdata          system_stm32f1xx.o
    0x08006bf4   0x00000008   Data   RO         4016    .constdata          system_stm32f1xx.o
    0x08006bfc   0x00000004   PAD
    0x08006c00   0x00000098   Data   RO         5431    .constdata          m_ws.l(atan.o)
    0x08006c98   0x00000030   Data   RO         5440    .constdata          m_ws.l(cos_i.o)
    0x08006cc8   0x00000008   Data   RO         5456    .constdata          m_ws.l(qnan.o)
    0x08006cd0   0x000000c8   Data   RO         5459    .constdata          m_ws.l(rred.o)
    0x08006d98   0x00000028   Data   RO         5463    .constdata          m_ws.l(sin_i.o)
    0x08006dc0   0x00000025   Data   RO          529    .conststring        freertos.o
    0x08006de5   0x00000003   PAD
    0x08006de8   0x00000020   Data   RO         5637    Region$$Table       anon$$obj.o


    Execution Region RW_IRAM1 (Base: 0x20000000, Size: 0x00001b88, Max: 0x00005000, ABSOLUTE, COMPRESSED[0x00000034])

    Base Addr    Size         Type   Attr      Idx    E Section Name        Object

    0x20000000   0x00000018   Data   RW          149    .data               control.o
    0x20000018   0x00000008   Data   RW          194    .data               filter.o
    0x20000020   0x0000000c   Data   RW          342    .data               cpg.o
    0x2000002c   0x0000018c   Data   RW          531    .data               freertos.o
    0x200001b8   0x00000002   Data   RW          791    .data               usart.o
    0x200001ba   0x00000001   Data   RW          792    .data               usart.o
    0x200001bb   0x00000001   Data   RW          793    .data               usart.o
    0x200001bc   0x0000000c   Data   RW         1301    .data               stm32f1xx_hal.o
    0x200001c8   0x00000004   Data   RW         4017    .data               system_stm32f1xx.o
    0x200001cc   0x0000003c   Data   RW         4556    .data               tasks.o
    0x20000208   0x00000018   Data   RW         5191    .data               heap_4.o
    0x20000220   0x0000000c   Data   RW         5254    .data               port.o
    0x2000022c   0x00000254   Zero   RW          527    .bss                freertos.o
    0x20000480   0x00000060   Zero   RW          620    .bss                adc.o
    0x200004e0   0x00000054   Zero   RW          691    .bss                i2c.o
    0x20000534   0x00000090   Zero   RW          735    .bss                tim.o
    0x200005c4   0x00000274   Zero   RW          790    .bss                usart.o
    0x20000838   0x000000f0   Zero   RW         4555    .bss                tasks.o
    0x20000928   0x00000c00   Zero   RW         5190    .bss                heap_4.o
    0x20001528   0x00000060   Zero   RW         5499    .bss                c_w.l(libspace.o)
    0x20001588   0x00000200   Zero   RW            2    HEAP                startup_stm32f103xb.o
    0x20001788   0x00000400   Zero   RW            1    STACK               startup_stm32f103xb.o


==============================================================================

Image component sizes


      Code (inc. data)   RO Data    RW Data    ZI Data      Debug   Object Name

       288         34          0          0         96       2150   adc.o
       132         30          0          0          0     448812   bottom.o
       106          0          0          0          0      21515   cmsis_os.o
       208         40          0         24          0       2760   control.o
       584         28          0         12          0       4230   cpg.o
        60          4          0          0          0        710   dma.o
         0          0          0          0          0      18076   event_groups.o
        72         14          0          8          0        764   filter.o
      2442        118        149        396        596      11934   freertos.o
       128          8          0          0          0        891   gpio.o
       460         24          0         24       3072       7035   heap_4.o
       160         28          0          0         84       1517   i2c.o
       138          0          0          0          0       3222   list.o
       294         14          0          0          0      32708   main.o
       448         14          0          0          0       5671   mpu6050.o
       578         60          0         12          0      10036   port.o
       216         42          0          0          0        672   sharp.o
        64         26        236          0       1536        784   startup_stm32f103xb.o
       164         28          0         12          0       5677   stm32f1xx_hal.o
       944         42          0          0          0       5212   stm32f1xx_hal_adc.o
       234         24          0          0          0      29318   stm32f1xx_hal_cortex.o
       808         36          0          0          0       4790   stm32f1xx_hal_dma.o
       490         34          0          0          0       2808   stm32f1xx_hal_gpio.o
      2262         56          0          0          0      12422   stm32f1xx_hal_i2c.o
        72         10          0          0          0        814   stm32f1xx_hal_msp.o
      1272        100          0          0          0       5020   stm32f1xx_hal_rcc.o
       236         12          0          0          0       1324   stm32f1xx_hal_rcc_ex.o
       902         46          0          0          0       7538   stm32f1xx_hal_tim.o
       188         12          0          0          0       2028   stm32f1xx_hal_tim_ex.o
      1884         24          0          0          0      14913   stm32f1xx_hal_uart.o
       144         34          0          0          0       5165   stm32f1xx_it.o
         0          0          0          0          0        392   stream_buffer.o
         2          0         24          4          0       1035   system_stm32f1xx.o
      1610        120          0         60        240      17108   tasks.o
       460         46          0          0        144       2860   tim.o
      1552        128          0          4        628       4761   usart.o

    ----------------------------------------------------------------------
     19640       1236        448        556       6396     696672   Object Totals
         0          0         32          0          0          0   (incl. Generated)
        38          0          7          0          0          0   (incl. Padding)

    ----------------------------------------------------------------------

      Code (inc. data)   RO Data    RW Data    ZI Data      Debug   Library Member Name

        90          0          0          0          0          0   __dczerorl2.o
         8          0          0          0          0         68   __main.o
         0          0          0          0          0          0   __rtentry.o
        12          0          0          0          0          0   __rtentry2.o
         6          0          0          0          0          0   __rtentry4.o
        52          8          0          0          0          0   __scatter.o
        28          0          0          0          0          0   __scatter_zi.o
        22          0          0          0          0        100   _rserrno.o
         8          0          0          0          0         68   abs.o
        18          0          0          0          0         80   exit.o
         6          0          0          0          0        152   heapauxi.o
         0          0          0          0          0          0   indicate_semi.o
         2          0          0          0          0          0   libinit.o
         2          0          0          0          0          0   libinit2.o
         2          0          0          0          0          0   libshutdown.o
         2          0          0          0          0          0   libshutdown2.o
         8          4          0          0         96         68   libspace.o
         8          4          0          0          0         68   rt_errno_addr_intlibspace.o
        68          0          0          0          0         68   rt_memclr.o
        78          0          0          0          0         80   rt_memclr_w.o
       100          0          0          0          0         80   rt_memcpy_w.o
         2          0          0          0          0          0   rtexit.o
        10          0          0          0          0          0   rtexit2.o
        12          4          0          0          0         68   sys_exit.o
        74          0          0          0          0         80   sys_stackheap_outer.o
         2          0          0          0          0         68   use_no_semi.o
        98          4          0          0          0         92   d2f.o
       826         16          0          0          0        348   daddsub_clz.o
        16          4          0          0          0         68   dcheck1.o
       688        140          0          0          0        208   ddiv.o
        94          4          0          0          0         92   dfix.o
        84          0          0          0          0        136   dflt_clz.o
       340         12          0          0          0        104   dmul.o
       156          4          0          0          0         92   dnaninf.o
        12          0          0          0          0         68   dretinf.o
        86          4          0          0          0         84   f2d.o
       450          8          0          0          0        236   faddsub_clz.o
        12          4          0          0          0         68   fcheck1.o
        24          0          0          0          0         68   fcmpi.o
       388         76          0          0          0         96   fdiv.o
        54          4          0          0          0         84   ffix.o
        62          4          0          0          0         84   ffixu.o
        38          0          0          0          0         68   fflt_clz.o
       104          4          0          0          0         84   fleqf.o
       258          4          0          0          0         84   fmul.o
       140          4          0          0          0         84   fnaninf.o
        10          0          0          0          0         68   fretinf.o
       100          0          0          0          0         68   retnan.o
        92          0          0          0          0         68   scalbn.o
        76          0          0          0          0         68   scalbnf.o
        48          0          0          0          0         68   trapv.o
         0          0          0          0          0          0   usenofp.o
       544         70        152          0          0        124   atan.o
       384         38          0          0          0        144   atan2.o
       252         22         48          0          0        124   cos_i.o
        38          6          0          0          0        272   dunder.o
        40          0          0          0          0         68   fpclassify.o
       170          0          0          0          0         96   poly.o
         0          0          8          0          0          0   qnan.o
       904         76        200          0          0        140   rred.o
       160         10          0          0          0        108   sin.o
       236         12         40          0          0        128   sin_i.o

    ----------------------------------------------------------------------
      7632        550        448          0         96       4840   Library Totals
        28          0          0          0          0          0   (incl. Padding)

    ----------------------------------------------------------------------

      Code (inc. data)   RO Data    RW Data    ZI Data      Debug   Library Name

       620         20          0          0         96       1048   c_w.l
      4256        296          0          0          0       2588   fz_ws.l
      2728        234        448          0          0       1204   m_ws.l

    ----------------------------------------------------------------------
      7632        550        448          0         96       4840   Library Totals

    ----------------------------------------------------------------------

==============================================================================


      Code (inc. data)   RO Data    RW Data    ZI Data      Debug   

     27272       1786        896        556       6492     690328   Grand Totals
     27272       1786        896         52       6492     690328   ELF Image Totals (compressed)
     27272       1786        896         52          0          0   ROM Totals

==============================================================================

    Total RO  Size (Code + RO Data)                28168 (  27.51kB)
    Total RW  Size (RW Data + ZI Data)              7048 (   6.88kB)
    Total ROM Size (Code + RO Data + RW Data)      28220 (  27.56kB)

==============================================================================

