:020000040800F2
:10000000881B0020610200087F31000839280008A1
:100010007D310008DD0500084939000800000000B6
:10002000000000000000000000000000C9010008FE
:100030006B060008000000000D0200085B3200089B
:100040007B0200087B0200087B0200087B0200089C
:100050007B0200087B0200087B0200087B0200088C
:100060007B0200087B0200087B0200087B0200087C
:100070007B0200087B0200087B0200087B0200086C
:1000800029060008350600087B0200087B020008EC
:100090007B0200087B0200087B0200087B0200084C
:1000A0007B0200087B0200087B0200087B0200083C
:1000B0007B0200087B0200087B0200087B0200082C
:1000C0007B0200087B0200087B0200087B0200081C
:1000D0007B020008F5380008013900087B0200089F
:1000E0007B0200087B0200087B02000800F002F897
:1000F00000F05AF80AA090E8000C82448344AAF168
:100100000107DA4501D100F04FF8AFF2090EBAE865
:100110000F0013F0010F18BFFB1A43F0010318473B
:10012000C86C0000E86C00000A444FF0000C10F8A6
:10013000013B13F0070408BF10F8014B1D1108BF65
:1001400010F8015B641E05D010F8016B641E01F805
:10015000016BF9D113F0080F1EBF10F8014BAD1C55
:100160000C1B09D16D1E58BF01F801CBFAD505E073
:1001700014F8016B01F8016B6D1EF9D59142D6D3CD
:10018000704700000023002400250026103A28BFF5
:1001900078C1FBD8520728BF30C148BF0B607047F9
:1001A0001FB51FBD10B510BD00F010F91146FFF7C7
:1001B000F7FF04F0F5F900F02EF903B4FFF7F2FFB2
:1001C00003BC00F031F90000224B19680868B0E860
:1001D000F00F80F30988BFF36F8F4FF0000080F3BA
:1001E00011884EF00D0E70470000000006480068B0
:1001F000006880F3088862B661B6BFF34F8FBFF323
:100200006F8F00DF00BF00BF08ED00E0EFF3098053
:10021000BFF36F8F0F4B1A6820E9F00F106008B51D
:100220004FF0500080F31188BFF34F8FBFF36F8FF3
:1002300005F07EFA4FF0000080F31188BDE8084019
:1002400019680868B0E8F00F80F30988BFF36F8F72
:10025000704700BFCC010020EFF30580704700001D
:100260000948804709480047FEE7FEE7FEE7FEE74A
:10027000FEE7FEE7FEE7FEE7FEE7FEE70448054986
:10028000054A064B70470000E9320008ED000008FF
:1002900088150020881B0020881700208817002060
:1002A000002800DA4042704710B5203AC0F00B80B9
:1002B000B1E81850203AA0E81850B1E81850A0E86A
:1002C0001850BFF4F5AF5FEA027C24BFB1E81850C4
:1002D000A0E8185044BF18C918C0BDE810405FEA34
:1002E000827C24BF51F8043B40F8043B08BF7047B0
:1002F000D20728BF31F8023B48BF11F8012B28BFB5
:1003000020F8023B48BF00F8012B70474FF0000275
:100310000429C0F0128010F0030C00F01B80CCF117
:10032000040CBCF1020F18BF00F8012BA8BF20F885
:10033000022BA1EB0C0100F00DB85FEAC17C24BFD9
:1003400000F8012B00F8012B48BF00F8012B704783
:100350004FF0000200B5134694469646203922BF5E
:10036000A0E80C50A0E80C50B1F12001BFF4F7AFA9
:10037000090728BFA0E80C5048BF0CC05DF804EB8B
:10038000890028BF40F8042B08BF704748BF20F8F9
:10039000022B11F0804F18BF00F8012B70477047F7
:1003A0007047704710B500F009F8006810BD10B52F
:1003B000044600F003F8046010BD000000487047D8
:1003C0002815002000487047281500207546FFF7C3
:1003D000F9FFAE4605006946534620F00700854602
:1003E00018B020B5FFF74AFFBDE820404FF00006E7
:1003F0004FF000074FF000084FF0000B21F007010D
:10040000AC46ACE8C009ACE8C009ACE8C009ACE84F
:10041000C0098D46704710B50446AFF300802046F2
:10042000BDE81040FFF7C9BE01491820ABBEFEE78A
:10043000260002007047000070B50446006881681D
:10044000C943C90717D1816821F00101816000F01B
:100450004BFD05460AE000BF00F046FD401B0228A8
:1004600004D920688068C043C00706D0206880682F
:10047000C043C007F0D0002070BDA06A40F010005B
:10048000A062E06A40F00100E062012070BD00005F
:10049000F8B500260446009600688168C943C9077C
:1004A0002DD0816841F0010181601648164900682D
:1004B000B0FBF1F000E0401E00900028FBD100F0FE
:1004C00013FD054616E000BF00F00EFD401B02289C
:1004D00010D920688068C043C0070BD0A06A40F0E4
:1004E0001000A062E06A40F00100E06284F824603D
:1004F0000120F8BD20688068C043C007E4D1002017
:10050000F8BD0000C801002040420F002DE9F04175
:100510002848B0F9000005F03EFD6FF00D052A46B1
:1005200006F0BBFA05F0CEFA234C0646606023487D
:10053000B0F9000005F02FFD2A4606F0AEFA05F0EE
:10054000C1FAA0601E48B0F9000005F024FD2A465B
:1005500006F0A3FA05F0B6FAE06005F03BFF0746A7
:100560000D46304605F036FF3A462B4603F044FE72
:100570000022144B05F03AFD134A144B05F084FB9E
:1005800005F0A0FA054620611148B0F9000005F019
:1005900002FD4FF066320F4B05F076FB05F092FA44
:1005A000606101462846226800F01AF80A4908608E
:1005B000BDE8F0812C000020000000202E0000206B
:1005C00030000020008066401F85EB51B81E0940B6
:1005D0003200002066663040FC000020FEE700008C
:1005E0002DE9F04117460E4C88460E4A0B4E014647
:1005F0001046666006F0D4F805463946404606F0D7
:10060000CFF8216805F012FF314606F0C9F82946F7
:1006100005F00CFF2060BDE8F081000048E17A3F62
:100620001800002000D7A33C014800F045BA0000A4
:10063000B0070020014800F03FBA0000F407002096
:1006400030B590F840500124AC40C56B6C60046834
:1006500063604368102B036803D099600068C26030
:1006600030BD9A600068C16030BD704772B6FEE769
:10067000F8B50024009490F824202546012A12D0D1
:10068000012280F824204A681F23072A0DD2066819
:10069000776B521E02EB820293409F430B6893409C
:1006A0001F43776319E00220F8BD06680D2A0AD2BD
:1006B000376BD21F02EB820293409F430B6893403B
:1006C0001F43376309E0F76A0D3A02EB8202934059
:1006D0009F430B6893401F43F7620A68072306682D
:1006E0000A2A0AD3F7680A3A02EB420293409F4370
:1006F0008B6893401F43F76008E0376902EB4202C2
:1007000093409F438B6893401F4337610A68102AC8
:1007100001D0112A20D1124B02689A4217D1936856
:100720001B0219D4936843F40003936009681029ED
:1007300012D10C490C4A0968B1FBF2F101EB8101BD
:10074000490000E0491E00910029FBD104E0816AC4
:1007500041F020018162012480F824502046F8BD38
:1007600000240140C801002040420F000068C06C16
:10077000704700002DE9F0414FF0000704003D46AE
:100780007ED0A06A002628B9E66284F8246020465C
:1007900000F07EF82046FFF74FFEA16AC90600D49C
:1007A00020B1A06A40F01000A06269E0A16A21F4C3
:1007B000885141F00201A1626268E169237B0A432A
:1007C00047EA43010A43A1684FF48077B94209D050
:1007D000012907D05FF0000194F814C0BCF1010FAB
:1007E00002D00AE03946F7E7F3B1A36A43F02003E9
:1007F000A362E36A43F00103E3622368D3F804C011
:100800002CF4694C4CEA010CC3F804C021688B68D5
:10081000DFF870C003EA0C0313438B60A168B94290
:100820000BD0012909D00CE0DFF85CC0A3690CEB08
:1008300043330B4343F40061DFE7218A0D05A5F53F
:1008400080152168CB6A23F470032B43CB622168A7
:1008500089680E4B1940914208D1E662A16A21F0E5
:10086000020141F00101A162BDE8F081A06A20F01F
:10087000020040F01000A062E06A40F00100E06277
:100880000120F1E7FDF7E1FF00E0FFFFFE0E1FFF93
:1008900010B586B0002100910191029103911A4C8C
:1008A00003681A4903221A48A34211D18B6943F401
:1008B00000738B618B6903F4007304938B6943F0BD
:1008C00004038B61896901F004010491012113E0A3
:1008D000104CA34215D18B6943F480638B618B6903
:1008E00003F4806304938B6943F004038B6189698B
:1008F00001F0040104910221CDE90012694600F0E3
:10090000FDF906B010BD00000024014000100240B7
:10091000000801400028014070B5044690F824000A
:1009200001280DD0012084F824002046FFF7B0FDF7
:1009300002004FF0000005D084F82400104670BD7E
:10094000022070BDA16A40F20123994341F48071F5
:10095000A1621F4D23681F49AB4218D10E6816F4DF
:10096000702F14D0A66A46F48016A6620E6876052B
:1009700005D5A66A26F4005646F48056A662A66AF5
:10098000F6040AD5E66A26F00606E66206E0A66ADE
:1009900026F48016A6625E68E9E7E06284F8240027
:1009A0006FF00200186020688368C3F34243072B8E
:1009B00005D1A84208D1096811F4702F04D08168CC
:1009C00041F480118160B9E7816841F4A001F9E741
:1009D000002801400424014010B590F821100022A5
:1009E000022905D00421816380F82020012010BD58
:1009F00001680B6823F00E030B6001680B6823F09D
:100A000001030B6090F84030C46B012101FA03F33D
:100A1000636080F8211080F82020104610BD00008F
:100A200010B590F821100024022903D0042181631D
:100A300001243DE001680A6822F00E020A600168A4
:100A40000A6822F001020A601A4A0168914201D143
:100A5000012121E0174A1432914201D110211BE0FB
:100A6000144A2832914201D1891515E0114A3C32CD
:100A7000914201D189140FE00E4A5032914202D1C5
:100A80004FF4803108E00B4A6432914202D14FF4B6
:100A9000801101E04FF08071064A083A516001214F
:100AA00080F82110002180F82010416B01B18847A7
:100AB000204610BD080002402DE9F05FC16B0C68B4
:100AC00001680B68D0F840C0042202FA0CF2494DCC
:100AD000DFF824A1494E4A4FDFF828B1DFF828E1BA
:100AE00022422CD05A072AD50A68920603D40A68F3
:100AF00022F004020A600168A94201D1042219E02F
:100B0000514501D1402215E0B14202D14FF480623B
:100B100010E0B94202D14FF480420BE0594502D1B6
:100B20004FF4802206E0714502D14FF4800201E0CB
:100B30004FF080622F4908394A60C16A3BE04FF0AC
:100B4000020808FA0CF818EA040F4FF000094FF0F9
:100B5000010235D05FEA837832D50B689B0605D455
:100B60000B6823F00A030B6080F821200168A9427A
:100B700001D1022219E0514501D1202215E0B142F4
:100B800002D14FF4007210E0B94202D14FF400528A
:100B90000BE0594502D14FF4003206E0714502D115
:100BA0004FF4001201E04FF00072124908394A6018
:100BB00080F82090816A00291AD0BDE8F05F0847CC
:100BC000082505FA0CF5254212D01B0710D50B6835
:100BD00023F00E030B6090F84010C36B02FA01F192
:100BE0005960826380F8212080F82090016BE2E751
:100BF000BDE8F09F080002401C00024030000240A7
:100C000044000240580002406C00024030B528B356
:100C100008C8134914221944B1FBF2F18900C163D9
:100C200010498163022141771A6843F6F0718A43C3
:100C3000D0E900142143D0E902452C432143046943
:100C400021434469214384692143114319600021F0
:100C50004163012242770177084630BD012030BD53
:100C6000F8FFFDBF0000024070B5044690F8200078
:100C7000002501280CD0012084F8200094F8216080
:100C80000020012E06D084F820000225284670BDE1
:100C9000022070BD022684F82160A06320680668E7
:100CA00026F0010606602046FFF7CAFCE06A00282D
:100CB0002068016802D041F00E0106E021F0040135
:100CC00001602068016841F00A0101602068016844
:100CD00041F001010160D9E770B5044600F004F964
:100CE0000546601C02D004480078044400F0FCF87B
:100CF000401BA042FAD370BDBC0100202DE9F84F83
:100D0000DFF8B891002409F1040A0AF1040B234624
:100D10000F270BF1040EC9E00125A5402A40AA4285
:100D20007DD1674ED1F804C0ACEB0608B44532D093
:100D300014DCBCF1030F3AD009DCBCF1000F2AD05F
:100D4000BCF1010F1CD0BCF1020F31D11DE0BCF190
:100D5000110F17D0BCF1120F2AD119E0B8F5881F76
:100D600019D006DCB8F5803F15D0B8F5801F1FD12B
:100D700011E0B8F5001F0ED0B8F5041F18D10AE035
:100D8000CB6815E0CB681B1D12E0CB6808330FE081
:100D9000CB680C330CE08B682BB1012B4FF00803B0
:100DA00003D0456104E0042302E0056100E0002374
:100DB000FF2A01D8064601E000F104064FEA840547
:100DC00001D9A5F12005D6F8008007FA05FC28EA2C
:100DD0000C0803FA05F548EA0508C6F800804D68D6
:100DE000ED0062D5374DAE6946F00106AE61AD69E2
:100DF00024F0030605F001050095334D06EB050CC4
:100E0000DCF80850A607360F07FA06F825EA0805A9
:100E1000DFF8B880404503D14FF0000817E044E008
:100E2000DFF8AC80404502D14FF001080FE0DFF859
:100E3000A480404502D14FF0020808E0DFF8988016
:100E4000404502D14FF0030801E04FF0040808FAD2
:100E500006F848EA0508CCF808804D68D9F8006023
:100E6000ED034D4601D5164300E096432E604D68D4
:100E7000DAF80060AD03554601D5164300E096430D
:100E80002E604D68DBF80060ED025D4601D516432B
:100E900000E096432E604D68DEF80060AD027546B6
:100EA00001D5164300E096432E60641C0D682A4667
:100EB000E5407FF431AFBDE8F88F00000004014049
:100EC0000000111000100240000001400008014025
:100ED000000C014000100140001401400AB1016102
:100EE00070470904FBE70000014880687047000074
:100EF000BC01002070B5040025D094F83D00002509
:100F000020B984F83C50204600F078FA242084F878
:100F10003D002068016821F001010160206801683E
:100F200041F4004101602068016821F40041016042
:100F300000F050FC4D4A6168914201D84C4900E0F4
:100F40004C49884201D2012070BD4B492368B0FB57
:100F5000F1F15E6826F03F060E435E6063689342DF
:100F600006D94FF4967359434FF47A73B1FBF3F1FA
:100F70002368491C1E6A26F03F06314319626168E6
:100F8000914210D84900401EB0FBF1F2521CC2F34E
:100F90000B02042A01D2042022E0B0FBF1F0401C35
:100FA000C0F30B001CE0A268F2B301EBC10303EB3A
:100FB0000116431EB3FBF6F35B1C43F480431B0591
:100FC00049D092B301EBC10202EB0111401EB0FB0C
:100FD000F1F0401CC0F30B0040F4804040F40040AE
:100FE0002168CA694CF6FF739A431043C861D4E97B
:100FF000071001432068026822F0C002114301601B
:10100000D4E9030101432068826848F2FF339A4320
:1010100011438160D4E9050108432168CA6822F0C0
:10102000FF021043C86001E00EE016E0206801688E
:1010300041F0010101602564202084F83D00256312
:1010400084F83E50002070BD01EB4106431EB3FB07
:10105000F6F35B1CB3E70120C2E701EB4101401E40
:10106000B0FBF1F0401CC0F30B00B7E7A086010015
:1010700080841E0000093D0040420F002DE9FF4F13
:1010800083B00025DDE910799A4693460446DDF8E1
:1010900048800095FFF728FF064694F83D00202879
:1010A0007CD11923012285492046009601F0D4FC09
:1010B0000028F5D194F83C0001286FD0012084F875
:1010C0003C0020680168C90703D1016841F00101B3
:1010D00001602068016821F400610160222084F829
:1010E0003D00402084F83E0025646762A4F82A9001
:1010F000608D20857248E062CDE9008653465A46ED
:101100002046049901F0B0FB00287DD1208DDFF846
:10111000B491202768B1012814D002282068016802
:101120001ED041F4806101602068416980690090AF
:10113000B6E02068416981690091016841F400715D
:101140000160ADE02068016821F48061016072B641
:101150002068416981690091016841F400710AE0E9
:1011600041F40061016072B62068416981690091B3
:10117000016821F48061016062B691E0032868D8BB
:1011800001280CD0022843464FF000024946204671
:1011900000960FD001F060FCB0BB10E08BE032464F
:1011A0004146204601F0D7FC70BB20680069616AA7
:1011B00008706CE001F050FC30BB72B634E020687F
:1011C000016821F48061016072B620680069616A7B
:1011D0000870606A401C6062208D401E2085608D12
:1011E000401E6085384846F2A8110068B0FBF1F057
:1011F000C0EBC00000EB80000090401E009008D0C3
:1012000020684069C04300E029E040070CD5009801
:10121000F3E744F8305F6773A573206940F020005E
:10122000206162B625731AE02068016841F40071FC
:10123000016020680069616A0870606A401C606231
:10124000218D491E2185618D491E618562B6216807
:101250001BE032464146204601F07DFC18B10120DA
:1012600007B0BDE8F08F20680069616A0870606AA5
:10127000401C6062218D491E2185618D491E61855A
:1012800021684A69D24352070AD409690170606A29
:10129000401C6062208D401E2085608D401E608550
:1012A000208D00287FF46AAF84F83D7084F83E50AA
:1012B00084F83C50D4E70220D2E70000020010007E
:1012C0000000FFFF04000100C80100202DE9FF4FCE
:1012D00083B09A46DDE9119793460446DDF84080D5
:1012E000FFF702FE054694F83D0020287FD1192320
:1012F000012240492046009501F0AEFB002876D13E
:1013000094F83C00012872D0012084F83C00206849
:101310000168C90703D1016841F00101016020683B
:10132000016821F400610160212084F83D00402023
:1013300084F83E0000262664C4F82480A4F82A908D
:10134000608D20852C48E062CDE9007553465A46F1
:101350002046049901F006FB70B930E02A46394670
:10136000204601F02BFC58B1206C042804D12068E1
:10137000016841F400710160012007B0BDE8F08F01
:10138000606A216800780861606A401C6062218D93
:10139000491E89B22185628D521E62852268536979
:1013A000DB435B070BD469B100781061606A401CB5
:1013B0006062208D401E2085608D401E6085208DDE
:1013C0000028CBD12A463946204601F01FFB0028D1
:1013D000CAD154F83D0B016841F40071016020202E
:1013E00004F81E09E67766770020C6E7FFE70220CB
:1013F000C3E70000020010000000FFFF10B586B038
:1014000000210091019102910391006810498842E6
:101410001BD1104CA06940F00800A061A06969468A
:1014200000F0080004904FF44060009012200190FA
:10143000032003900848FFF761FCE06940F4800056
:10144000E061E06900F48000049006B010BD000087
:101450000058004000100240000C01400248816822
:101460000278114481607047BC010020074810B524
:10147000016841F010010160032000F07BF80F20AB
:1014800000F006F800F024F8002010BD0020024013
:1014900070B50D4D04464FF47A712878B1FBF0F029
:1014A0000A490968B1FBF0F000F07AFB48B9102C4A
:1014B00007D200222146501E00F03CF800206C604C
:1014C00070BD012070BD0000BC010020C8010020DB
:1014D0000F4808B5816941F001018161816901F01E
:1014E00001010091C16941F08051C161C0690022D0
:1014F00000F0805000900F21901E00F01BF805486E
:10150000416821F0E06141F00071416008BD0000D8
:101510000010024000000140002809DB00F01F021B
:10152000012191404009800000F1E020C0F8001145
:1015300070470000F0B40E4B1B680C46C3F3022347
:10154000C3F10705042D00D90425191D072901D26F
:10155000002300E0DB1E012606FA05F1491E2140AA
:1015600099409E40761E16403143F0BC02F001BA0D
:101570000CED00E0064900F0070208684FF6FF0393
:10158000184040EA0220034A1043086070470000F8
:101590000CED00E00000FA05BFF34F8F054801682D
:1015A000054A01F4E06111430160BFF34F8F00BFB2
:1015B000FDE700000CED00E00400FA052DE9F8431A
:1015C00005460078354CC00754D0E0690026C000BD
:1015D00008D4E06940F08050E061E069012600F045
:1015E000805000902E480168C90512D401688046D9
:1015F00041F480710160FFF777FC074605E000BF0A
:10160000FFF772FCC01B642823D8D8F80000C0057F
:10161000F6D5206A10F4407021D0A98801F44071F9
:1016200081421CD0206A1F49012220F440700A60C8
:1016300000220A602062C00711D0FFF755FC074660
:1016400041F2883808E000BFFFF74EFCC11B41455E
:1016500002D90320BDE8F883206A8007F4D5206A08
:10166000696820F44070084320621EB1E06920F0F0
:101670008050E0612878800705D56068A96820F46B
:101680004040084360602878C00605D56068E96876
:1016900020F48000084360600020DBE70010024077
:1016A00000700040400442422DE9F0470F4605001B
:1016B00061D0434E306800F00700B84209D230686C
:1016C00020F0070038433060306800F00700B8426F
:1016D00051D128683B4C810712D5400703D560687B
:1016E00040F4E06060602878000703D5606840F44B
:1016F000605060606068A96820F0F0000843606096
:101700002878C00728D06868012810D021680228EE
:1017100010D0890700292EDA616821F00301014306
:101720006160FFF7E1FB804641F288390DE02168F6
:101730008903EFE78901EDE7FFF7D6FBA0EB08018E
:10174000494502D90320BDE8F0876068696800F068
:101750000C00B0EB810FEFD1306800F00700B84209
:101760000BD9306820F0070038433060306800F053
:101770000700B84201D00120E5E72878400705D5E9
:101780006068E96820F4E06008436060287800073A
:1017900006D56068296920F4605040EAC1006060A5
:1017A00000F038F86168084AC1F30311515CC84081
:1017B0000649086006480068FFF76AFE0020C2E795
:1017C0000020024000100240E46B0008C801002025
:1017D000C00100200448054900684968044AC1F373
:1017E0000221515CC8407047C8010020001002402F
:1017F000F46B00080448054900684968044AC1F3CD
:10180000C221515CC8407047C8010020001002404E
:10181000F46B000812A185B00FC98DE80F0014A069
:10182000144A006804905168134801F00C03042B1B
:1018300010D0082B0ED1C1F38343C9031DF8030058
:101840000AD5516804AAC1F34041515C0A4A504389
:10185000B0FBF1F005B0704708494843FAE70000D3
:1018600002030405060708090A0B0C0D0E0F1010E1
:10187000010200000010024000127A0000093D0041
:101880002DE9F84F040070D02078C04DC00749D032
:101890006868C0F38100012807D06868C0F3810040
:1018A000022809D16868C00306D52868800339D5A5
:1018B00060680028E7D035E06068B0F5803F0BD065
:1018C00010B1B0F5A02F11D0286820F48030286026
:1018D000286820F4802002E0286840F480302860E6
:1018E000606890B1FFF700FB06460AE0286840F404
:1018F00080202860F0E700BFFFF7F6FA801B64281D
:1019000073D828688003F7D50CE0FFF7EDFA064698
:1019100005E000BFFFF7E8FA801B6428F0D82868CC
:101920008003F7D420789A4E80074FF001094FF0DA
:10193000000839D5686810F00C0F07D06868C0F34C
:101940008100022809D16868C00306D4286880078E
:1019500014D52069012808D110E02069B0B1C6F87B
:101960000090FFF7C1FA074605E00AE1FFF7BCFA6D
:10197000C01B0228C4D828688007F7D52868616989
:1019800020F0F80040EAC10028600DE0C6F80080B1
:10199000FFF7AAFA074604E0FFF7A6FAC01B0228E1
:1019A00023D828688007F7D4207800072CD57948F9
:1019B000A169D9B1C0F80090FFF796FA074604E094
:1019C000FFF792FAC01B02280FD8686A8007F7D584
:1019D00071484FF4FA510068B0FBF1F0009000BF7D
:1019E0000098411E0091FAD20EE080E0C0F800801D
:1019F000FFF77AFA074604E0FFF776FAC01B0228E1
:101A000075D8686A8007F7D42078400760D5E86900
:101A10000027C00008D4E86940F08050E861E86918
:101A2000012700F0805000905C480168C90513D47C
:101A30000168834641F480710160FFF755FA8246E0
:101A400006E000BFFFF750FAA0EB0A0064284ED86A
:101A5000DBF80000C005F5D5E06801280AD008B120
:101A6000052813D0286A20F001002862286A20F097
:101A7000040002E0286A40F001002862E06841F2B8
:101A8000883B98B1FFF730FA82460BE0286A40F0B5
:101A900004002862EEE700BFFFF726FAA0EB0A0178
:101AA00059455AD8286A8007F6D50CE0FFF71CFA8A
:101AB000824605E0FFF718FAA0EB0A0159454CD819
:101AC000286A8007F6D41FB1E86920F08050E861E9
:101AD000E06988B36968C1F38101022944D0022812
:101AE000C6F8608004D0FFF7FFF9044638E034E020
:101AF000FFF7FAF9074604E0FFF7F6F9C01B0228E2
:101B00002BD828688001F7D4206AB0F5803F05D132
:101B10006868A16820F4003008436860D4E90801CF
:101B20000843696821F4741108436860C6F860903E
:101B3000FFF7DAF9044606E025E000BFFFF7D4F925
:101B4000001B022809D828688001F7D51BE000BFD8
:101B5000FFF7CAF9001B022802D90320BDE8F88F5D
:101B600028688001F4D40EE00128F7D06868226A62
:101B700000F48031914204D1616A00F4701088420F
:101B800001D00120EAE70020E8E700000010024051
:101B90000000424280044242C80100200070004020
:101BA00010B5401EB0F1807F01D3012010BD4FF071
:101BB000E02460610F21601701F0DBFE0020A061CE
:101BC00007202061002010BD10B590F83C20012AAC
:101BD00022D0012280F83C20CA688C6822F440722E
:101BE00022434C6822F4806222430C6822F4006293
:101BF00022430C6922F4805222434C6922F40052A1
:101C00002243C969002322F480420A4301684A64DE
:101C100080F83C30002010BD022010BD70B590F857
:101C20003C20012A26D0012480F83C40022280F882
:101C30003D2003685A689D6822F070060A683243A6
:101C40005A600D4B02689A4208D0B2F1804F05D01D
:101C50000A4B9A4202D00A4B9A4204D1496825F0B5
:101C600080031943916080F83D40002180F83C10CA
:101C7000084670BD022070BD002C014000040040E9
:101C80000008004010B586B000210091019102913A
:101C90000391134C0368134902221348A3420AD14B
:101CA0008B6943F004038B61896901F0040104919D
:101CB0004FF410610BE00D4CA3420ED18B6943F041
:101CC00004038B61896901F0040104914021CDE98D
:101CD000001269460392FFF711F806B010BD00002C
:101CE000002C0140001002400008014000040040A8
:101CF00070B5044690F83C000D4601280AD001203A
:101D000084F83C0042B1042A18D0082A2AD00C2AB0
:101D10004DD139E0022070BD206801F083FB2068BE
:101D2000816941F0080181612068816921F0040125
:101D30008161206881692A69114311E0206801F0FE
:101D400099FB2068816941F40061816120688169A3
:101D500021F480618161206881692A6941EA022158
:101D6000816124E0206801F0B1FB2068C16941F085
:101D70000801C1612068C16921F00401C1612068C6
:101D8000C1692A69114311E0206801F0CBFB20688A
:101D9000C16941F40061C1612068C16921F48061B9
:101DA000C1612068C1692A6941EA0221C16100203C
:101DB00084F83C0070BD10B5040003D094F83D00D9
:101DC00010B107E0012010BD002084F83C0020463F
:101DD00000F01EF8022084F83D00211D206801F06B
:101DE000DDFA012084F8460084F83E0084F83F00C4
:101DF00084F8400084F8410084F8420084F84300ED
:101E000084F8440084F8450084F83D00002010BDAB
:101E100008B50C4A01680C48914207D1816941F428
:101E200000618161806900F4006009E0074A914225
:101E300007D1C16941F00201C161C06900F002002F
:101E4000009008BD002C014000100240000400403A
:101E500010B50446022249B104290ED0082913D036
:101E600094F84100012816D0012010BD94F83E00DE
:101E70000128F9D184F83E200FE094F83F000128B2
:101E8000F2D184F83F2008E094F840000128EBD11B
:101E900084F8402001E084F841200122206801F00C
:101EA000B3FA0F492068884203D1426C42F40042E1
:101EB00042642068884208D0B0F1804F05D00949BB
:101EC000884202D00849884204D1816801F00701A4
:101ED000062903D0016841F001010160002010BD16
:101EE000002C01400004004000080040704710B57D
:101EF00004460068416994F83D20C1F3C011212ACD
:101F00000BD151B1416921F080014161606B08B191
:101F1000FEF762FD204601F0A6FB2068416994F8B7
:101F20003E20C1F38011222A0BD151B1416921F029
:101F300040014161A06B08B1FEF74EFD204601F063
:101F40007AFB002010BD7047F8B50268044610689F
:101F5000D168536910F00F0F4FF0000553D003F014
:101F6000010601F4907737435FD0C20705D0CA0558
:101F700003D5226C42F001022264420705D5DA073C
:101F800003D0226C42F002022264820705D5DA07F0
:101F900003D0226C42F004022264020707D501F04C
:101FA0002002324303D0226C42F008022264226CE9
:101FB000002A34D0800604D5880602D5204601F0D8
:101FC0005BFB20684069216CC0F38010090700D4D6
:101FD00030B3204601F02FFB2068416949061BD52C
:101FE000416921F040014161A06BA8B158494163AA
:101FF000A06BFEF715FD002811D0A06B416B01B05E
:10200000BDE8F040084783060FD58B060DD5204666
:10201000BDE8F84001F030BB2046FFF794FFF8BD63
:102020002046FFF790FF2564F8BD266B2023012E84
:1020300052D1C60650D5CE064ED5106850680090D5
:10204000506940062AD5A16B086840680004000C5E
:10205000EAD0A68D8642E7D9E0858869202818D085
:10206000D06820F48070D0602068416921F00101BF
:1020700041612068416921F04001416184F83E30AE
:1020800025632068C16821F01001C160A06BFEF7D4
:10209000A3FCA08DE18D401A81B219E0A08DE18DE5
:1020A000401A81B2E08D0028BED00029BCD0D06893
:1020B00020F49070D0602068426922F001024261F1
:1020C00084F83E3025632068C26822F01002C260A6
:1020D0002046FFF70BFFF8BD05062BD50D0629D5C9
:1020E00094F83D002128F6D1A068B0F5805F01D1B9
:1020F0002069B0B1206A411C2162216800784860E3
:10210000E08C401E0004000CE084E4D12068C1682B
:1021100021F08001C1602068C16841F04001C160C8
:10212000F8BD206A0088C0F308005060206A801C57
:102130002062E5E74006F3D54806F1D5D168204690
:1021400021F04001D16084F83D3000F074FBF8BD0F
:102150006935000870B5040004D094F83D000025EE
:1021600010B106E0012070BD84F83C50204600F01C
:1021700023F8242084F83D002068C16821F4005130
:10218000C160204601F0D4FA2068016921F4904131
:1021900001612068416921F02A0141612068C1681C
:1021A00041F40051C1602564202084F83D0084F88A
:1021B0003E00002070BD00002DE9F04186B00024F3
:1021C00000940194029403940646444F03684449E2
:1021D00002200322434DBB4226D18B6943F4804346
:1021E0008B618B6903F4804304938B6943F0040390
:1021F0008B618969039201F0040104910102CDE928
:10220000001069462846FEF779FD2815CDE900043F
:10221000694628460294FEF771FD0022052125201B
:10222000FFF788F9252053E02F4FBB4252D1CB69ED
:1022300043F40033CB61CB6903F4003304938B691F
:1022400043F004038B618969039201F00401049156
:102250000421CDE9001069462846FEF74FFD08200D
:10226000CDE90004694628460294FEF747FD204D5B
:102270001E484FF08008C5E90004C5E902482C61FA
:1022800087146C61C5E906472846FEF7BFFC08B114
:10229000FEF7ECF9B5636E62154D14484435143001
:1022A00001C51020A5E81101114845F81049443036
:1022B0006C61C5E90647FEF7A9FC08B1FEF7D6F93F
:1022C00075630022052126206E62FFF733F9262070
:1022D000FFF722F906B0BDE8F081000000380140A8
:1022E0000010024000080140004400406C00024021
:1022F000B007002090F83E30202B0ED159B152B1DA
:1023000090F83C30012B08D0012380F83C300023AA
:10231000036301F069BA012070470220704790F80A
:102320003E30202B0ED159B152B190F83C30012BE8
:1023300008D0012380F83C300023036301F08CBAFD
:1023400001207047022070472DE9F84F0068FA49D4
:1023500088427DD1F94D697800297AD0FF29FCD0D7
:10236000F74C28782154401CC2B2A0182A7010F8EB
:10237000011C0A296DD110F8020C0D28FAD1214652
:102380004FF47A7301F5807000F0FCF92078DFF8E3
:10239000B493ED4F4F2847D128780C2856D1E078D8
:1023A00003F07AF80646A07803F076F8394604F090
:1023B000F7F9314604F03AF8E44E3060A07903F0C2
:1023C0006BF88046607903F067F8394604F0E8F965
:1023D000414604F02BF8DFF87883C8F80000607AF3
:1023E00003F05AF88246207A03F056F8394604F092
:1023F000D7F9514604F01AF8D649086062782D2AB8
:1024000003D1326882F00042326022792D2A05D150
:10241000D8F8003083F00043C8F80030E2792D2A64
:1024200002D180F000400860207872280ED16078D8
:1024300065280BD1A078732808D1E078652805D1EC
:102440002079742802D10921C9F80010287801E008
:102450006FE166E14FF0000B032808D1207839289E
:102460007ED003F019F804F017F9C9F800002878B5
:10247000052811D12078642872D1A07803F00CF8D7
:102480000646607803F008F8394604F089F93146C9
:1024900003F0CCFFB049086028784FF001081028FD
:1024A0007ED120784FF07E5957285FD1607821285F
:1024B000E2D120792128DFD1E0792128DCD1A07A6E
:1024C0002128D9D1A549C1F80080E07802F0E4FFC5
:1024D0000646A07802F0E0FF394604F061F9314683
:1024E00003F0A4FF9E4E3060A07902F0D5FF824633
:1024F000607902F0D1FF394604F052F9514603F0F9
:1025000095FF7060607A02F0C7FF8246207A02F081
:10251000C3FF394604F044F9514603F087FF91495F
:1025200003F0F8FFB060607B02F0B6FF394603F0BD
:10253000F1FF8246207B02F0AFFF0090E07A02F0CC
:10254000ABFF394604F02CF9009903F06FFF5146B8
:1025500003F06CFFF060B06810F0FF4F03D100E0B3
:10256000D2E0C6F808902878102899D120784C2815
:102570005FD1607821289BD12079212898D1E079FA
:10258000212895D1A07A212892D17749C1F80080DD
:10259000E07802F081FF0646A07802F07DFF00E0BF
:1025A000A6E0394604F0FCF8314603F03FFF6F4ED9
:1025B0003060A07902F070FF8246607902F06CFF13
:1025C000394604F0EDF8514603F030FF7060607A50
:1025D00002F062FF8246207A02F05EFF394604F084
:1025E000DFF8514603F022FF5E4903F093FFB0602D
:1025F000607B02F051FF394603F08CFF8246207B5E
:1026000002F04AFF0090E07A02F046FF394604F0FB
:10261000C7F8009903F00AFF514603F007FFF06086
:10262000B06810F0FF4F01D1C6F808902878102844
:102630005ED1207852286DD1607821286AD1207926
:10264000212867D1E079212864D1A07A212861D19D
:102650004749C1F80080E07802F01EFF0646A078E6
:1026600002F01AFFBA46394604F09AF8314603F0F0
:10267000DDFE404E3060A07902F00EFF0746607923
:1026800002F00AFF514604F08BF8394603F0CEFE03
:102690007060607A02F000FF0746207A02F0FCFECC
:1026A000514604F07DF8394603F0C0FE2D4903F091
:1026B00031FFB060607B02F0EFFE514603F02AFF6D
:1026C0000746207B02F0E8FE0090E07A02F0E4FE8C
:1026D000514604F065F8009903F0A8FE394603F06E
:1026E000A5FEF060B06810F0FF4F01D1C6F8089069
:1026F000287804280ED1207876280BD161781E48DE
:10270000302902D0312903D004E0C0F800B001E044
:10271000C0F8008085F800B04FF480710848FDF7DC
:1027200017FEBDE8F84F05490122491C1348FFF781
:10273000F6BDBDE8F88F000000380140B801002068
:1027400028060020D000002000002041C00000200A
:10275000C4000020C8000020CC000020DC000020C5
:10276000680100200000C842E0000020880100202D
:10277000E40000209801002000010020280700202C
:10278000704700002DE9F843044690F83D001F46CD
:1027900016460D4620284CD1C5B1BEB194F83C0078
:1027A000012846D0012084F83C004FF00008C4F80E
:1027B0004080212084F83D00FEF796FBA6848146E8
:1027C000E684A068B0F5805F03D004E00120BDE896
:1027D000F883206928B12E465FF0000584F83C801C
:1027E0000EE00026FAE78021204601F050F8A0B95B
:1027F000AEB116F8010B21684860E08C401EE08401
:10280000E08C4B464FF0000200970028EBD14FF0D0
:102810004001204601F03BF830B10320D7E735F8FE
:10282000020BC0F30800E6E7202084F83D000020FA
:10283000CDE70220CBE77047FEE701684A69D24343
:1028400052050FD46FF480624A61002140F8301FB6
:10285000202242738173026942F004020261017313
:1028600001207047002070472DE9F84F04460068AA
:1028700089460B9D01689846174641F480610160C6
:102880002068016841F48071016000954FF0011BE0
:102890000022594620460A9B00F0DEF84FF4007AE9
:1028A00040B120680068C00501D5C4F840A00320ED
:1028B000BDE8F88F216809F0FE0008612B46284921
:1028C00020460A9A00F0FCF8F0BB20684169806954
:1028D00000902A4620460A9900F070F940B1206C19
:1028E00004283AD12068016841F40071016034E0A5
:1028F000FEB2B8F1010F09D02168380A08612A46F2
:1029000020460A9900F05AF90028E8D120680661AB
:102910002A4620460A9900F051F90028DFD12068A4
:10292000016841F4807101600095002259462046FB
:102930000A9B00F091F80028B3D1216809F0FF004C
:1029400040F00100086100E007E02B460449204602
:102950000A9A00F0B5F80028AAD00120A8E70000E4
:10296000020001002DE9F843044600680D46DDE948
:10297000089701689846164641F4807101604B46FD
:1029800000224FF001112046009700F065F848B191
:1029900020680068C00502D54FF400702064032051
:1029A000BDE8F883216805F0FE0008613B464A4611
:1029B0001549204600F084F888B92068416980698B
:1029C00000903A464946204600F0F8F848B1206C9D
:1029D000042804D12068016841F4007101600120DD
:1029E000DEE7F5B2B8F1010F09D02168300A0861BD
:1029F0003A464946204600F0E1F80028E7D1206831
:102A000005610020CCE700000200010070B5164609
:102A10000D4604460DE02046FFF70FFF08B10120E8
:102A200070BD681C05D0FEF75FFA801BA84207D86E
:102A300035B120684069C0434007ECD4002070BD28
:102A4000002044F8300F20216173A073216941F008
:102A5000200121612073E2E72DE9F0471E469046F0
:102A60000D460446C1F30747DDF8209008E0701CCE
:102A700006D0FEF739FAA0EB0900B0420FD876B1C4
:102A80002068012F18D0806925EA00000004000C9E
:102A900014D000214145EAD00020BDE8F087002095
:102AA00044F8300F20216173A073216941F02001A7
:102AB000216120730120F0E74069E5E70121E9E7A2
:102AC0002DE9F0479A4691460E46044600254FF000
:102AD0002008C1F3074725E020684069C04340054E
:102AE00014D42068016841F40071016021686FF41A
:102AF00080604861256384F83D8084F83E50206CF6
:102B000040F00400206484F83C501FE0B9F1FF3F1E
:102B100008D0FEF7E9F9A0EB0A0149450CD8B9F154
:102B2000000F09D02068012F13D0806926EA000029
:102B30000004000C0BD0CFE744F8305F84F80D8020
:102B4000A573206940F02000206125730120BDE8B5
:102B5000F0874069EAE72DE9F041002590460E46EE
:102B60000446202717E04069C043C0060CD454F83F
:102B7000301B6FF01000486144F810596777A57753
:102B8000206A2062257717E0FEF7AEF9A0EB080077
:102B9000B04208D83EB120684169C9434906E2D431
:102BA0000020BDE8F08144F8305F6773A5732069A9
:102BB00040F02000206125730120F2E770B5164631
:102BC0000D4604460DE02046FFF737FE08B1012010
:102BD00070BD681C05D0FEF787F9801BA84207D896
:102BE00035B120684069C0430006ECD4002070BDB8
:102BF000002044F8300F20216173A073216941F057
:102C0000200121612073E2E77CB514460D4606469B
:102C10006B4606223B21682000F078F800280BD193
:102C2000BDF8001049BA3180BDF8021049BA2980B8
:102C3000BDF8041049BA21807CBD7CB514460D4610
:102C400006466B4606224321682000F05FF8002804
:102C50000BD1BDF8001049BA3180BDF8021049BA55
:102C60002980BDF8041049BA21807CBD10B58021AF
:102C70006B2000F097F86420FEF72EF800216B20FF
:102C800000F090F8032000F058F8002000F050F811
:102C9000322000F06FF80021382000F083F8002186
:102CA0006A2000F07FF80021232000F07BF88021CB
:102CB000372000F077F8752000F012F8682801D06E
:102CC000012010BD01216B2000F06CF800216C2068
:102CD00000F068F8322000F04DF8002010BD000030
:102CE0001FB56423012203A98DE80E001346024696
:102CF000D0210548FEF7C2F910B1012004B010BD83
:102D00009DF80C00FAE70000E00400203EB540000A
:102D1000CDE900320A4664240146029401230348A7
:102D2000FEF7ACF9002800D001203EBDE0040020F1
:102D3000C006010E1C2000F035B8C006010E1B2095
:102D400000F030B8BC2801D3012110E0622801D383
:102D500002210CE02A2801D3032108E0142801D322
:102D6000042104E00A2801D3052100E006211A20ED
:102D700000F018B810B504464FF47A70844201D9B7
:102D8000044602E0042C00D20424B0FBF4F0401E00
:102D9000C1B2192000F006F86008BDE81040FFF746
:102DA000D1BF000003B583B06423012204A98DE8DC
:102DB0000E0013460246D0210348FEF787FA00288A
:102DC00000D0012005B000BDE00400203EB5002485
:102DD00010480094019402940D49846001600473CA
:102DE0000475012505614FF460214460C161FDF760
:102DF000C1FC08B1FDF73AFCCDE90045694605483C
:102E00000294FDF735FC002801D0FDF72FFC3EBDF4
:102E100000240140800400203EB5002410480094A6
:102E2000019402940D4984600160047304750125C6
:102E300005614FF460214460C161FDF79BFC08B15E
:102E4000FDF714FC0095CDE9015469460448FDF7EF
:102E50000FFC002801D0FDF709FC3EBD0028014011
:102E6000B00400200D4808B5416941F001014161FD
:102E70004069002200F00100009005211020FEF7BB
:102E800059FB1020FEF748FB002205211120FEF718
:102E900051FBBDE808401120FEF73EBB0010024088
:102EA00010B59CB01C2216496846FDF7FDF90021BB
:102EB000684601F03CFD134C11491C22A0651C31F1
:102EC00007A8FDF7F1F9002107A801F030FD0C4932
:102ED00060641C2238310EA8FDF7E6F900210EA827
:102EE00001F025FD0649E0641C22543115A8FDF7C8
:102EF000DBF9002115A801F01AFDA0641CB010BD7B
:102F0000746B0008AC00002070B586B000241C482B
:102F10000094019402940394816941F0100181614D
:102F2000816901F010010491816941F02001816102
:102F3000816901F020010491816941F004018161FE
:102F4000816901F004010491816941F00801816106
:102F500080690C4E00F008004FF4404504900122B7
:102F600029463046FDF7BAFF01200095CDE901045E
:102F70000220039069463046FDF7C0FE06B070BDE2
:102F800000100240001001400D4810B50B490160CF
:102F90000C49416000214FF480428160C0E9031276
:102FA00041618161C1610162FDF7A4FF002803D086
:102FB000BDE81040FDF75ABB10BD000000580040AE
:102FC000E0040020A086010010B592B000240F9408
:102FD0001C2168461094FDF7BBF9202107A8FDF7D6
:102FE000B7F92448224901604721C0E9011444F699
:102FF0002061C0E9031444618461FEF7DCFE08B17E
:10300000FDF734FB0F940FA91A481094FEF706FE43
:1030100008B1FDF72BFB6020CDE900040294039476
:10302000049405940022694612480694FEF760FE57
:1030300008B1FDF71BFB0C2269460E48FEF758FE4F
:1030400008B1FDF713FB0794089409944FF400505E
:103050000A94CDE90B4007A906480E94FEF7B4FD8B
:1030600008B1FDF703FB0348FEF70CFE12B010BDDC
:10307000002C01403405002010B58AB000240794CC
:103080001C2168460894FDF763F91648144901604D
:103090004721C0E9011444F62061C0E903148461AA
:1030A000FEF789FE08B1FDF7E1FA079407A90D487C
:1030B0000894FEF7B3FD08B1FDF7D8FA6020CDE91A
:1030C000000402940022694606480494FEF710FEAC
:1030D00008B1FDF7CBFA0348FEF7D4FD0AB010BDE6
:1030E000000400407C0500200E4810B50C4901602A
:1030F0004FF416514160002181600C22C160C0E98B
:1031000004128161C161FFF725F808B1FDF7AEFA3D
:10311000BDE81040012204490248FFF700B9000051
:103120000038014028070020B901002010B5114CDB
:103130000F480C2120604FF4E13060600020A06057
:10314000E060C4E90401A061E0612046FFF702F8F5
:1031500008B1FDF78BFA2068C16841F01001C16029
:10316000BDE81040642204490248FFF7C3B80000DC
:10317000004400406C070020C4050020FEE7FEE785
:103180002DE9F047002406462546012E4DD028485B
:10319000FDF7ECFA6D1CEDB204440A2DF5D30A20BC
:1031A000B4FBF0F002F00EFF4FF0663A5246214BAE
:1031B00002F01CFF0022204B02F066FD02F082FCB0
:1031C00004461E4903F0ECFA03F004F980468946F0
:1031D000204603F0FFF804460D46194A194B02F049
:1031E00005FF22462B4602F001FF06460F46204609
:1031F00029465246144B02F0F9FE22462B4602F0B5
:10320000F5FE22462B4602F0F1FE32463B4602F026
:103210008BFC42464B4602F0F3FF0C4A0C4B02F08B
:1032200083FCBDE8F04702F04DBC0A48B0E700005F
:10323000B004002066660A4000FEAF4000000C4368
:10324000F6285C8FC235524066662AC048E17A147F
:10325000AEC75A4080040020FEE710B5FEF7FEF826
:1032600002F056FB012803D0BDE8104002F0E2BA9C
:1032700010BD30B593B028216846FDF769F81421D8
:103280000AA8FDF765F8002401210F9410940804A2
:10329000CDE9001011941294029402250491CDE915
:1032A00007504FF4E01009906846FEF7E9FA08B1BC
:1032B00072B6FEE70F20CDE90A054FF48060CDE934
:1032C0000C4002210AA80E94FEF7EEF908B172B67E
:1032D000FEE70FA80F951194FEF770F9002801D0B2
:1032E00072B6FEE713B030BD7047000008B502F0BB
:1032F0001DFB284D0026284C4FF480484FF4004910
:1033000001270090606D30B1012241462846FDF74B
:10331000E5FD012205E0002241462846FDF7DEFDDD
:10332000002249462846FDF7D9FD606A092803D0E6
:10333000206C012803D027E06662276466650022BE
:1033400041462846FDF7CAFD002249462846FDF7BA
:10335000C5FDE06B401CE063C82815D10122414641
:103360002846FDF7BBFD012249462846FDF7B6FD7C
:1033700003204FF4FA71401C8842FCDB87F313886A
:10338000FEF70AF9E66326640F21684602F04CF95D
:10339000B8E7000000100140AC000020F0B5026862
:1033A000164B174C174D4FF08047984205D0B84246
:1033B00003D0A04201D0A84203D122F070064A688F
:1033C0003243984205D0B84203D0A04201D0A8426F
:1033D00003D122F44074CA6822434C6922F080026F
:1033E000224302608A68C2620A688262984201D1FE
:1033F0000969016301214161F0BD0000002C014019
:10340000000400400008004010B501F01F03012136
:10341000046A99408C430462016A9A401143016234
:1034200010BD000030B5026A22F001020262026A99
:103430004368846924F073050C682C4322F002056C
:103440008A682A430A4DA8420BD122F00805CA68AF
:1034500023F440732A434D6922F004021D438B6913
:103460002B434360846149684163026230BD0000C0
:10347000002C014030B5026A22F010020262026A9A
:10348000436884690D6824F4E64444EA05248D68A1
:1034900022F0200242EA05120B4DA8420ED1CD685F
:1034A00022F0800242EA05124D6923F4406343EAA8
:1034B00085038D6922F0400243EA850343608461FD
:1034C00049688163026230BD002C014030B5026A58
:1034D00022F480720262036A4268C46923F40073B2
:1034E00024F073050C682C438D6843EA05230C4DCA
:1034F000A8420ED1CD6823F4006343EA05234D6949
:1035000022F4405242EA05128D6923F4806342EAB4
:1035100005124260C4614968C163036230BD0000A6
:10352000002C014030B5026A22F480520262046A23
:103530004268C3690D6823F4E64343EA05238D68B6
:1035400024F4005444EA0534064DA84204D14D69E0
:1035500022F4804242EA85124260C36149680164F4
:10356000046230BD002C014010B5406A0021C185C5
:10357000C184FEF7E8FC10BD70B5446A206840695C
:1035800094F83D10C0F3C0100025212904D118B1D2
:10359000E584204600F067F82068406994F83E1002
:1035A000C0F38010222904D118B1E585204600F02F
:1035B00042F8206C40F0100020642046FEF7C3FC67
:1035C00070BD10B50146406A0968096889061BD4B8
:1035D0000021C1850168CA6822F48072CA6001684E
:1035E0004A6922F001024A6101684A6922F04002F8
:1035F0004A61202180F83E10016B012904D1016845
:10360000CA6822F01002CA60016B012902D0FEF7DD
:103610009BFE10BD818DFEF769FC10BD10B5406AA0
:10362000016B012902D0FFF7ABF810BD818D49086D
:10363000FEF75CFC10BD0168CA6822F49072CA6093
:1036400001684A6922F001024A61016B012904D133
:103650000168CA6822F01002CA60202180F83E107A
:103660000021016370470168CA6822F0C002CA6085
:10367000202180F83D10704708B590F83E102229AF
:1036800001D0022008BD82684FF480539A4201D1D4
:10369000016921B1816A9A421BD04AB10AE00268ED
:1036A000816A5268C2F308020A80816A891C08E0B4
:1036B000026972B10268526802F07F020A70816A80
:1036C000491C8162C18D491E0904090CC18503D0C2
:1036D00019E002685268F1E70168CA6822F0200226
:1036E000CA600168CA6822F48072CA6001684A69C7
:1036F00022F001024A61202180F83E10016B01296D
:1037000003D0FEF721FE002008BD002101630168FF
:10371000CA6822F01002CA6001680A68D20602D59F
:103720000A6849680091818DFEF7E0FBEBE7000035
:1037300070B5044600680169E26821F44051114304
:1037400001612169A0680843616908432168CA686A
:1037500041F20C639A430243CA6020684169A2693E
:1037600021F44071114341611E492068884202D111
:10377000FEF740F801E0FEF72DF800EBC00101EB89
:103780000012606864218000B2FBF0F3B3FBF1F338
:103790006FF018067343B2FBF0F5B2FBF0F605EBE1
:1037A0008305322303EB0515B5FBF1F5B6FBF1F606
:1037B00005F0F00505EB0615B2FBF0F6B2FBF0F0F4
:1037C000B0FBF1F06FF01802504306EB800003EB02
:1037D0000010B0FBF1F0216800F00F002844886071
:1037E00070BD00000038014038B581628285002537
:1037F000134604460564222084F83E00A26B134859
:103800009062A26B1248D062A26B12481063A06B48
:103810000A4645632168A06B091DFDF725FA20685B
:1038200001684168009184F83C50C16841F480719E
:10383000C1602068416941F001014161206841692E
:1038400041F040014161002038BD0000C33500084F
:103850001D3600087935000881628285C285002105
:103860000164222280F83E2080F83C100168CA687A
:1038700042F48072CA6001684A6942F001024A61FA
:103880000068C16841F02001C160002070472DE947
:10389000F041984617460E460446069D1DE0681CFA
:1038A0001BD02DB1FDF720FBA0EB0800A84214D9D6
:1038B0002068C16821F4D071C1602068416921F09D
:1038C00001014161202084F83D0084F83E00002081
:1038D00084F83C000320BDE8F0812068006836EAE7
:1038E000000004D00020B842D9D00020F3E7012026
:1038F000F9E700000148FEF727BB00002807002079
:103900000D4808B500680168C1F3001179B101687C
:10391000406800900848FEF7EAFA084800684068E6
:103920000749C0F164000870064901200870BDE82D
:1039300008400148FEF708BB6C070020B0070020D4
:10394000BA010020BB010020FEE7490050EAC12077
:1039500018BF04204A0D18BF40F0010040F2FF726A
:10396000B2EB515F08BF40F00200012808BF0520FC
:1039700070470907090E002804DB00F1E02080F8F9
:103980000014704700F00F0000F1E02080F8141DD3
:10399000704700002DE9F74F144694B00021C4E9A8
:1039A00002111599079121F00045C9498D4206DCA5
:1039B0001599C4E9000117B00020BDE8F08FC54992
:1039C000DFF814A3A9423CDD0799C44E0029C44F77
:1039D000C44A1599534619DD02F012FC554506D02C
:1039E000C14AC24B02F00CFCC4E900010AE04FF0EE
:1039F000D352BE4B02F004FC32463B4602F000FCC0
:103A0000C4E9000117B00120BDE8F08F02F08CF886
:103A1000554506D0B44AB54B02F086F8C4E900011A
:103A20000AE04FF0D352B14B02F07EF832463B46EB
:103A300002F07AF8C4E9000117B04FF0FF30BDE89A
:103A4000F08FAB49A942159978DB21F000418346FC
:103A50008846A84AA84B02F0C9FA0022A74B02F0F8
:103A600063F802F069FA099002F095FA06460F46EB
:103A70009C4A534602F0BAFA43465A4602F0B4FB57
:103A800080468A46984A994B3046394602F0AEFA4B
:103A90002A0D01250B924246534602F0A5FB032D49
:103AA000C4E9000139D00B98C1F30A51401A05EB63
:103AB00045111139814230DA9148C346784400EB10
:103AC0000510CDF80CA00C90D0E900233046394603
:103AD00002F08CFA02460B46049106905846039970
:103AE00002F08EFB80468A4602460B4658460399F2
:103AF00002F086FB049B069A02F082FB83460C9838
:103B000003913946D0E90223304602F06FFA5A4653
:103B1000039B02F075FB6D1CBDE707980028A2BF50
:103B2000099817B0BDE8F08F616881F000416160CD
:103B3000099817B04042BDE8F08FFFE7844615981A
:103B4000C1F31301C0F30A50A0F2F5304FEA601838
:103B500000F01F06C6F12000139000200690079089
:103B600041F4801E05206D4676B1664A08EB0001DF
:103B70007A4452F8213002EB8101B3404A6813992C
:103B800022FA01F1194305E05F4908EB000279448C
:103B900051F82210A1FB0E27A1FB0C131A449A42E4
:103BA00034BF0123002303EB070A05EB8003D3E9AD
:103BB00001B70F448F4234BF0121002193448B444D
:103BC00011B1934502D903E0934501D2012100E0F0
:103BD0000021C3E901B7514445F82010011EA0F1AE
:103BE0000100C1DC0298059F00F10050800F129087
:103BF0000298DDE90356800002F0CDF9834628469D
:103C00000D9102F0DFF96FF01D0202F046FFCDE9E1
:103C10000E01304602F0D6F96FF03D0202F03DFF92
:103C200080468A46384602F0CDF96FF05D0202F018
:103C300034FF074642465346119101F075FFDDE916
:103C40000E2301F071FF5A460D9B01F06DFF002518
:103C50000E465A4628460D9B02F0D2FADDE90E23A5
:103C600002F0CEFA4246534602F0CAFA3A46119B97
:103C700002F0BAFADFF898A0244A534602F0B6F9E7
:103C800007468846234A244B3146284602F0AEF9BF
:103C90003A46434601F048FF074688464FF0A8429F
:103CA00053463146284602F0A1F93A46434601F010
:103CB0003BFF159A12F0004F04D0129A81F0004198
:103CC00052421292C4E90001129817B0BDE8F08F79
:103CD000FB21E93F7CD90240FB21F93F7370032EA1
:103CE0008A19A33B000040543163621A61B4D03D8D
:103CF000FB21394183C8C96D305FE43F0000E03FDC
:103D0000103200008C3100006E310000182D445438
:103D1000FB21F93D3326A611460B113C2DE9FF4D41
:103D200021F0004807460C46B8F1795F08DA02F046
:103D300003F9002801BF0020324904B0BDE8F08D2E
:103D40003A4623461046194602F050F90546024607
:103D50002D480E460B460621784400F05DF82A46B1
:103D6000334602F043F9DDE9022382468B463846AA
:103D7000214602F03BF904460F4652465B46284670
:103D8000314602F033F922463B4602F039FA074643
:103D90008A464FF0FF322846314602F07EFE1B4A2B
:103DA00090450ADA3A46534602F02AFA04B0002255
:103DB000BDE8F04D134B02F017BA154A4245A8BFB3
:103DC000A8F500154FF00004B8BF124D22462B464F
:103DD00002F016FA0646884622462B46002009497C
:103DE00002F00EFA04460D463A4653463046414626
:103DF00002F006FA04B022462B46BDE8F04D02F070
:103E0000F3B900000000F03F3C2F00003333D33FF4
:103E10000000E93F0000D23F2DE9F0414F1E00EBCA
:103E2000C7010446D1E9000115461E4637F00602D7
:103E30000DD02A46334602F0D9F87F1E04EBC703A3
:103E4000D3E9002301F070FE37F00602F1D1022F12
:103E500025D0042F13D0062F18BFBDE8F0812A46C5
:103E6000334602F0C3F8D4E90A2301F05DFE2A4686
:103E7000334602F0BBF8D4E9082301F055FE2A4688
:103E8000334602F0B3F8D4E9062301F04DFE2A468A
:103E9000334602F0ABF8D4E9042301F045FE2A468C
:103EA000334602F0A3F8D4E9022301F03DFE2A468E
:103EB000334602F09BF8D4E90023BDE8F04101F05D
:103EC00033BE00002DE9FF4D054621F0004084B0CF
:103ED0000C46B0F1795F0BDA2846FFF736FD04286F
:103EE00008BF00F071F8284608B02146BDE8F08D03
:103EF0002A460B46104602F079F806460F462A4637
:103F0000234602F073F8804626488A4632463B46EE
:103F100005217844FFF780FF83461098029160B333
:103F2000214A224B4046514602F060F8CDE900019B
:103F30005A4640465146029B02F058F8824688464F
:103F4000DDE906014FF0FF3202F0A7FD524643467D
:103F500002F056F932463B4602F048F8DDE9062306
:103F600002F04EF9DDE9002302F04AF908B02A46D2
:103F70002346BDE8F04D02F037B90B465A463046AD
:103F8000394602F033F8084A084B01F0CDFD4246AD
:103F9000534602F02BF808B02A462346BDE8F04D00
:103FA00001F0C2BD822E0000495555555555C5BF7B
:103FB000012202F072BD01F0B7BD00221346104687
:103FC000114601F061BE0000024A0020110702F014
:103FD00064BD000001FDFFFF2DE9F84F04460D46CA
:103FE00021F0004000917349814211DC72498842FE
:103FF00001DC06D12CB120462946BDE8F84FFFF779
:10400000D7BF6E48002DCCBF6D496E49BDE8F88F13
:104010006D49814211DD6D498142D8BF4FF0FF36B5
:104020006DDD20462946FFF790FC042808BFFFF706
:10403000CBFF20462946BDE8F88F6549654F25F03E
:104040000045814233DD6449814219DD0026324654
:104050004FF080432046294601F066FD80468A469F
:1040600001222046294602F018FD00223B4602F0BC
:10407000C7F84246534601F007FE04460D463EE0AF
:1040800001260022BA463B462046294601F04CFD57
:1040900080460F46002253462046294602F0B0F8DB
:1040A00042463B4601F0F0FD04460D4627E04B49F1
:1040B00081421BDDDFF828A102260022534620465C
:1040C000294601F093FF00223B4601F02DFD80467A
:1040D0000F46002253462046294602F091F84246F8
:1040E0003B4601F0D1FD04460D4608E0032622467A
:1040F0002B4600203B4901F0C7FD04460D462246F1
:104100002B461046194601F071FF8B468246024647
:104110000B4601F06BFF07460246334888460B46C4
:1041200006217844FFF778FE52465B4601F05EFFB9
:1041300082462E488B463A46434605217844FFF78F
:104140006BFE3A46434601F051FF02460B46002EF5
:10415000504659460CDA01F0E7FC22462B4601F0A6
:1041600045FF01B022462B46BDE8F04F02F03CB8B7
:1041700001F0DAFC22462B4601F038FF1C4A7A4453
:1041800002EBC603D3E9002302F03AF822462B469D
:1041900002F036F8174A7A4402EBC603D3E900234B
:1041A00002F022F8009A002AB8BF81F00041BDE871
:1041B000F88F0000000010440000F07F182D4454D8
:1041C000FB21F93FFB21F9BF0000DC3F0000203E4E
:1041D0000000F33F0000F03F0000E63F0080034096
:1041E0000000F83F0000F0BF422B0000002B000051
:1041F0009E2A0000662A00002DE9F04D9446CCF17D
:10420000000423F000464CEA0404524F46EAD474FA
:104210009A46884621F00042BC4206D8454240EA10
:10422000050442EAD474BC4204D9BDE8F04D6246AC
:10423000FFF7C1BEAAF14055A5F17F6555EA0C0410
:104240000BD0022404EAAA74434DDFF810E144EADB
:10425000D87452EA000B04D00CE0BDE8F04DFFF733
:10426000BBBE002C14BF012CBDE8F08D022C30D059
:10427000032C32D056EA0C0B0AD0BE4220D1BA42EF
:1042800009D126F0804622F080423346114617E0DD
:1042900000291ADB25E0DFF8C8B0FB44002C04BF7E
:1042A000DBE90001BDE8F08D012C02BFDBE9000174
:1042B00081F00041BDE8F08D022C0AD0032C0CD017
:1042C000BA4212D1B8F1000F0BDA23482549BDE8F4
:1042D000F08D28462449BDE8F08D28467146BDE89A
:1042E000F08D1D482149BDE8F08D921B12153C2A26
:1042F000C4BF19481D490EDCBAF1000FBEBF12F150
:104300003C0F0020014606DB624601F0BDFC21F0B7
:104310000041FFF761FE002C08BFBDE8F08D012CC5
:1043200004BF81F00041BDE8F08D114A114B022C11
:1043300007D001F065FF2A46BDE8F04D0A4B01F0B9
:104340005FBF01F05DFF2A46BDE8F04D064B01F06E
:104350004BBF00000000F07F182D4454FB2109C022
:104360002A2A0000FB21F9BFFB210940FB21F93F6C
:10437000075C143326A6A13C2DE9F04105460E4604
:10438000104602F027F801F037F804460F46304691
:1043900002F020F83B46224601F028FE06460C4675
:1043A000284602F017F83246234601F0BDFB01F023
:1043B00089FB044602F00EF8FBF772FF012800DAD1
:1043C00000242046BDE8F08170B505460548144636
:1043D0001668006802F0E4F9296802F027F8206006
:1043E0002E6070BD200000202DE9FC5F06461F46B0
:1043F00090468946D2F800A0086801F0EBFF044619
:104400000D4601913946304602F096FA01F0E2FF7E
:10441000DFF85CB006460F46DBF80400009001F0C0
:10442000D9FF6FF0010202F038FB32463B4601F043
:10443000DDFD2B46224601F0E3FE06460D460099BF
:10444000DBF8000002F0ACF901F0C4FF32462B4665
:1044500001F0CCFD02460B462046019901F064FBB9
:1044600001F030FBC8F80000C9F800A0BDE8FC9FCF
:10447000200000202DE9FC5F06461F469046894635
:10448000D2F800A0086801F0A5FF04460D4601918E
:104490003946304602F050FA01F09CFFDFF85CB07C
:1044A00006460F46DBF80800009001F093FF6FF01E
:1044B000010202F0F2FA32463B4601F097FD2B462C
:1044C000224601F09DFE06460D460099DBF80000ED
:1044D00002F066F901F07EFF32462B4601F086FDC0
:1044E00002460B462046019901F01EFB01F0EAFA54
:1044F000C8F80000C9F800A0BDE8FC9F200000201B
:104500002DE9F0470446994692460E460F6800682A
:1045100001F060FF00F070FF01F0D4FA00F05CFFE2
:1045200005464946084602F03BF94FF07E584146A1
:1045300002F00CFA294602F033F905464146484696
:1045400001F074FF014602F02BF9294602F0FEF952
:104550000A49096802F024F9514602F021F96FF086
:10456000010102F0C8FA494601F0D4FF216801F0C8
:104570005DFF30602760BDE8F0870000200000206C
:1045800070B50546054814461668006802F008F93B
:10459000296801F04BFF20602E6070BD20000020D4
:1045A000FCF764FFFEF765FEFEF7AEFCFEF79CFD30
:1045B000FEF70AFDFEF760FDFEF708FCFEF72CFC97
:1045C000FEF750FCFEF7B2FDFEF7DEFCFEF74EFBF9
:1045D00000211B48FDF73CFC0C211948FDF738FC75
:1045E00000211848FDF734FC5A220121B42000F0C4
:1045F000B1FE3220FCF770FB87220221500000F050
:10460000A9FE3220FCF768FB5A220321B42000F0F7
:10461000A1FE4FF4FA60FCF75FFB0B4C00224FF455
:1046200080412046FCF75AFC00224FF4004120460E
:10463000FCF754FCFEF734FC00F074F9FEE70000D0
:10464000340500207C0500200010014001460020B8
:10465000842900D0C81C70470EB501F067F9DFF857
:104660009C92DFF89C82A74EA74C09F1300AA9F171
:10467000CC0B0025A9F5A67700903078012873D1DE
:104680002078112802D020780F286ED198F80010D9
:104690004046572969D1417821297ED101792129C4
:1046A0007BD1017A212978D1C17A212975D10121C3
:1046B000CBF8281098F8030000F0EEFE019098F86F
:1046C000020000F0E9FE914902F06AF8019901F058
:1046D000ADFEC9F8000098F8070000F0DDFE01907B
:1046E00098F8060000F0D8FE884902F059F80199C0
:1046F00001F09CFEC9F8040098F80A0000F0CCFE16
:10470000019098F8090000F0C7FE804902F048F8CF
:10471000019901F08BFE7E4901F0FCFEC9F808000A
:1047200098F80E0000F0B8FE784901F0F3FE029010
:1047300098F80D0000F0B0FE019098F80C0000F021
:10474000ABFE724902F02CF8019901F06FFE02995C
:1047500001F06CFEC9F80C00019098F805002D28B6
:1047600004D0D9F808000FE0AAE016E0D9F8040058
:1047700080F00041C9F804104FF07E50D9F80810BD
:1047800001F0C8FEC9F8080010F0FF4F03D06149DE
:104790000198884201DDCBF828502078112802D0FA
:1047A00020780F287ED198F800104046582979D1FA
:1047B000417821297ED1017921297BD1017A2129D2
:1047C00078D1C17A212975D10121CBF82C1098F824
:1047D000030000F061FE019098F8020000F05CFE1A
:1047E0004A4901F0DDFF019901F020FECAF80000FE
:1047F00098F8070000F050FE019098F8060000F0CD
:104800004BFE424901F0CCFF019901F00FFECAF8BE
:10481000040098F80A0000F03FFE019098F80900A3
:1048200000F03AFE394901F0BBFF019901F0FEFDAD
:10483000374901F06FFECAF8080098F80E0000F042
:104840002BFE324901F066FE029098F80D0000F050
:1048500023FE019098F80C0000F01EFE2B4901F099
:104860009FFF019901F0E2FD029901F0DFFDCAF816
:104870000C00019098F805002D2802D0DAF8080005
:104880000DE0DAF8040080F00041CAF804104FF09F
:104890007E50DAF8081001F03DFECAF8080010F06A
:1048A000FF4F00E006E003D01A490198884201DD7D
:1048B000CBF82C50357021781148FBF727FD257077
:1048C00064220F491448FDF715FD144A911E881EF5
:1048D000FEF79AF9114A921D911E881EFEF7ADF956
:1048E000FBF714FE0E48FCF717F80120FEF748FC12
:1048F000F8606421684600F097FEBEE6780100206B
:10490000C4050020BB010020BA01002000002041A6
:104910000000C842000040416C0700203000002029
:104920008004002010B500F0C5FE002010BD7FB54A
:104930000D4604464169B0F9080081B1A16971B121
:10494000FFF784FED4E905128DE80700D4E90010D2
:104950002B46226900F0B1FF039004B070BDFFF751
:1049600075FE03A9CDE90001208A2B4682B2D4E965
:10497000001000F075FF012801D00020EDE703983A
:10498000EBE700002DE9F041184C0F46054666693B
:104990002068001D00F084FD38B9206890F82C10C4
:1049A00001208840A1698143A161681C07D137B10A
:1049B0002168BDE8F0410E48091D00F0B5BD206832
:1049C0003544B5424560216805D2A068BDE8F04194
:1049D000091D00F091BD6068091D00F08DFD206B80
:1049E000854200D22563BDE8F0810000CC010020A3
:1049F000140900202DE9F041054600F0A1FD2E4CE0
:104A00002069401C206120682C4F10B1E06940B340
:104A10002DE025602069012829D1002606EB8600BB
:104A200007EB800000F05AFD761C072EF6D32348D2
:104A30008C3000F053FD2148A03000F04FFD1F489E
:104A4000B43000F04BFD1D48C83000F047FD1B4856
:104A5000DC3000F043FD19488C3060601430A060F9
:104A600005E02068E96AC06A884200D82560E06AEB
:104A7000401CE062E96A0120A26988401043A061FD
:104A800001EB810007EB8000291D00F04DFD00F0D7
:104A900077FDE06900280CD02068E96AC06A884286
:104AA00007D207494FF080500860BFF34F8FBFF324
:104AB0006F8FBDE8F0810000CC0100203808002095
:104AC00004ED00E010B5044690F8510058B10128FB
:104AD0000CD002280FD0502080F31188BFF34F8FE5
:104AE000BFF36F8FFEE7206B00F05EFD2046BDE850
:104AF000104000F059BD10BD10484FF4406142070E
:104B000006D0C01D0D4920F00700411AC1F54061D3
:104B10000B4A00230144C2E900030839103A21F08E
:104B2000070111604B600B600B1AC0E90013936022
:104B30004FF000405360D06070470000280900200B
:104B400018020020144E154CA6F1C8074FF08058EB
:104B5000DFF84C9012E000BF00F0F2FCF068C5688E
:104B6000281D00F09DFC2069401E2061E068401E69
:104B7000E06000F005FD2846FFF7A4FFE06800288C
:104B8000EAD138680128F9D9C9F80080BFF34F8FFE
:104B9000BFF36F8FF2E7000000090020CC01002076
:104BA00004ED00E02DE9F0479A46DDE909848146ED
:104BB0006FF00303206B03EB82021044089D20F08A
:104BC0000706700707D0502080F31188BFF34F8F7E
:104BD000BFF36F8FFEE723180A5C83F834200A5C6A
:104BE00012B1401C1028F6D3002784F84370072D1B
:104BF00000D30625E562C4E91157201D00F079FCB9
:104C000004F1180000F075FC2461C5F1070064622E
:104C1000A061E76484F8507052464946304600F07F
:104C2000BFF82060B8F1000F01D0C8F80040BDE81F
:104C3000F087000030B5114900E011460A68824251
:104C4000FBD34B685C18844203D140681844486029
:104C5000084643681C18944209D1084C103C24684B
:104C6000A24209D052681A4442600A68126802607F
:104C7000814200D0086030BD0460F9E718020020CE
:104C800006484168096829B14168C968C968496826
:104C9000016370474FF0FF31FAE70000CC010020BC
:104CA00008484068401C4FF0500080F3118804D041
:104CB000BFF34F8FBFF36F8FFEE7BFF34F8FBFF38D
:104CC0006F8FFEE7200200202DE9F0410546002706
:104CD00000F026FD314E306808B9FFF70DFFF0688F
:104CE00005424BD1C5B3083568070ED005F0070063
:104CF000C0F108000544680707D0502080F31188F0
:104D0000BFF34F8FBFF36F8FFEE72DB370688542FF
:104D100034D82248103001460C6801E020460C4689
:104D20006168A94202D221680029F7D131688C421A
:104D300024D007682168016060680837411B10298A
:104D40000FD96019420708D0502080F31188BFF3B3
:104D50004F8FBFF36F8FFEE710E041606560FFF794
:104D600069FF61687068401A7060B268904200D252
:104D7000B060F06801430020C4E9000100F040FE8B
:104D8000780707D0502080F31188BFF34F8FBFF30F
:104D90006F8FFEE73846BDE8F08100000802002072
:104DA00010B5031F4FF080741C601B1F21F0010120
:104DB0001960191F024B0B60143940380A6010BD8E
:104DC000A14C000808B500F0B1FDFE4FDFF8F8B3C4
:104DD000DFF8F8A30090FB4CAC3C606DD0B104F15F
:104DE000CC010020A1F1700251F8203042F82030AF
:104DF000401C0428F8DB206DF54958457ED9F14860
:104E0000303800F1100201601160F24941605160D8
:104E1000F149B0E1216D594511D9EA4AEC49303ADE
:104E200002F1100011600160EA4951604160EA49F5
:104E300091608160C2F80CA0C0F80CA01FE0E448AB
:104E400081420BDDDF49303901F11002086010604A
:104E5000E248486050604FF07F500AE0D949002096
:104E6000303901F1100208601060486050604FF066
:104E70007E5088609060C1F80CA0C2F80CA0D14EA2
:104E80000020103EA6F1200505F1100955F820106C
:104E900046F8201059F8201047F82010401C04282C
:104EA000F4DBCF48216AC06801F046FC0BD2206BCE
:104EB00001282AD0C348CB4950380160CA49416013
:104EC000C549C0E9021ABF4900204039A1F11008C4
:104ED00058F8202041F82020401C0428F8DB606AA4
:104EE00001281FD0022827D003283ED0042853D001
:104EF000052879D0062873D0072800E01CE170D07F
:104F000008286FD000286ED04FE1AE491031A1F1D2
:104F100060000A6802604A6842608A688260C96804
:104F2000C160D0E70020C8F80000C8F804004FF0C6
:104F30007E50C8E9020AF9E0206B012808D0A94890
:104F4000C8F800000020C8F804004FF07E502EE0A2
:104F50009C4810300168C8F800100021C8F80410FF
:104F60004FF07E5115E0C06836E0206B012807D075
:104F70009C48C8F800009C48C8F80400964816E011
:104F8000904810300168C8F800104168C8F8041053
:104F90008168C8F80810E6E7206B01280AD091481C
:104FA000C8F800009148C8F804004FF07F50C8E9E5
:104FB000020AFAE0834D10352868C8F800006868D6
:104FC00080F00040C8F804004FF07E50A96801F05E
:104FD000A1FAC8F80800E868C8F80C00E5E003E0AA
:104FE0002CE066E077E08DE07F492960C9F8001089
:104FF0006960C9F804107849A960C9F80810C5F8B3
:105000000CA0C9F80CA0616B4846012909D16D4973
:1050100030310A682A604A686A608A68AA60C9688A
:10502000E960A16B012943D1664940310A680260F9
:105030004A6842608A688260C96849E06A492960B2
:10504000C9F8001069496960C9F804104FF07F5130
:10505000A960C9F80810C5F80CA0C9F80CA0606BCD
:1050600001280FD1574E303630682860706880F0C4
:10507000004068604FF07E50B16801F04BFAA860C4
:10508000F068E860A06B012812D14E4D4E464035C5
:105090002868C9F80000686880F00040C9F804007A
:1050A0004FF07E50A96801F035FAB060E868F06012
:1050B0007BE000212960C9F800106960C9F804107C
:1050C0004FF07E51A960C9F808105146C5F80CA0F0
:1050D000C9F80C1069E000204FEA090356F82020B7
:1050E00045F8202057F8202043F82020401C0428B1
:1050F000F4DB002051F8202048F82020401C042830
:10510000F8DB52E00020C5F80CA04FF07E53286079
:10511000C5E90103C9F80000C9E90103C9F80CA0F9
:10512000C8F80CA0C8F80000C8E90103206B0128EA
:105130003BD12448103016E7884211DD214B274827
:10514000303B03F1100219601160586050604FF05D
:105150007F5098609060C3F80CA0C2F80CA010E0DB
:1051600018480021303800F11002016011604160E0
:1051700051604FF07E5181609160C0F80CA0C2F880
:105180000CA0E06A012810D10E4A00205032A2F192
:105190008003A2F1700500BF52F8201043F82010E0
:1051A00045F82010401C0428F6DB064E0C4D503EFE
:1051B000A6F1C002111F73682869FFF715F905F100
:1051C000140215E058010020000020C1C3F5C840BA
:1051D000000020410000A040C3F5283F0000A0C00F
:1051E0002C0000200000E04100007041000070C170
:1051F000101FE969FFF7E8F805F12C02111F336869
:10520000286AFFF737F905F12402101FE96AFFF752
:10521000B7F9D6E9023205F13401081FFFF770F93A
:105220006A6B696A6869FFF7A7F82036A06005F124
:105230004402111F7368A86BFFF7D6F805F13C0212
:10524000101F696CFFF7C0F805F15402111F336895
:10525000A86CFFF70FF905F14C02101F696DFFF7FD
:105260008FF9D6E9023205F15C01081FFFF748F912
:10527000EA6DE96CE86BFFF77FF81036E06005F146
:105280006C02111F7368286EFFF7AEF805F1640217
:10529000101FE96EFFF798F805F17C02111F3368C3
:1052A000286FFFF7E7F805F17402101FE96FFFF7A9
:1052B00067F9D6E9023205F18401081FFFF720F9EA
:1052C0006268696F686EFFF757F820611E49A06831
:1052D00001F0ACF8616901F0A9F801F0F9F982B2C6
:1052E00002214FF4877000F035F8184EE16830461F
:1052F00001F02CFBA16901F099F801F0E9F982B203
:105300000121B42000F026F83146206901F08EF822
:10531000E16901F08BF801F0DBF982B20321B420DE
:1053200000F018F80A48696B814202DD00216963C8
:105330002963E96D814202DD0020E865A8650F213F
:10534000684600F071F946E5000007430000B442EA
:10535000005075472DE9F0410E46194B1949174F7A
:105360001D680C68B4281AD0B0F5877F15D1104697
:1053700000F028FE144A154B00F038FE00223B4690
:1053800000F0D2FB00F09EFB012E0ED0022E10D0BA
:10539000032E02D101F09CF92064BDE8F081104693
:1053A00000F010FE0A4A0B4BE6E701F091F9686342
:1053B000F3E701F08DF96063EFE7000000407F4004
:1053C0007C05002034050020A4703D0AD7A31D40B1
:1053D000B81E85EB51382640B0F5000F02DB4FF0C8
:1053E0007E50704710F1FF4F01D3024870470020F4
:1053F00070470000000080BF00B5254B21F000423F
:1054000087B09A4203DC0022134600922BE0214B26
:105410009A4208D140B94FF00100FAF7C8FFFEF7F1
:10542000CCFD07B000BD03DBFEF7C2FD07B000BD39
:1054300002AAFEF7AFFA10F003014FF001000DD001
:10544000012914D002291AD00DF1080C9CE80F0094
:10545000FEF764FC07B081F0004100BD0DF1080CBF
:1054600000909CE80F00FEF72DFD07B000BD0DF188
:10547000080C9CE80F00FEF751FC07B000BD0DF1D1
:10548000080C00909CE80F00FEF71CFDE2E700000E
:10549000FB21E93F0000F07F3038C0B201F038B99D
:1054A000D0E9013201699A60D0E901235A604A6863
:1054B000824201D182684A60002202610868401E6F
:1054C0000860086870470000034B036003F1540054
:1054D00008608020106070472C02002000F1080155
:1054E0004FF0FF32C0E90112C1600161002101608B
:1054F000704700210161704730B50B685A1C02D01B
:1055000000F1080202E0026904E0224654682568BE
:105510009D42FAD953684B6099608A605160086176
:105520000168491C016030BD42684A6093688B6025
:1055300093685960916008610168491C0160704777
:10554000502080F31188BFF34F8FBFF36F8F0A494C
:105550004868401C486001280CD10848006810F0D9
:10556000FF0F07D0502080F31188BFF34F8FBFF398
:105570006F8FFEE7704700002002002004ED00E07E
:105580000849486828B1401E486001D180F311885D
:105590007047502080F31188BFF34F8FBFF36F8F98
:1055A000FEE700002002002070B5002827D0144D2F
:1055B000A0F108046168E868014207D1502080F337
:1055C0001188BFF34F8FBFF36F8FFEE722683AB1A8
:1055D000502080F31188BFF34F8FBFF36F8FFEE72A
:1055E0008143616000F09CF8606869680844686005
:1055F0002046FFF71FFBBDE8704000F001BA70BD08
:10560000080200204FF0E02000210161816105497E
:105610004FF47A720968B1FBF2F1491E416107212A
:1056200001617047C801002070B50D4604000BD021
:1056300095B11E4A906BB8B1502080F31188BFF32A
:105640004F8FBFF36F8FFEE7502080F31188BFF3B9
:105650004F8FBFF36F8FFEE7502080F31188BFF3A9
:105660004F8FBFF36F8FFEE700F05AF8526923683F
:105670005919934204D98B420AD9914202D807E0C2
:105680008B42FAD9881A21600021FFF77BF900E0EC
:10569000216000F0B5F9002807D105494FF080508E
:1056A0000860BFF34F8FBFF36F8F70BDCC01002038
:1056B00004ED00E010B586B00024039405AA04A907
:1056C00003A80494FFF700FFDDE903010094CDE98E
:1056D000011000230EA11048059A00F0EEF80F49C2
:1056E0000028486311D0502080F31188BFF34F8FFA
:1056F000BFF36F8F4FF0FF3008630120C8614C612A
:1057000006B0BDE8104000F041B806B010BD000082
:1057100049444C4500000000454B0008CC010020E6
:105720000248816B491C816370470000CC01002056
:105730001448816B11B1012141627047002141621F
:105740008169B1FA81F1C1F11F0101EB81020E49BA
:1057500051F822306BB101EB820101F108034A6874
:1057600052684A609A4201D152684A60D168016029
:105770007047502080F31188BFF34F8FBFF36F8FB6
:10578000FEE70000CC010020380800201CB52649A7
:1057900008780190FF20087008788DF800009DF8C7
:1057A00000009DF8002000F0F000904207D050204B
:1057B00080F31188BFF34F8FBFF36F8FFEE79DF823
:1057C00000001A4B00F0500018700720986005E0A8
:1057D0009DF8002052008DF80020401E9DF800200A
:1057E0001206F5D49860032807D0502080F3118862
:1057F000BFF34F8FBFF36F8FFEE74FF44070986099
:10580000019808700A48016841F47001016001685C
:1058100041F070410160FFF7F5FE00205860FAF793
:10582000E5FC00201CBD000000E400E02002002098
:1058300020ED00E010B5502080F31188BFF34F8FAA
:10584000BFF36F8F00F078F818B104494FF0805023
:105850000860002080F3118810BD000004ED00E016
:105860002DE9FF5F8346DDE90E87994616468A4695
:105870009000FFF729FA05001CD05420FFF724FA06
:10588000040014D00020256384F85100CDE90240C3
:10589000CDE900874B46324651465846FFF782F91C
:1058A0002046FFF7A7F8012004B0BDE8F09F284686
:1058B000FFF77AFE4FF0FF30F6E7F0B585B0DDE98F
:1058C0000B640A9DA6B1DCB154270097266302261B
:1058D00084F85160002604AFCDE90246CDE90057B7
:1058E000FFF760F92046FFF785F8049805B0F0BD92
:1058F000502080F31188BFF34F8FBFF36F8FFEE707
:10590000502080F31188BFF34F8FBFF36F8FFEE7F6
:105910000548C16919B1806B18B10020704701209A
:105920007047022070470000CC0100200148406908
:1059300070470000CC0100202DE9F0412E4C0027DB
:10594000A06B40B1206A401C2062606A00B1012750
:105950003846BDE8F0816669761C666113D16068DF
:10596000006838B1502080F31188BFF34F8FBFF328
:105970006F8FFEE76068A1686160A060A06A401C4C
:10598000A062FFF77DF9206BDFF87080864209D3B3
:105990006068006880B16068C068C56868688642F1
:1059A0000DD220632068C06A00EB800158F8210006
:1059B0000128CAD90127C8E74FF0FF30F1E7281DB9
:1059C000FFF76EFDA86A18B105F11800FFF768FD32
:1059D000E86A0121A26981401143A16100EB8001C5
:1059E00008EB8100291DFFF79FFDE86A2168C96A5D
:1059F0008842CDD30127CBE7CC0100203808002016
:105A00002DE9F0472C4D00242746A86B38B1FFF74D
:105A100097FDA86B401EA863A86B40B146E05020DC
:105A200080F31188BFF34F8FBFF36F8FFEE72969B3
:105A3000224E0120D1B3A6F1B40980463068E8B106
:105A4000F068C46804F11800FFF72AFD201DFFF775
:105A500027FDE06AAA6908FA00F11143A96100EB89
:105A6000800109EB8100211DFFF75EFDE06A2968D6
:105A7000C96A8842E2D3C5F82480DFE70CB1FFF79A
:105A8000FFF82C6A44B14646FFF756FF00B16E623C
:105A9000641EF9D100202862686A38B108490127DC
:105AA00038070860BFF34F8FBFF36F8FFFF768FDB4
:105AB0003846BDE8F0870000CC010020EC0800204B
:105AC00004ED00E021F00042A2F16052B2F5801F27
:105AD00001F0004328BFD2F17F6C0BD95FEA001CB4
:105AE00043EAC20242EB507018BF704728BF20F053
:105AF00001007047B2F5801FBCBF184670474FEADF
:105B0000410C1CF5001F02D2084600F010BF70B512
:105B100000F016FB00000089FFF7F6BF4FF00040D1
:105B2000A0F580007047000010B591EA030F48BF50
:105B300083F0004300F16C83841A71EB030C05D2EF
:105B4000121943EB0C03001B61EB0C01DFF824E19D
:105B50004FEA1154A4EB135C1EEA430F18BF9EEAF0
:105B6000445F73D023EA0E03DCF1200E21EA0451D6
:105B700043F4801332D322FA0CFE10EB0E0023FA0A
:105B80000CFE41EB0E01CCF1200E03FA0EFE10EBE1
:105B90000E0051F10001B1F5801FCCF1200E32D280
:105BA00001EB045112FA0EF2BDE8104058BF7047E5
:105BB000401C38BF5FEA420218BF7047002814BF7C
:105BC00020F0010041F100014FEA410313F5001FED
:105BD00038BF7047A1F1C04100F000BB012A43EB80
:105BE0000302ACF1200CDCF11F0E32BF4FF0000EAF
:105BF00023FA0CF310EB030041EB0451B4EB115FFB
:105C0000D0D0A1EB045101F5801149085FEA3000C2
:105C100001EB04510ED350F1000038BF12FA0EFE12
:105C200008D1BDE81040C9E7401C38BF5FEA420216
:105C3000CAD1C3E7BDE810404FEA410313F5001F86
:105C400038BF7047A1F1C04100F0C8BA9EEA445F76
:105C500008D011EA5E0FBDE8104004BF01F000411A
:105C600000207047BDE8104070B500F069FA00BF31
:105C700064FBBE3E0000E0FF02494FF0000000F070
:105C8000DABE00BF0000F87F2DE9C04130B4DFF874
:105C9000A0C23CEA111418BF3CEA131400F0EC80D7
:105CA00081EA03051CEA111444EAD57418BF1CEA02
:105CB000131500F0C780A4EB05044FF0004545EA3A
:105CC000C12145EAC32341EA505143EA525304F14A
:105CD0007F74994204F500344FEAC0204FEAC22293
:105CE00008BF904200F09C804FEA13650FF2401607
:105CF000765D4FEA134506FB05F7C7F1807706FB93
:105D000007F74FEAD737A7FB03687642C8F5803814
:105D1000A7FB06CE38BFA8F1010807FB08E64FF045
:105D2000000EA6FB028CE6FB03CEDCF1000CCEF1EC
:105D3000004E38BFAEF1010EA6FB0C584FF0000725
:105D40004FF00005E6FB0E87A1FB08C6A0FB07CEBF
:105D500016EB0E0645F10005E1FB076515F1E04E77
:105D60007EBFA4F580345FEA46066D4116F18007D8
:105D700045F100054FEA17274FEA066647EA05672F
:105D8000A6F1DE46B6F1805F4FEA15251FD93846E9
:105D900024F0010C05EBC471BCF1FE6F01EB0C119A
:105DA00002D8F0BCBDE8008124425CBF01F5801E32
:105DB0009EEAC47F02D4F0BCBDE80081244238D4FE
:105DC000F0BCA1F1C041BDE8004100F007BA4FEAC4
:105DD000D22242EA43524FEAD323A7FB02864FEA7C
:105DE000D02040EA415007FB03661EEA0E0F4FEA3F
:105DF000D12105FB026658BFA6EB0056B6EB005654
:105E00004FEA520E4EEAC37E18EB0E0E56EB530EBF
:105E1000BDD518EB02085E417F1C55F10005B6E7C1
:105E20004FF480154FF000074FF000064FF00008C8
:105E3000ADE7F0BC4FF0000001F1C04101F00041BE
:105E4000BDE8008111EA0C1F0CEA131500D00CE02C
:105E500013EA0C1F00F025804FF00000F0BC81EA2F
:105E6000030101F00041BDE80081F0BCBDE8004144
:105E700081EA030100F0B2B9F0BCBDE8004170B5A1
:105E800000F05EF9097EFC3E00F007B881EA0301EC
:105E90004FF0000001F00041704781EA030100F07B
:105EA0009DB9F0BCBDE800414FF0000021497047AA
:105EB000FFFDFBF9F7F5F4F2F0EEEDEBE9E8E6E4CF
:105EC000E3E1E0DEDDDBDAD8D7D5D4D3D1D0CFCD56
:105ED000CCCBCAC8C7C6C5C4C2C1C0BFBEBDBCBB8F
:105EE000BAB9B8B7B6B5B4B3B2B1B0AFAEADACAB8A
:105EF000AAA9A8A8A7A6A5A4A3A3A2A1A09F9F9E64
:105F00009D9C9C9B9A999998979796959594939315
:105F1000929191908F8F8E8E8D8C8C8B8B8A8989AC
:105F2000888887878685858484838382828181802F
:105F30000000FF070000F87F4FEA41034FEA535388
:105F4000A3F58063D3F11E03C8BFD3F1210C0CDD90
:105F50004FF0004242EAC12242EA505232FA03FCB8
:105F60008CEAE17CACEBE1707047102BC4BF0020E1
:105F7000704703F5787CBCF1FF3F04D06FF000421E
:105F800082EA2100704770B500F0DAF84992248067
:105F900000207047F2E710F0004248BF4042B0FADC
:105FA00080F310FA03F10AD0C3F11D0303F58063F7
:105FB0004FEA415002EB035202EBD12170474FF000
:105FC00000007047B0FA80F310FA03F10AD0C3F171
:105FD0001D0303F580634FEA41504FEA035202EB81
:105FE000D12170474FF0000070470000DFF848C132
:105FF00070B51CEA111E1EBF1CEA13159EEA0C0F99
:1060000095EA0C0F00F06F8081EA030423EA4C1339
:106010004EEAD47E21EA4C1141F4801143F48013FE
:10602000AE44A1FB024CA0FB0365AEF17F7E3619A6
:1060300055EB0C05A1FB034C4CF10003A0FB021C2B
:1060400016EB0C06654153F10003094218BF46F0F8
:10605000010613F4007F0BD14FEA03314FEA0530FC
:10606000340341EA155140EA16506FF003020AE08A
:106070004FEAC3214FEAC520F40241EA555140EAF4
:1060800056506FF0020202EB2E4201EB025585EAF8
:10609000CE710AD05FEA440C18BF24F0004450F1DE
:1060A000000041F1000120EAD47040F2FE7C62451C
:1060B00000D270BDA84214BF4FF080444FF040445E
:1060C000002E08BF0024BEF1806FA8BFA1F1C0411F
:1060D000BDE8704080F282804FF0000001F1C041C5
:1060E00001F0004170479EEA0C0F0CEA131518BF2F
:1060F00095EA0C0F06D04FF0000081EA030E0EF077
:10610000004170BD00F01CF88900013E00F007B8A6
:1061100000F009B84FEA430C5FEA5C5C08D081EA02
:10612000030100F05BB84FEA410C5FEA5C5CF6D11A
:106130004FF00000014970470000FF070000F87FA2
:106140000EF1020E2EF0030E5EF8046B364205D4FB
:10615000012A43EB030515F5001F12D8012841EB76
:10616000010C1CF5001F0CD80ED14FEAD17C15F59F
:10617000001F0CEB4C0C0CF1020C08BF4CEBD37C59
:1061800004E04FF0080C01E04FEAD37C0CEB4C0527
:1061900026FA05F606F00706B6F1040C06D20EEB59
:1061A000860CBDE870404CF0010C6047DFE80CF055
:1061B000090B02024FF000414FF00000A1F5002151
:1061C00070BD19461046012851EB010418BFD4F5E3
:1061D000001484BF002001F0004170BD0808A0F544
:1061E00000114FEA3101704791EA030F10B581F0B9
:1061F00000413FF5A1AC83F0004300F009B8000076
:1062000010B591EA030F48BF83F000433FF594AC0B
:10621000841A71EB030C07D212198CF0004C43EB7B
:106220000C03001B61EB0C01DFF8A4E14FEA1154F1
:10623000A4EB135C1EEA430F18BF9EEA445F00F014
:10624000B08023EA6E03524221EA0451C3EB6E038D
:1062500038BF5B1EDCF1200E25D322FA0CFE10EBBA
:106260000E0043FA0CFE41EB0E01CCF1200E03FAB6
:106270000EFE10EB0E0051F10001CCF1200E29D4DE
:1062800012FA0EF201EB0451BDE8104058BF7047FE
:10629000401C1CBFB2F1004F704700280CBF491CC6
:1062A00020F00100704712EB020E43EB030218BF0F
:1062B0004FF0010E4EEA4202ACF1200CDCF11E0E52
:1062C00054D943FA0CFE10EB0E0051F1FF31CCF122
:1062D0001E0ED5D50EF1010E12FA0EFE404141EB15
:1062E000010101EB445C5FEA5C5C10D910EBDE70ED
:1062F00001EB045138BFBEF1004FBDE8104018BF9C
:10630000704700280CBF491C20F00100704730D2B4
:106310004FEAD42C11F5001124F400641BD0B1FA1B
:1063200081F20B3AA41AA41ED2F12003914030FA54
:1063300003F31943904001EBCC71002C01EB0451A5
:10634000BDE81040A8BF704701F1C0414FF0000008
:1063500001F000417047B0FA80F310FA03F100D168
:1063600010BDE41A173C4805C90AE4E701EB0451E3
:1063700010BD491001EB0451BDE810404FEA300058
:1063800002E04FF0000170474A0008BF0042F8D019
:10639000B2F5001F28BF704701F000414FF0000028
:1063A00070479EEA445F07D011EA5E0FBDE81040D7
:1063B00004BF002100207047BDE8104070B5FFF712
:1063C000BFFE00BF40DFF63E83F00041104670473D
:1063D0000000E0FF43004FEAD30C4FEA3C0C43407F
:1063E0001FBF40070CF1605113F0FE4F70471CF0C7
:1063F000006F03D100200CF0004170470CF0004307
:1064000043EA507010B540EACC0000F04AFA00BFF1
:10641000000000924FEA0001FFF7E0BE4FF000419C
:106420004FF00000A1F500217047000090EA010F35
:1064300048BF81F0004100F19082421A3CBF801AAF
:1064400089184FEAD0524FF07F4C1CEA410FA2EB63
:10645000D15318BF9CEA026F00F03B804FF0004C14
:106460004CEA00204CEA012121FA03FC10EB0C0C51
:106470001ED202F1FF325FEA1C2040EBC25038BF4F
:1064800070471CF07F0F4FEA400C18BFBCF17F4FE4
:1064900038BF7047C3F12003994008BF20F00100C6
:1064A000BCF17F4F38BF7047A0F1C04000F03FBA49
:1064B0004FEA3C00000A40EBC25028BF1CF0FF0F1F
:1064C0004FEA400CE6D018BFBCF17F4F38BF704791
:1064D000EAE79CEA026F05D010EA5C0F08BF00F003
:1064E0000040704710B500F0DCF900BF64FBBE3E11
:1064F000014800F0A0BA00BF0000C07F401058BFA4
:10650000C0F14040491058BFC1F140418142EFF312
:10651000008070474FF47F0C1CEAD0121EBF1CEAAB
:10652000D11392EA0C0F93EA0C0F00F0858090EAE9
:10653000010F48BF42F4807240F4000C41F40000A7
:106540002CF07F4120F07F4000B58142A2EB030296
:106550000FF2081CACEB504EC0F100009EF800E0BA
:106560004FEA4E0E00FB0EFC38BF49004FEA2C1CD0
:1065700002F5FA020CFB0EF34FEACE1E4FEA112C85
:106580004FEAC1210EEB635E42EB22420EFB0CFC94
:106590004FEA1C5300FB03114FEA112C4FEA013163
:1065A0000EFB0CFC4FEADC4C00FB0C11C14228BF77
:1065B00009184CEB03335DF804EB10EB410143EB9E
:1065C000C250B2F57C0F38BF704729D512F0F00FDA
:1065D0001CBF00F1C04000F0004070470081828382
:1065E0008485868788898B8C8D8E8F9192939596E2
:1065F00097999A9C9D9FA0A2A3A5A7A8AAACAEB06C
:10660000B2B3B5B7B9BCBEC0C2C5C7C9CCCED1D470
:10661000D7D9DCDFE2E6E9ECF0F3F7FAFE000000A0
:106620004FEA400C0CF1807CBCF17E4F28BF7047D4
:10663000B0F1C04000F07BB990EA010F0CEAD11331
:1066400048BF42F48072624538BF634507D213F4F5
:106650007F0F16D080EA010000F00040704710B5AF
:1066600000F01FF9097EFC3E00F005B880EA010049
:1066700000F00040704780EA010000F0004000F0A8
:1066800056B912F47F0F04BF0248704780EA010038
:1066900000F04DB90000C07F41000B0ED3F19E0207
:1066A00008D950F400034FEA032323FA02F048BF4D
:1066B0004042704710B500F0F4F800BF49922480C2
:1066C000002070476FF0004282EA2000704700000F
:1066D000C10DD1F19E0206DB4FEA002343F00043D7
:1066E00023FA02F07047004207D54FEA4001B1F1AA
:1066F000FE4F02D24FF00000704710B500F0D1F805
:1067000049922480002070476FEA20007047000003
:10671000B0FA80F310FA03F2C3F19D030AD0D90551
:1067200001EB1220530638BF704700F1010008BF8B
:1067300020F001007047000050EA010C00F11380C6
:106740001CF5000F58BFBCF5000F01D488427047FC
:1067500007D710F5000F58BF11F5000F15D4884268
:106760007047894270471CF5000F04D5BCF5000F37
:10677000F7D5814270474FF0807C1CEB400F38BF4B
:106780001CEB410F01D28142704710B500F089F82F
:10679000922449004FF000504FF08051FFF7AEBEF9
:1067A0004FF47F0C1CEAD0121EBF1CEAD11392EAF0
:1067B0000C0F93EA0C0F00F0478090EA010F48BFDE
:1067C00042F480724FF0004C4CEA00204CEA012168
:1067D00002EB0302A0FB0113A2F50002002918BF7F
:1067E00043F001035B0028BF4FEA330342EB224230
:1067F0005FEA132C4CEBC2502EBFBCEB436FB2F5DB
:106800007C0F70474FEA036CBCF1004F08BF20F0CB
:106810000100B2F57C0F38BF70470BD582F0FF0244
:1068200012F5803FC8BF704700F1C040D8BF00F0EC
:106830000040704700F5000C5FEA4C0C48BF704701
:10684000B0F1C04000F073B890EA010F0CEAD11328
:1068500048BF42F48072624538BF634504D280EA83
:10686000010000F00040704710B500F01AF800BFBA
:106870008900013E00F007B800F009B85FEA410C5A
:106880005FEA1C6C08D080EA010000F050B85FEAB3
:10689000400C5FEA1C6CF6D14FF00040A0F5800080
:1068A00070470EF1020E2EF0030E5EF8044B2442E8
:1068B00004D44FEA4102B2F17F4F11D84FEA4003AE
:1068C000B3F17F4F0CD80ED14FEAD07CB2F17F4F9D
:1068D0000CEB4C0C0CF1020C08BF4CEBD17C04E02F
:1068E0004FF0080C01E04FEAD17C0CEB4C0324FA8A
:1068F00003F404F00704B4F1040C06D20EEB840C8C
:10690000BDE810404CF0010C6047DFE80CF00708D0
:1069100002024FF00040A0F5800010BD0846420082
:1069200018BFD2F1807288BF00F0004010BDFF2177
:1069300041EAD050C005704780F0004090EA010F56
:106940007FF57BAD81F0004100F007B890EA010FC0
:1069500048BF81F000413FF570AD421A04D882F083
:106960000042A0EB020011444FEAD0524FF07F4C9E
:106970001CEA410FA2EBD15318BF9CEA026F4AD028
:106980004FF0004C4CEA00204CEA012121FA03FCB4
:10699000B0EB0C0C0FD412F0FE0F36D05FEA4C00B7
:1069A0001DD5001240EBC25038BF70471CF03F0F9E
:1069B00018BF70470BE0A2F101025FEA1C2040EB18
:1069C000C25038BF70471CF07F0F18BF7047C3F12B
:1069D0002003994014BF401E20F00100704780083A
:1069E0004FEA122308BF7047B0FA80FCA2EB0C02FA
:1069F000CCF1280C60FA0CF093EA122F04BF00EBE4
:106A0000C25070474FEAC3707047130A5FEADC1048
:106A100008BF7047F6E79CEA026F04D010EA5C0FEB
:106A200008BF0020704710B5FFF73BFF40DFF63E80
:106A300081F0004070470CF00F03092B08BF0820BD
:106A400000F07F800A2B0BD0082B18BF704708BFBF
:106A50001CF0400F0AD04FF000004FF000017047CB
:106A60001CF0400F18BF4FF0004070471CF0100F93
:106A700008D020F0704300F07F4242EAD3014FEA91
:106A80004370704700F0604021F07F4242EA00020C
:106A900001F07F4040EA727070474FF0FF0C4CF4F9
:106AA000E06C1CEA11531CBF9CEA030C9445C2BF66
:106AB000DA4201EB02517047002B0DD0BCF1000F00
:106AC0000FD0002A01F00041A4BF41F0E04141F0A5
:106AD0007F614FF00000704701F000414FF000006F
:106AE000704750EA01334FF09B0C18BF4CF0806C9C
:106AF0007FF4C2A870474FF0FF0212EAD0521CBFC9
:106B000092F0FF038B42C2BFD14200EBC1507047ED
:106B1000002A0AD0002B0BD0002900F00040A4BFAF
:106B200040F0FE4040F40000704700F00040704725
:106B300043024FF00B0C18BF4CF0806C7FF4D8ACC4
:106B400070471CF4801F11D01CF4E02F03D06FEAB3
:106B5000CC31490070474FF04050EFF3008222F0F3
:106B6000704242EA000282F3008870474FF0000052
:106B700070470000C86D000859320008000000008E
:106B80000000000080000000000000000000000085
:106B9000C06D000859460008000000000000000019
:106BA000800000000000000000000000DC6D000814
:106BB000ED3200080000000000000000800000002E
:106BC0000000000000000000D46D0008C54D000862
:106BD0000000000000000000800000000000000035
:106BE000000000000000000000000000010203049B
:106BF000060708090000000001020304000000006D
:106C00004FBB610567ACDD3F182D4454FB21E93FC4
:106C10009BF681D20B73EF3F182D4454FB21F93FB3
:106C2000E2652F227F2B7A3C075C143326A6813C39
:106C3000BDCBF07A8807703C075C143326A6913CE4
:106C4000C4EB98999999C9BF711623FEC671BCBF50
:106C50006D9A74AFF2B0B3BF9AFDDE522DDEADBFB8
:106C60002F6C6A2C44B4A2BF0D5555555555D53FD0
:106C7000FF8300922449C23F6E204CC5CD45B73FEB
:106C8000513DD0A0660DB13FEB0D76244B7BA93F63
:106C900011DA22E33AAD903F4C5555555555A53F75
:106CA0007751C1166CC156BF9015CB19A001FA3EA1
:106CB000AD529C804F7E92BEC4B1B4BD9EEE213ECB
:106CC000D43888BEE9FAA8BD00000000000000002A
:106CD00000004054FB21F93F3163621A61B4D03D9A
:106CE0000000601A61B4D03D7370032E8A19A33B73
:106CF0000000002E8A19A33BC14920259A837B39C5
:106D000000000000000000006E83F9A22915444E27
:106D1000D15727FCC0DD34F5999562DB4190433CA7
:106D2000AB6351FE61C5BBDE3A6E24B7E0D24D4283
:106D3000EA2E49061C92D1091CEB1DFE3EA729B183
:106D4000F53582E88444BB2E26709CE9417E5FB411
:106D500039D69139F43953838B5F849C3B28F9BD34
:106D6000FF97F81F0F9805DE8B112FEF1F6D0A5A42
:106D7000CF7E366DB709CB27663F464F2DEA5F9E23
:106D8000C7BA27757BF1E5EBF739073DEA92528ADE
:106D9000B15FFB6B085D8D1FA6F810111111813FCB
:106DA000D561C119A0012ABF7DFEB157E31DC73EC1
:106DB000EB9C2B8AE6E55ABE7CD5CF5A3AD9E53D05
:106DC0006D7075310000000064656661756C745407
:106DD00061736B00736572766F0000007379737274
:106DE0006573657400000000086E00080000002054
:106DF0002C020000280100083C6E00082C02002034
:106E00005C19000084010008051C0AD7A33B258FEC
:106E1000C2F53C4BA0400401A0033AF0415AE03CCB
:106E20001E803FC3F5C8ECE9108109361009506097
:0C6E300032018210035924F41AAA014117
:04000005080000ED02
:00000001FF
